:100000000C943B010C9463010C9463010C94630108
:100010000C9463010C9463010C9463010C946301D0
:100020000C9463010C9463010C94C9180C9442174E
:100030000C9463010C9463010C9463010C946301B0
:100040000C94D9150C9463010C9463010C94630116
:100050000C9463010C9463010C9463010C94630190
:100060000C9423160C9463015374617475733F00F0
:10007000496E626574726965626E61686D653F00A4
:1000800043563F0046617262656E746573743F004B
:100090004932432D5363616E3F0066657274696730
:1000A0000030780056657273696F6E20004E65628D
:1000B000656E7568722D53746174757300313A0002
:1000C0002D002D2D2D002D002B00313A002D005438
:1000D000005374700052756E002D0042002D0047D1
:1000E000002D0052002D2D3A2D2D003F3F003F3FA7
:1000F000003F3F3F00436F6E666967206C004366B8
:10010000672046432D536C760053572D49440056C3
:10011000657273696F6E00422D4272696768740080
:10012000472D42726967687400522D427269676890
:10013000740057532D4272696768740057532D43FA
:100140006F756E7400446576696365494400726F2B
:10015000004356002020007765690067656C6220C7
:100160002000626C61752020006E20200067720004
:10017000726F742020200046617262656E74657330
:1001800074006661696C65640073746F7265640005
:1001900053746174757300446973706C61792D5385
:1001A00074617475730046617374436C6F636B00A4
:1001B0005374617475730000000000240027002A46
:1001C00000000000002300260029000000000800B5
:1001D000020100000304070000000000000000000E
:1001E00086227E6DD24620290B2170104080523F1E
:1001F000065B4F666D7D077F6F090D614843D35FD6
:10020000777C395E79713D76301E753815373F73CE
:100210006B336D783E3E2A766E5B39640F2308029D
:100220005F7C585E7B716F74100C753014545C7376
:1002300067506D781C1C14766E5B463070010001AF
:10024000020408102040800102040810200102046A
:1002500008102000000000250028002B00040404E2
:10026000040404040402020202020203030303035F
:1002700003007B19F32511241FBECFEFD8E0DEBFAA
:10028000CDBF11E0A0E0B1E0ECE0F4E502C00590E4
:100290000D92AC3BB107D9F724E0ACEBB1E001C063
:1002A0001D92AF38B207E1F711E0CAE3D1E004C014
:1002B0002197FE010E94AC28C933D107C9F70E94DB
:1002C000C31A0C94F9290C94000091E09093D30385
:1002D0008093F5031092D4031092F60308950895C5
:1002E00008958530A8F4262F2052330BF901E152EE
:1002F000FE4FE491A82FB0E0AA0FBB1FAE5BBB4F2F
:1003000030E8439FA0011124E42BF0E0ED93FC932F
:10031000089580916C0490916D048230910538F0BD
:10032000880F991F880F991F05970197F1F7089576
:10033000AF92BF92CF92DF92EF92FF920F931F93F3
:10034000CF93DF936B017C01609170047091710415
:100350006115710509F44EC0870122273327B02E9D
:10036000AD2DA80130E020E0DC2D8091700490914B
:10037000710428173907C0F5BD2F80917604CA2F64
:10038000AB2C882371F0849FF001859FF00D112420
:10039000AF2E8A9FF0011124CF2F8C9DC001112414
:1003A000B92FE0917C048091770490917804F091CA
:1003B0007904EF132AC0F901EE0FFF1FE20FF31FBC
:1003C0008E0F9F1FE0917904E80FF92FF11DA08295
:1003D000E0917A04E80FF92FF11DC083E0917B04CE
:1003E000E80FF92FF11DB0832F5F3F4F621773079E
:1003F00009F0BBCFDF91CF911F910F91FF90EF904C
:10040000DF90CF90BF90AF9008958901000F111F2A
:10041000000F111F800F911FE80FF92FF11D10829F
:10042000D1CF833081F028F4813099F08230A9F067
:1004300008958730A9F08830C9F08430B1F48091F4
:1004400080008F7D03C0809180008F778093800033
:10045000089584B58F7784BD089584B58F7DFBCFD3
:100460008091B0008F778093B00008958091B000A4
:100470008F7DF9CFCF93DF93282F30E0F901E5533B
:10048000FE4F8491F901E15CFD4FD491F901E35AEB
:10049000FD4FC491CC23A1F081110E941102EC2FD9
:1004A000F0E0EE0FFF1FEF53FE4FA591B491EC91DA
:1004B000ED2381E090E009F480E0DF91CF91089591
:1004C00080E090E0FACF1F93CF93DF93282F30E0A6
:1004D000F901E553FE4F8491F901E15CFD4FD491A0
:1004E000F901E35AFD4FC491CC23A9F0162F8111D5
:1004F0000E941102EC2FF0E0EE0FFF1FED5AFD4FAE
:10050000A591B4918FB7F894EC91111108C0D095D2
:10051000DE23DC938FBFDF91CF911F910895DE2BF7
:10052000F8CFCF93DF9390E0FC01E15CFD4F249185
:10053000835A9D4FFC0184918823C9F090E0880F75
:10054000991FFC01E954FE4FA591B491FC01ED5AAD
:10055000FD4FC591D49161110DC09FB7F8948C9156
:10056000209582238C938881282328839FBFDF9145
:10057000CF910895623051F49FB7F8943C91822F47
:10058000809583238C93E8812E2BEFCF8FB7F8943F
:10059000EC912E2B2C938FBFEACFCF93DF93C9E63C
:1005A000D4E061E089810E9491020E94890160E0AB
:1005B00088810E9491020E94890160E089810E94E5
:1005C0009102DF91CF910C9489010F931F93CF93E8
:1005D000DF93D82FC8E061E0809169040E94910206
:1005E0000E9489010D2F10E060E0D0FF61E0809152
:1005F0006A040E9491020E94890160E0809169046E
:100600000E9491020E94890115950795D02FC15033
:1006100011F761E0809169040E94910260E080918D
:100620006A040E9491020E94890160E0809169043D
:100630000E9491020E94890180916A040E943A02FC
:10064000C82F811105C061E080916A040E94910267
:100650000E94890161E0809169040E9491020E94D8
:10066000890181E0C11101C080E0DF91CF911F912C
:100670000F91089561E080916A040E9491020C94A8
:1006800089010F931F93CF93DF938C010E943A034C
:1006900080E40E94E5020E94CD020E943A0380ECB1
:1006A0000E94E502E8010C5F1F4F89910E94E5025C
:1006B000C017D107D1F70E94CD020E943A03809162
:1006C0006B048F7080580E94E502DF91CF911F91DB
:1006D0000F910C94CD021F93CF93DF93182FEB0152
:1006E00061E00E949102209739F460E0812FDF9150
:1006F000CF911F910C946302CF3FD10511F461E0BB
:10070000F5CFE12FF0E0E553FE4FE491E33031F116
:1007100040F4E130B1F0E230E1F0C038D1057CF7CF
:10072000E4CFE73029F1E83059F1E430B1F78091B6
:100730008000806280938000D0938B00C0938A00F9
:1007400004C084B5806884BDC7BDDF91CF911F917F
:10075000089584B5806284BDC8BDF7CF80918000C4
:10076000806880938000D0938900C0938800EDCF8B
:100770008091B00080688093B000C093B300E5CF53
:100780008091B00080628093B000C093B400DDCF50
:100790003FB7F8948091CD029091CE02A091CF0204
:1007A000B091D00226B5A89B05C02F3F19F0019645
:1007B000A11DB11D3FBFBA2FA92F982F8827BC01BB
:1007C000CD01620F711D811D911D42E0660F771FE3
:1007D000881F991F4A95D1F708950F931F93CF93C0
:1007E000DF93CDB7DEB729970FB6F894DEBF0FBE03
:1007F000CDBF0E94C80300917D0410917E0420911A
:100800007F0430918004601771078207930740F4DA
:1008100060937D0470937E0480937F0490938004A2
:1008200000917D0410917E0420917F04309180041A
:10083000601B710B820B930B6C327140810591052B
:10084000C0F2F89480917204909173049A83898322
:10085000E0917704F0917804DF0111968081898717
:1008600090916E04E0918104F09182048091830460
:10087000992309F445C09081982B988790818095A1
:1008800089238F838F818C8388E08B8358856F8148
:1008900049853B812C8189819A81508347FD252F91
:1008A0003A952083262F39F0441F00C00000608352
:1008B000000000C0F2CF38E04D9160830000019746
:1008C00061F7F0938204E093810449873B832C8392
:1008D0009A83898378940E94C80360937D047093FF
:1008E0007E0480937F049093800429960FB6F89439
:1008F000DEBF0FBECDBFDF91CF911F910F91089545
:100900009081982B98879081809589238F838F8100
:100910008E8388E08D8358856F8149853D812E8146
:1009200089819A81508347FD252F00C000C0208314
:1009300000C000C000C000C000C060830000262FBF
:100940003A9541F0441F000000C000C000C000C044
:1009500000C0E8CF38E04D9100C0608300C001972F
:1009600009F7F0938204E093810449873D832E8345
:10097000AFCF2FB7F8946091C9027091CA028091ED
:10098000CB029091CC022FBF0895AF92BF92CF922D
:10099000DF92EF92FF920F931F93CF93DF936C013F
:1009A0007B018B01040F151FEB015E01AE18BF0820
:1009B000C017D10759F06991D601ED91FC910190D2
:1009C000F081E02DC6010995892B79F7C501DF91EA
:1009D000CF911F910F91FF90EF90DF90CF90BF903C
:1009E000AF90089520917902260F3327331F2132CB
:1009F0003105ECF42091CD03FC0190E080E024303F
:100A000069F082E00895A09179022191AC01475AE2
:100A10005D4FA40FB52FB11D2C930196861798F347
:100A200080917902680F6093790280E0089581E0F7
:100A300008951092CD0381E08093CC031092A70318
:100A400061E082E10E94630261E083E10E9463024F
:100A5000E9EBF0E080818E7F808380818D7F8083D1
:100A600088E48093B80085E48093BC0008951092D8
:100A7000A6031092A5031092D4031092F6030E94CD
:100A800019058FE691E09093A4038093A30380E778
:100A900091E09093A2038093A1030895CF93DF93F5
:100AA00091E0909358028823B9F0C091B800D0919A
:100AB000BA008091BC008A7B8093BC0060E082E138
:100AC0000E94630260E083E10E9463020E941905B4
:100AD000D093BA00C093B800DF91CF9108958F9260
:100AE0009F92AF92BF92CF92DF92EF92FF920F93BD
:100AF0001F93CF93DF93D091F603D13208F0D7C084
:100B0000182FC091F5030E94C8036B017C018091EE
:100B1000CD0381116BC082E08093CD031093CC0391
:100B20008FEF8093CB031092CA03D093C903A5ED36
:100B3000B3E0E9EAF3E080E0D81391C01092A80393
:100B40008091A803CC0FC82BC093A8038091A70362
:100B5000813009F088C01092A7030E94C8036B017E
:100B60007C018091A8038093BB008091CF0390917A
:100B7000D003A091D103B091D203892B8A2B8B2B68
:100B8000A1F00E94C8030091CF031091D0032091DF
:100B9000D1033091D2036C197D098E099F09061784
:100BA00017072807390708F442C08091BC0083FD6D
:100BB000D8CF85EC8093BC000E94C8036B017C01F8
:100BC0008091CD03823009F450C08091CB038F3FD8
:100BD00009F46FC08091CB03803209F46CC080911E
:100BE000CB03803309F469C084E026C08091CF0331
:100BF0009091D003A091D103B091D203892B8A2B7D
:100C00008B2B09F484CF0E94C8038090CF0390906F
:100C1000D003A090D103B090D2036C197D098E0946
:100C20009F0986169706A806B90608F070CF80912E
:100C3000CE030E944E0585E01092D4031092F60375
:100C40001092D303DF91CF911F910F91FF90EF90FE
:100C5000DF90CF90BF90AF909F908F9008959D911F
:100C600091938F5F69CF85EEA5CF8091CF0390914F
:100C7000D003A091D103B091D203892B8A2B8B2B67
:100C800009F49ECF0E94C8030091CF031091D003B6
:100C90002091D1033091D2036C197D098E099F09EF
:100CA000061717072807390708F08ACFC0CF81E059
:100CB000C3CF80E0C1CF82E0BFCF83E0BDCFCF9272
:100CC000DF92EF92FF920F931F93CF93DF93D82F72
:100CD000C62F613208F098C00E94C8036B017C01E6
:100CE0008091CD0381116BC081E08093CD0380930F
:100CF000CC039FEF9093CB031092CA039C0F909369
:100D0000C9038093A8038091A803DD0FD82BD0934B
:100D1000A8038091A703813009F078C01092A7033F
:100D20000E94C8036B017C018091A8038093BB00E3
:100D30008091CF039091D003A091D103B091D203C1
:100D4000892B8A2B8B2BA1F00E94C8030091CF0323
:100D50001091D0032091D1033091D2036C197D09F9
:100D60008E099F09061717072807390708F448C096
:100D70008091BC0083FDD8CF85EC8093BC000E949D
:100D8000C8036B017C018091CD03813009F440C020
:100D90008091CA038C1710F4C091CA03E9EAF3E00A
:100DA000A1E8B3E080E08C1355C08C2FDF91CF9188
:100DB0001F910F91FF90EF90DF90CF900895809159
:100DC000CF039091D003A091D103B091D203892B8E
:100DD0008A2B8B2B09F484CF0E94C8030091CF0388
:100DE0001091D0032091D1033091D2036C197D0969
:100DF0008E099F09061717072807390708F070CFD3
:100E00008091CE030E944E05C0E0CFCF85EEB5CFD6
:100E10008091CF039091D003A091D103B091D203E0
:100E2000892B8A2B8B2B09F4AECF0E94C80300912B
:100E3000CF031091D0032091D1033091D2036C19CC
:100E40007D098E099F09061717072807390708F03B
:100E50009ACFD6CF91919D938F5FA5CF0895E091C2
:100E6000A6038091A503E81730F4F0E0EF57FC4F9C
:100E7000808190E008958FEF9FEF08959091A603F1
:100E80008091A5032FEF3FEF981748F4E92FF0E08A
:100E9000EF57FC4F208130E09F5F9093A603C9017C
:100EA00008958091A5039091A603891B990B08953D
:100EB000CF92DF92EF92FF920F931F93CF93DF9326
:100EC0007C01CB018A012091D303222389F0EB011D
:100ED0006B01C40ED51ECC15DD0569F06991D701F3
:100EE000ED91FC910190F081E02DC7010995F3CFC0
:100EF000642F0E94F204C801DF91CF911F910F91DE
:100F0000FF90EF90DF90CF900895CF93DF931F92E3
:100F1000CDB7DEB769832091D3032223F9F0209166
:100F2000F603203258F021E030E0FC0133832283C5
:100F300090E080E00F90DF91CF9108958091D403ED
:100F4000E82FF0E0EB52FC4F998190838F5F809304
:100F5000D4038093F60381E090E0ECCF61E0CE0112
:100F600001960E94F204F7CF682F85E594E00C9477
:100F7000850781E00C946F05CF93DF93C1E6D4E041
:100F80008C838A810E9465018E819F81DC01ED91B5
:100F9000FC910190F081E02D6C8109958E819F81FB
:100FA0000E94B90790E099838883DF91CF910895DB
:100FB000CF93DF93EC0118820E943705888180620D
:100FC0000E94650180E00E94B4078FEF0E94B40781
:100FD00085E594E00E94B907888180620E946501DE
:100FE00081E00E94B4078FEF0E94B40785E594E08A
:100FF000DF91CF910C94B907CF93DF93D62FC72FF2
:10100000FC01808180620E94650182E10E94B40738
:101010008D2F0E94B4078C2F0E94B40785E594E0C1
:10102000DF91CF910C94B907CF93DF93EC018B81C3
:10103000882371F088810E94650189819A810E94CC
:10104000B90791E0811190E0892FDF91CF91089548
:101050000E94370581E08B83CE010E941408982FEF
:101060008111E8CFF1CF9C01DC01A058BF4FEC917A
:1010700091E09E0F9C93E20FF32FF11D608397FD8B
:101080001C920895FC0180818076803611F4818164
:1010900008958081829586708E5F0895CF92DF9249
:1010A000EF92FF920F931F93CF93DF93EC0109E12F
:1010B0001EE2EE24E394F12C93E0D92ECC24C394C9
:1010C000CE010E9442088093F102E091F102E150CA
:1010D0001092F0028FEF9091F0029E1768F4A091A9
:1010E000F002AC0FBD2FB11D9C9189279091F002A9
:1010F0009F5F9093F002EFCFEC0FFD2FF11D8083E7
:10110000F8948091EF02813059F48091EE028117BA
:1011100038F01092EF0280916F008D7F80936F0006
:1011200078948091EF02813031F48091EE02843125
:1011300038F2C12CC5CF8091EF0281110EC0F89416
:1011400080916F008F7D80936F00B59B09C0809167
:101150006F00806280936F007894C110B1CF56C049
:10116000E091EC02F091ED0280819091EB02970109
:1011700001C0220F9A95EAF7822B80838091840028
:10118000909185008A5A9C4F9093EA028093E902DD
:101190008091E9029091EA029093890080938800FF
:1011A0007894D093E802C093E7021092F002109274
:1011B000E60288818093E502D092EF021092EE025F
:1011C000B19A80916F00826080936F008091EF02EE
:1011D0008330E1F38091E6028823B1F0E091E302ED
:1011E000F091E402E757FF4F80819181019691834E
:1011F000808383E090E0DF91CF911F910F91FF906A
:10120000EF90DF90CF9008958091EF021B3108F0AE
:101210001150015009F052CF80917D0390917E03CF
:10122000019690937E0380937D0386E090E0E3CF68
:10123000CF93DF93CDB7DEB760970FB6F894DEBFDC
:101240000FBECDBF8BEB89838BE78A831B82CE01D8
:1012500001960E944E0860960FB6F894DEBF0FBE4E
:10126000CDBFDF91CF9108958A30B8F429E0829FF5
:10127000F0011124E45DFE4F85819681803127E2E3
:10128000920758F4883E23E0920748F4843691058B
:1012900040F40A9740F481E0089585E0089584E0E1
:1012A000089583E0089582E008958091120121E07D
:1012B00087FF07C08EE00E943A0221E0892B09F0E7
:1012C00020E0822F0895089590E080E00895EF9245
:1012D000FF920F931F93CF93DF93DC0114962D9110
:1012E0003C912417350710F490E01DC0EA017B0102
:1012F0008C01FC0180810E946501D80111968D91BD
:101300009C91DC01ED91FC910280F381E02DAE0116
:10131000B7010995C817D90739F781E00E946F0511
:1013200091E08111E1CF892FDF91CF911F910F9132
:10133000FF90EF900895CF93DF93CDB7DEB761971D
:101340000FB6F894DEBF0FBECDBF1982A2E4B4E0A1
:10135000FE013196BF019C9111968C9111971296C6
:1013600091838283329684E0A235B807A1F741E1E8
:1013700050E080915204909153040E946709619655
:101380000FB6F894DEBF0FBECDBFDF91CF910895A9
:101390000E945F061092A6038093A5030895FF9212
:1013A0000F931F93CF93DF938C01C62FDCE068303F
:1013B00010F0C850DDE0F801808180620E94650174
:1013C0008D2F0E94B40785E594E00E94B907F801CB
:1013D0008081806261E070E090E00E94C80985E54C
:1013E00094E00E943E07F82EF801808180620E94FE
:1013F00065018D2F0E94B40781E090E001C0880F45
:10140000CA95EAF78F290E94B40785E594E0DF9139
:10141000CF911F910F91FF900C94B9070F931F93D9
:10142000CF93DF938C01C62FD2E1683010F0C85003
:10143000D3E1F801808180620E9465018D2F0E94B6
:10144000B40785E594E00E94B907F80180818062C5
:1014500061E070E090E00E94C80985E594E00E9498
:101460003E07992702C095958795CA95E2F7817046
:10147000DF91CF911F910F910895FF920F931F93CA
:10148000CF93DF931F92CDB7DEB78C016983F42E23
:10149000F8014783608785E090E095838483642F1B
:1014A000CE0101960E940E0AF80116826F2DCE0120
:1014B00001960E940E0A882319F083E0F8018683C2
:1014C0000E94B904F80160837183828393830F9033
:1014D000DF91CF911F910F91FF900895EF92FF92AE
:1014E0000F931F93CF93DF938C01C62FE42E84E1DB
:1014F000F82ED2E1683020F0C85095E1F92ED3E102
:10150000F801808180620E9465018F2D0E94B407DE
:1015100085E594E00E94B907F8018081806261E06E
:1015200070E090E00E94C80985E594E00E943E07C3
:1015300021E030E001C0220FCA95EAF7F1E0C82FA0
:10154000C22BEF1619F02095C22FC823F801808115
:1015500080620E9465018D2F0E94B4078C2F0E942B
:10156000B40785E594E0DF91CF911F910F91FF9033
:10157000EF900C94B907FC01962F828D8F3F31F0CC
:10158000603140F4CF014B960C946E0A642F892F82
:101590000C94630208950F931F93CF93DF93C62F8C
:1015A0008C01055E1F4FD1E062FB442740F94D27B7
:1015B00068E0C8010E946E0AC1FB442740F94D272C
:1015C00067E0C8010E946E0A4C2F4095417066E0AA
:1015D000C801DF91CF911F910F910C946E0AFF9279
:1015E0000F931F93CF93DF938C01C62FF42ED0E07F
:1015F000683010F0C850D1E0F801808180620E940C
:1016000065018D2F0E94B40785E594E00E94B9071B
:10161000F8018081806261E070E090E00E94C8097A
:1016200085E594E00E943E0721E030E001C0220FF2
:10163000CA95EAF7C82FC22BFF2019F02095C22FB8
:10164000C823F801808180620E9465018D2F0E946D
:10165000B4078C2F0E94B40785E594E0DF91CF9109
:101660001F910F91FF900C94B907603110F40C9406
:10167000EF0A0895CF93DF93EC0140E06E810E9462
:10168000BB0A41E06E81CE010E94BB0A40E06E8140
:10169000CE010E94BB0A8BE891E00197F1F7DF9140
:1016A000CF910895AF92BF92CF92DF92EF92FF92C7
:1016B0000F931F93CF93DF93EC018A8D8E01095F07
:1016C0001F4FC62ED12C8F3F09F482C07E018BE1C3
:1016D000E80EF11C8B8D80620E94650182E10E9400
:1016E000B40785E594E00E94B9078B8D806262E0C3
:1016F00070E090E00E94C80985E594E00E943E07F2
:10170000B82E85E594E00E943E0760E0782FCB017B
:101710008B29F80130E020E001E010E04191B801B0
:10172000042E02C0660F771F0A94E2F76095709549
:1017300086239723B601022E02C0759567950A94F9
:10174000E2F76170772702C0660F771F4A95E2F7CC
:10175000862B972B2F5F3F4F24303105F9F62E81D2
:10176000680102C0CC0CDD1C2A95E2F7C094D0942D
:10177000C822D922B601C7010E94FC078E81B80198
:1017800002C0660F771F8A95E2F7C62AD72AB601EC
:10179000C7010E94FC078E81B80102C0660F771F47
:1017A0008A95E2F7609570956C217D21C7010E94B2
:1017B000FC078BE891E00197F1F7DF91CF911F9142
:1017C0000F91FF90EF90DF90CF90BF90AF90089572
:1017D000F12CE12C5E01EBE1AE0EB11CF801819120
:1017E0008F019A8D9F3F39F141E0682FC5010E941A
:1017F000350BA6010E2C02C0559547950A94E2F7C9
:101800004170F80131976081CE010E94BB0AFFEF61
:10181000EF1AFF0A84E0E816F10401F7CE01DF9128
:10182000CF911F910F91FF90EF90DF90CF90BF90DD
:10183000AF900C943A0B61E00E949102DACFAF9224
:10184000BF92CF92DF92EF92FF920F931F93CF93AD
:10185000DF93EC01F62E6C810E94BB0A6D816F3F15
:1018600021F040E0CE010E94BB0A0F2D10E08C89D0
:1018700084FF3BC06E0187E0C80ED11CF12CE12C27
:101880005E01EBE1AE0EB11CF60181916F019A8D04
:101890009F3F39F141E0682FC5010E94350BA80137
:1018A0000E2C02C0559547950A94E2F74170F60157
:1018B00031976081CE010E94BB0AFFEFEF1AFF0A49
:1018C00088E0E816F10401F7CE01DF91CF911F9176
:1018D0000F91FF90EF90DF90CF90BF90AF900C945E
:1018E0003A0B61E00E949102DACFB80184E075956D
:1018F00067958A95E1F7CE010E94520B6F2DCE01BC
:10190000DF91CF911F910F91FF90EF90DF90CF90DB
:10191000BF90AF900C94520B41E00E941F0C81E0ED
:1019200090E008950F931F93CF93DF938C01D0E045
:10193000C0E0F801EC0FFD1F6491662339F041E02F
:1019400088EF93E00E941F0C2196F3CFCE01DF9128
:10195000CF911F910F91089541E0682F88EF93E098
:101960000E941F0C81E090E0089540E00C941F0C51
:10197000CF93DF93CDB7DEB728970FB6F894DEBFCD
:101980000FBECDBF98E0EAE1F1E0DE0111960190D3
:101990000D929A95E1F790911004961708F46FEF65
:1019A000262F30E0220F331F41E050E04C0F5D1F27
:1019B000240F351FF9016081680F606888EF93E09C
:1019C00028960FB6F894DEBF0FBECDBFDF91CF9142
:1019D0000C94B50C61E080E00E94B80C8091C402C8
:1019E000823321F480E791E00C94920C833351F41C
:1019F0008DE691E00E94920C85EF0E94AC0C89E686
:101A000091E0F2CF843319F482E691E0EDCF853393
:101A100051F487E591E00E94920C82EE0E94AC0C9A
:101A200084E591E0E1CF863319F48BE591E0DCCFDA
:101A3000089561E00E94B50C8BE39FE10197F1F7F7
:101A4000089588EF93E00E94190D60E080E00E9405
:101A5000B80C80E990E00E94920C82ED8093C40261
:101A6000089588EF93E00E94190D60E080E00E94E5
:101A7000B80C84E890E00E94920C8DEC8093C40234
:101A8000089588EF93E00E94190D60E080E00E94C5
:101A9000B80C80E890E00E94920C88EC8093C4021D
:101AA000089588EF93E00E94190D60E080E00E94A5
:101AB000B80C80E790E00E94920C82E08093C40210
:101AC000089588EF93E00E94190D60E080E00E9485
:101AD000B80C88E690E00E94920C81E08093C402EA
:101AE00008953F924F925F926F927F928F929F9252
:101AF000AF92BF92CF92DF92EF92FF920F931F931C
:101B0000CF93DF93C82F362E142FD22F81E08093EE
:101B1000BB0280919D0290919E02019690939E023D
:101B200080939D02C093C6020093C70181E0C1115A
:101B300001C080E08093C7020E94B9046093B7029D
:101B40007093B8028093B9029093BA02011104C055
:101B50008091100183FF9BC0CC2309F498C0809131
:101B6000BC02D81709F48DC0809110019091110129
:101B700080729927D0FD04C0892B21F082E003C038
:101B8000892BE1F381E08093B4028091B60288232F
:101B900029F08091B4028C6F0E94BC0780919C0256
:101BA000882309F46EC06D2F70E084E6189F600DE5
:101BB000711D1124072E000C880B990B0E942E27F3
:101BC0002B013C0120E030E040E05FE30E941A2658
:101BD0000E94FD266B017C01812C912C30E8A32E04
:101BE0003FE3B32E00E080E1C81687E2D806E104A7
:101BF000F104E0F0015020E030E040E251E4C501A2
:101C0000B4010E948B264B015C01AC019B01C30116
:101C1000B2010E94DE2720E030E040E05FE30E9456
:101C20001A260E94FD266B017C01DDCF20E030E00A
:101C300040E85FE3C501B4010E948626712CC4E030
:101C40002AE0822E912CA12CB12C87FF32C080E497
:101C500090E09093430480934204909345048093D2
:101C60004404909349048093480490934B048093D8
:101C70004A0482E090E090934704809346040E94D7
:101C80009B091093BD02D093BC023092C601DF9134
:101C9000CF911F910F91FF90EF90DF90CF90BF9069
:101CA000AF909F908F907F906F905F904F903F90FC
:101CB0000895C114D104E104F10411F4071588F169
:101CC000002319F0442443940711412C5C2EC15089
:101CD0006C2E84E0851558F0C701B601A50194016A
:101CE0000E946B28605D442D852D0E947101C230D9
:101CF00069F4CEEFC50D84E0861540F0E62DF0E0E6
:101D0000EE0FFF1FEE5BFB4F11821082C701B60181
:101D1000A50194010E946B2869017A017394C9CFCF
:101D2000C150C7FDA6CFC530DCF7EC2FF0E0EE0FB9
:101D3000FF1FEE5BFB4F11821082F2CF0F93082F33
:101D40002091DA0223548091DC0298E9980F8836BA
:101D500018F468E10E944B28492F6091DD028091C0
:101D6000D7020E94710D0F9108950F93AC018091DD
:101D7000C602882371F12091B0023091B1022E5831
:101D800033404217530728F55093B1024093B002F5
:101D90009091100193FF1DC02091BC0291E0920F21
:101DA0009093BC029C3358F09091BD022B5320932A
:101DB000BC0221E0290F283170F42093BD0200916C
:101DC000C7012091BC024091BD026091C6010E94F2
:101DD000710D0F91089597519093BD02F0CF0F931D
:101DE0001F93CF93DF938C018091770490917804B7
:101DF0000E944E2990917C0480917904981721F1DA
:101E000084E090E0809FE001819FD00D909FD00DF5
:101E10001124D0937304C0937204CE010E94B2289F
:101E20009093780480937704009789F0AE0170E076
:101E300060E00E94E9291093710400937004DF911F
:101E4000CF911F910F91089583E090E0DBCF109226
:101E50007304109272041092710410927004EFCF08
:101E60008F929F92AF92BF920F931F93CF93DF9366
:101E7000CDB7DEB7A1970FB6F894DEBF0FBECDBFCA
:101E800019A2423008F44AE08E010F5D1F4F842EE4
:101E9000912CB12CA12CA50194010E946B28E62F56
:101EA000B901CA01EA3044F5E05DD801EE938D0135
:101EB000232B242B252B79F790E080E0109769F0F5
:101EC000FD0101900020E9F73197AF014A1B5B0B40
:101ED000BD0188EF93E00E94C504A1960FB6F89467
:101EE000DEBF0FBECDBFDF91CF911F910F91BF908D
:101EF000AF909F908F900895E95CD7CFCF93DF93F9
:101F0000EC016530D8F0C03187E2D80750F480E3A7
:101F10000E94AC0CC83E83E0D80718F480E30E940E
:101F2000AC0CC436D10518F480E30E94AC0CCA3066
:101F3000D10550F480E30E94AC0C06C0643051F32C
:101F4000633079F3623099F3BE0190E080E04AE0BB
:101F5000DF91CF910C94300F1F93CF93DF93D091EB
:101F6000BD02C091BC029091C5019D1381E090918A
:101F7000C4019C1302C0882379F11091BB02D09355
:101F8000C501C093C40161E080E00E94B80C112338
:101F900001F1D73190F462E08D2F90E00E947E0F26
:101FA0008AE30E94AC0CCC3368F462E08C2F90E0A2
:101FB000DF91CF911F910C947E0F8EEE90E00E94E6
:101FC000920CEECF8BEE90E0DF91CF911F910C94AD
:101FD000920C85EE90E0F8CFDF91CF911F9108959C
:101FE000DF92EF92FF920F931F93CF93DF93C82F4F
:101FF000D090BD02E090BC02F090BB021091C702ED
:10200000D091C6020E945509082F8091C3018D13FB
:10201000C1E08091C5018D11C1E08091C4018E1194
:10202000C1E08091C2018F11C1E08091C101811393
:10203000C1E08091C001801303C0CC2309F46EC0BD
:10204000D093C301D092C501E092C401F092C201C5
:102050001093C1010093C001112309F45DC0EE2467
:10206000E394D23008F4E12CC1E0D13009F0C0E0B3
:1020700061E080E00E94B80C83EE90E0112311F043
:1020800081EE90E00E94920C8FED90E0E11002C092
:102090008DED90E00E94920C8BED90E0C11102C09A
:1020A00089ED90E00E94920C61E084E00E94B80CFF
:1020B00085ED90E0111102C081ED90E00E94920C3C
:1020C00061E088E00E94B80C8FEC90E0F11002C053
:1020D0008DEC90E00E94920C61E08AE00E94B80CC6
:1020E0008AEC90E00E94920C62E08D2F90E00E94BA
:1020F0007E0F61E08FE00E94B80C88EC90E0011147
:1021000002C086EC90E0DF91CF911F910F91FF907C
:10211000EF90DF900C94920CE12CA9CFDF91CF913E
:102120001F910F91FF90EF90DF900895EF92FF9233
:102130000F931F93CF93DF93CDB7DEB764970FB69E
:10214000F894DEBF0FBECDBF082FF92E60910D04AD
:102150006D7F60930D04686088EF93E00E94B50C7A
:1021600088EF93E00E94190D60E080E00E94B80CB7
:1021700081E591E00E94920C60E083E00E94B80C3F
:10218000E090C4021DEE1E0D1A3018F480E20E9489
:10219000AC0C612F70E090E080E04AE00E94300FCC
:1021A0001CEE1E0D60E086E00E94B80C85E491E014
:1021B0009A8389838CE391E09C838B8382E391E013
:1021C0009E838D8389E291E098878F8380E291E0FE
:1021D0009A87898787E191E09C878B878FE091E0E0
:1021E0009E878D8789E091E0988B8F878EEF90E0B6
:1021F0009A8B898B85EF90E09C8B8B8B81EF90E0A5
:102200001A3040F4E12FF0E0EE0FFF1FEC0FFD1F3E
:10221000818192810E94920C61E080E00E94B80C62
:102220008091A902882319F08EE30E94AC0C1A3029
:10223000A0F589E0189FF0011124E45DFE4F87812D
:10224000823059F507FD03C080E30E94AC0C0034D6
:10225000E0F480E30E94AC0C0032B8F480E30E940A
:10226000AC0C003190F480E30E94AC0C083068F4B0
:1022700080E30E94AC0C043040F480E30E94AC0C7C
:10228000023018F480E30E94AC0C602F70E090E004
:1022900080E042E00E94300F08C0812F0E94340984
:1022A000682F802F9F2D0E947E0F8091A90281119F
:1022B00044C01A3048F489E0189FF0011124E45D0D
:1022C000FE4F80858823D9F161E08EE00E94B80C32
:1022D0008EE491E064960FB6F894DEBF0FBECDBFDA
:1022E000DF91CF911F910F91FF90EF900C94920C82
:1022F00089E0189FF0011124E45DFE4F8085811173
:102300001EC061E08091A6020E94B80C60910D048D
:10231000862F826080930D046A6088EF93E0649654
:102320000FB6F894DEBF0FBECDBFDF91CF911F91E6
:102330000F91FF90EF900C94B50C1A30C8F2649690
:102340000FB6F894DEBF0FBECDBFDF91CF911F91C6
:102350000F91FF90EF90089588EF93E00E94190D80
:1023600060E080E00E94B80C8DEA90E00E94920C40
:1023700061E080E00E94B80C84EA90E00E94920C38
:1023800060910C0170910D0190E080E04AE00C94A6
:10239000300FEF92FF920F931F93CF93DF930E9422
:1023A000370580E20E94650185E594E00E94B90747
:1023B0009091AB02882371F0992319F01092C50215
:1023C00090E09093AB02DF91CF911F910F91FF901E
:1023D000EF90089591110DC181E494E00E94D80717
:1023E000809112048F3F09F45AC00E94370583E19F
:1023F00094E00E94D80741E068E083E194E00E9405
:10240000EF0A41E066E083E194E00E94EF0A41E0D8
:1024100067E083E194E00E94EF0A67E088EF93E0D1
:102420000E94CB0A6091FD03662329F041E083E11D
:1024300094E00E94350B41E06091FC0383E194E05D
:102440000E94350B41E06091FE0383E194E00E941D
:10245000350B0FEF13E0C8EFD3E083E0E82E84E004
:10246000F82EF80161918F0141E083E194E00E9430
:10247000350BE016F106A9F70DEF13E040E06F858C
:1024800083E194E00E94350B6F85603120F483E195
:1024900094E00E94CF0921960C171D0779F78091CF
:1024A0000C04886080930C0482E0809310041092E6
:1024B00011048BE39DE00197F1F740E06091FC038C
:1024C00088EF93E00E94BB0A40E06091FE0388EF32
:1024D00093E00E94BB0A6091FD036F3F29F040E04A
:1024E00088EF93E00E94BB0A60910C0464FD83C0F6
:1024F00063E088EF93E00E94520BCBE4D6E4CE0178
:102500000197F1F763E088EF93E00E94520B219767
:10251000F1F763E088EF93E00E94520B83E592E0CD
:102520000197F1F762E088EF93E00E94520B60910F
:102530000C04606288EF93E00E94B50C84E0809305
:102540000D046CE088EF93E00E94B50C88EF93E0F7
:102550000E94190D82E080930E0466E088EF93E0FC
:102560000E94B50C40E065E081E494E00E94EF0A2F
:1025700065E081E494E00E94CF0944E050E060917E
:10258000410484E194E00E943D0A43E050E0609100
:10259000410486E294E00E943D0A42E050E06091EE
:1025A00041048FE294E00E943D0A41E050E06091D6
:1025B00041048DE194E00E943D0A50E040E06091CA
:1025C000410488E394E00E943D0A80910E019091BD
:1025D0000F01429711F40E94AC111092AA021092BE
:1025E000C4021092A8021092A7021092C502109283
:1025F000A90291E0E6CE606288EF93E00E94B50CFC
:102600008BE496E40197F1F760910C04606288EF27
:1026100093E00E94B50C83E592E00197F1F7609199
:102620000C04606288EF93E00E94B50C80CFEF92BB
:10263000FF920F931F93CF93DF939091BD02C091B0
:10264000BC020091BB02E0909D02F0909E021091AE
:10265000C602D091C7012091BE013091BF012E1555
:102660003F0509F081E02091C301211381E0209111
:10267000BD012D1381E02091C501291381E0209136
:10268000C4012C1381E02091BC01201303C08823D6
:1026900009F44CC0F092BF01E092BE011093C30157
:1026A000D093BD019093C501C093C4010093BC01B8
:1026B00061E080E00E94B80C01110AC082EC90E059
:1026C000DF91CF911F910F91FF90EF900C94920C9E
:1026D00064E0C7010E947E0F80EC90E00E94920CA3
:1026E0008DEB90E00E94920C62E0812F90E00E94BE
:1026F0007E0F8DE20E94AC0C80E3D11181E30E9439
:10270000AC0C8DE20E94AC0C68EB71E0C0FF02C023
:102710006AEB71E041E050E088EF93E0DF91CF9108
:102720001F910F91FF90EF900C94C504DF91CF9112
:102730001F910F91FF90EF90089585ED8093BC005D
:102740008091CF039091D003A091D103B091D20397
:102750000796A11DB11D23E0B695A795979587957E
:102760002A95D1F72091BC0024FD03C01092CD031F
:1027700008954091CF035091D0036091D10370919F
:10278000D203452B462B472B69F30097A105B105D2
:1027900041F02AE22A95F1F700C00197A109B10999
:1027A000E1CF8091CE030C944E052F923F924F9231
:1027B0005F926F927F928F929F92AF92BF92CF92D1
:1027C000DF92EF92FF920F931F93CF93DF9300D08E
:1027D00000D0CDB7DEB79C838B837C0141E8E40E4B
:1027E000F11C6C0150E8C50ED11C8C010E571F4F17
:1027F0008D579F4F2C018B819C818C579F4F4C0193
:1028000022242A94AB80BC8097E8A90EB11CEB81EE
:10281000FC81EB57FF4FFA83E983F7018081F601D2
:102820009081891709F4BAC0EB81FC81E80FF11D92
:10283000308037FE6DC0F8019081891739F0F501BD
:10284000208131812F5F3F4F31832083F8018083C6
:10285000F2012082832D8076F401803609F441C094
:10286000832D829586708E5F8083F8012081F4012C
:102870008081820F9927991F813891059CF180E80A
:10288000682E621AF894F6014081F801808184175D
:1028900008F044C0F42FF81B8F2FF6018083789442
:1028A000F80160814617E8F5712C50E06B817C815E
:1028B000CB01860D971D0E94D729F80160814B81BD
:1028C0005C81460F511DBA01A3018B819C810E943E
:1028D000D729F7018081F8019081891BF701808356
:1028E000F8011082F70190819F5F9083F801808149
:1028F000392F381B97FF02C0F7011082F2012081A7
:10290000F40190819317A9F03226F201308285CF2D
:10291000F40180818111E6CF3082A7CF862D840F0C
:10292000BCCF461B50E08B819C81860F911DBC0162
:10293000CCCF32122AC04B815C81480F511DCA0195
:10294000E981FA81408151814F5F5F4F518340831C
:10295000F7013081F80130830097B1F20F900F90AA
:102960000F900F90DF91CF911F910F91FF90EF90FB
:10297000DF90CF90BF90AF909F908F907F906F909F
:102980005F904F903F902F900895F5018081918145
:1029900001969183808390E080E0DACF90E080E040
:1029A000DDCF6F927F928F929F92AF92BF92CF9224
:1029B000DF92EF92FF920F931F93CF93DF93E091FB
:1029C000B202F091B302D581D37097808680738074
:1029D0006280A82EE894A7F887FD9AC0D061B62E31
:1029E000E894B7F867FDD860C42EE894C7F811E101
:1029F00047FF10E1D22EE894D7F827FD1260F02EA1
:102A0000E894F7F807FD14600E2D0F77E7FC1860C7
:102A1000C92DC82588E0C827C725C625C027CF25CA
:102A2000CD25CC25CB25CA25CD27C12765EE88EC41
:102A300091E00E94330860E188EC91E00E94330845
:102A4000662D88EC91E00E943308672D88EC91E0B8
:102A50000E94330862E088EC91E00E9433086D2FF9
:102A600088EC91E00E943308682D88EC91E00E9488
:102A70003308692D88EC91E00E9433086A2D88ECB8
:102A800091E00E9433086B2D88EC91E00E9433089E
:102A9000612F88EC91E00E9433086C2D88EC91E066
:102AA0000E9433086D2D88EC91E00E9433086F2D51
:102AB00088EC91E00E943308602F88EC91E00E943E
:102AC00033086C2F6F7788EC91E00E9433086FEF2A
:102AD00088EC91E00E94330888EC91E00E94D513C5
:102AE0009093B3028093B202009711F00E944E08B7
:102AF00081E0DF91CF911F910F91FF90EF90DF90D8
:102B0000CF90BF90AF909F908F907F906F900895DF
:102B1000D46165CF0F931F93CF93DF93E82FF0E03D
:102B200099E0899FD0011124A45DBE4F15962D9187
:102B30003C9126173707C0F08B01C82FEE0FFF1FFF
:102B4000E050FF4F71836083CF5FCC0FD0E0612FE7
:102B5000CE010E940B26602FCE010196DF91CF910E
:102B60001F910F910C940B26DF91CF911F910F9124
:102B700008958A3010F40C948A150895CF93DF934A
:102B80006DE490E080E00E940B266AE581E090E031
:102B90000E940B26CCE2D1E069817A8188810E9473
:102BA000B915299681E0C638D807B1F7DF91CF91E2
:102BB00008951F920F920FB60F9211242F933F93F7
:102BC0008F939F93AF93BF938091C9029091CA0254
:102BD000A091CB02B091CC023091C80223E0230F28
:102BE0002D3758F50196A11DB11D2093C802809381
:102BF000C9029093CA02A093CB02B093CC028091F9
:102C0000CD029091CE02A091CF02B091D002019658
:102C1000A11DB11D8093CD029093CE02A093CF024F
:102C2000B093D002BF91AF919F918F913F912F911F
:102C30000F900FBE0F901F90189526E8230F029655
:102C4000A11DB11DD2CF1F920F920FB60F9211246A
:102C50002F933F934F935F936F937F938F939F93A4
:102C6000AF93BF93EF93FF938091B900887F803635
:102C700009F44AC0F0F5883209F4A7C018F580318C
:102C800009F49BC0B8F4882309F4F9C0883009F42A
:102C900094C0FF91EF91BF91AF919F918F917F91E0
:102CA0006F915F914F913F912F910F900FBE0F90B9
:102CB0001F901895883109F488C0803251F78093AD
:102CC000CB0314C0803409F49DC040F48033B9F3C1
:102CD0008833F9F68093CB0385ECB0C0803509F4D6
:102CE00085C0883509F496C0883499F60E949D13F2
:102CF000D0CF883909F48CC038F5883729F050F4E2
:102D0000883611F0803729F683E08093CD03109246
:102D10009B0257C0883809F47BC0803919F080388D
:102D200009F0B7CF80919B02803208F071C0E0912A
:102D30009B0281E08E0F80939B028091BB00F0E0AC
:102D4000E558FD4F80833DC0803B39F0E0F4803A88
:102D500009F479C0883A09F09CCF84E08093CD03D0
:102D600010927A0210927902E091A303F091A403E9
:102D700009958091790281110FC081E080937902D9
:102D80001092590209C0803C09F4A6CF883C09F48E
:102D9000A3CF883B09F07DCFE0917A0281E08E0FCE
:102DA00080937A02F0E0E75AFD4F80818093BB0068
:102DB00090917A028091790229C08091A803809332
:102DC000BB0085EC8093BC0064CF9091CA038091D6
:102DD000C903981758F5E091CA0381E08E0F8093DC
:102DE000CA03F0E0E755FC4F8081E9CFE091CA03C8
:102DF00081E08E0F8093CA038091BB00F0E0E7551D
:102E0000FC4F80839091CA038091C9039817C8F240
:102E100085E8D8CFE091CA0381E08E0F8093CA0382
:102E20008091BB00F0E0E755FC4F80838091CC039C
:102E300081115CCF81E08093A70384EA8093BC007A
:102E40001092CD0326CF85EC8093BC001092CD0369
:102E500080919B02803230F4E0919B02F0E0E558D3
:102E6000FD4F108260919B0270E0E091A103F09110
:102E7000A2038BE792E0099510929B020ACF109271
:102E8000CB0334CF1F920F920FB60F921124DF9213
:102E9000EF92FF920F931F932F933F934F935F9364
:102EA0006F937F938F939F93AF93BF93CF93DF9352
:102EB000EF93FF93B19A8091E9029091EA028054D6
:102EC0009C4F9093EA028093E9028091E9029091ED
:102ED000EA029093890080938800809157028823AA
:102EE00071F010925702189B26C081E08093EF0288
:102EF000B59A80916F00806280936F001CC08091B2
:102F0000EE028F5F8093EE028091EF02843009F031
:102F100043C08091EE02893030F58091E50290E067
:102F2000959587958093E502189B05C08091E502F1
:102F300080688093E502FF91EF91DF91CF91BF917F
:102F4000AF919F918F917F916F915F914F913F9141
:102F50002F911F910F91FF90EF90DF900F900FBE78
:102F60000F901F901895B59A80916F0080628093A2
:102F70006F008091E3029091E402189929C0FC014E
:102F8000E957FF4F80819181019691838083109250
:102F9000EE0281E08093EF028091EF028330E9F549
:102FA000E091EC02F091ED0280812091EB0233B1CF
:102FB00090E0022E02C0959587950A94E2F7832748
:102FC00080FD11C01092EE0282E08093EF0225C0D6
:102FD0006091E5020E94330880E090E0892BB9F20D
:102FE0000E940000D4CF8091EE02893008F043C0E7
:102FF0003091E50281E090E001C0880F2A95EAF760
:10300000908130FF36C08095892380838091E502CE
:1030100090E0959587958093E5028091EF0282304C
:1030200099F48091EE0281118EC0E091EC02F09152
:10303000ED0280819091EB0221E030E001C0220F8F
:103040009A95EAF7822B80838091EF02813009F014
:1030500072CF8091EE02882309F44ACF8091EE026C
:10306000883308F468CF1092EF0280916F008D7F53
:1030700043CF892BCACF8091EE02893059F4308139
:1030800081E090E001C0880F2A95EAF780958323BC
:103090008083C3CF8091F0028F5F8093F002909184
:1030A000F102891750F51092EE028091E70290919B
:1030B000E802A091F002A80FB92FB11D8C91809366
:1030C000E502808141E050E001C0440F2A95EAF713
:1030D000842B808380918400909185008A5A9C4F34
:1030E0009093EA028093E9028091E9029091EA02CA
:1030F000909389008093880090CF81E08093E602CE
:103100000091E7021091E802E090E302F090E402FF
:10311000C8010E944208D82ED0E0C0E0CD1548F486
:10312000F801EC0FFD1F6081C7010E943308219652
:10313000F5CF80E090E0892B11F00E940000109202
:10314000EE0281E042CF8091EE028F3008F47CCF16
:10315000E091EC02F091ED0220813091EB0281E0F0
:1031600090E001C0880F3A95EAF78095822380832A
:103170001092EE0281E08093EF02E091E302F09181
:10318000E402E357FF4F8081918101969183808310
:103190005BCF1F920F920FB60F9211248F939F93C4
:1031A000EF93FF93B59AEFE6F0E080818F7D808307
:1031B000809186009091870080529E4F9093EA0202
:1031C0008093E9028091E9029091EA02909389004C
:1031D00080938800B19A80818260808384E08093AC
:1031E000EF021092EE0281E080935702FF91EF917F
:1031F0009F918F910F900FBE0F901F9018958A305E
:1032000028F529E0829FF0011124E45DFE4F8581BD
:103210009681803127E29207C8F4883E23E0920726
:10322000B8F484369105B0F40A97B0F481E0909137
:10323000A602891B990B8530910580F4880F991F90
:10324000FC01EE5DFE4F80819181089585E0EFCF16
:1032500084E0EDCF83E0EBCF82E0E9CF90E080E047
:1032600008951F93CF93DF93C091A702D091A80236
:103270002196D093A802C093A70261E080E00E944B
:10328000B80CC038D10538F08AE990E0DF91CF91D1
:103290001F910C94920CC091A702D091A8028C2F80
:1032A0000E94650185E594E00E94B907182F8823E4
:1032B00011F08430D1F481EA90E00E94920CDD2775
:1032C000C031D10518F480E30E94AC0CBE0190E03F
:1032D00080E040E10E94300F80E2143009F48FE377
:1032E000DF91CF911F910C94AC0C2196D093A80242
:1032F000C093A702C6CFCF931092580410925704E0
:1033000088EE93E0A0E0B0E08093590490935A04D3
:10331000A0935B04B0935C048EE991E09093560413
:103320008093550486E08093840480E8809385042C
:1033300088E080938604109287041092880410928B
:10334000890410928A0461E086E00E9491020E9442
:10335000B9046093870470938804809389049093E0
:103360008A0410926F0410927604109278041092DE
:10337000770410927D0410927E0410927F041092C4
:10338000800481E080937C048093790410927A0415
:1033900092E090937B0480936E0488E090E00E941A
:1033A000EF0E80916F04882349F08091740490910E
:1033B000750497FD03C060E00E9491028AE090E0EE
:1033C000909375048093740480916F04882341F076
:1033D00061E08AE00E94910260E08AE00E9463025C
:1033E000E7E6F2E0E491F0E0EE0FFF1FED5AFD4F4B
:1033F000859194919093820480938104E9E4F2E0B2
:10340000E491E0938304C4E0C093690485E0809371
:103410006A0484E690E090936D0480936C0460E00D
:1034200084E00E94910260E080916A040E9491020F
:1034300060E0809169040E94630260E080916A0408
:103440000E94630210926204109261048DE38093E3
:103450006304109264048FEF809365048093660484
:1034600085E594E090936804809367041092530478
:1034700010925204109254041092FB031092FA031B
:103480001092120410920C048FE08093FC038EE0E3
:103490008093FD038DE08093FE038CE08093FF0317
:1034A0008BE0809300048AE08093010489E080939C
:1034B00002041092070481E08093080482E0809364
:1034C000090483E080930A04C0930B0480EB91E02D
:1034D0009093F9038093F80310921404109215044A
:1034E00010921604109217048AE090E09093190449
:1034F0008093180410921A0410921B0410921D0459
:1035000010921E0410921F04109220049093220423
:103510008093210410922304109224041092260414
:1035200010922704109228041092290490932B04DF
:1035300080932A0410922C0410922D0410922F04D0
:10354000109230041092310410923204909334049B
:10355000809333041092350410923604109238048C
:103560001092390410923A0410923B0490933D0457
:1035700080933C0410923E0410923F048DE18093AE
:10358000F703CF910895CF93DF93CDB7DEB76A9756
:103590000FB6F894DEBF0FBECDBF789484B58260BD
:1035A00084BD84B5816084BD85B5826085BD85B5E7
:1035B000816085BD80916E00816080936E00109265
:1035C00081008091810082608093810080918100E0
:1035D0008160809381008091800081608093800071
:1035E0008091B10084608093B1008091B0008160CF
:1035F0008093B00080917A00846080937A008091FB
:103600007A00826080937A0080917A008160809352
:103610007A0080917A00806880937A001092C100CD
:1036200060E0E62E61E0F62E72E0C72ED12CC601D6
:103630000E940326182FC60101960E940326212FFF
:1036400030E0322F2227820F932F911DD7018D93C7
:103650009D937D01B2E0CB0ED11CE6E1CE16D104E4
:1036600031F780910C0190910D01059728F465E0E8
:1036700070E086E00E948A1580910E0190910F0102
:10368000429711F00E94BE150E94C911E2EFF2E0CC
:103690008FE8DF011D928A95E9F761E087E00E94DB
:1036A0009102E6E4F2E02491E4E6F2E0E491F0E055
:1036B000EE0FFF1FED5AFD4F4591549180E091E0D0
:1036C00031E0291741F08F5F932F082E01C0990F29
:1036D0000A94EAF7F6CF5093ED024093EC02809300
:1036E000EB0282EF92E09093E4028093E302209851
:1036F000E091EC02F091ED0220813091EB0281E04B
:1037000090E001C0880F3A95EAF780958223808384
:103710001092800011E0109381001092EF02B59A90
:1037200080916F00806280936F0080918100887F1C
:103730008160809381001092D2021092D10284E0C5
:103740008093D3020E9418091092C60210929E0222
:1037500010929D021092B7021092B8021092B90214
:103760001092BA021092C7020E9437058DE30E94A0
:10377000650185E594E00E94B907811102C01093AC
:10378000B60280E70E94650185E594E00E94B907D2
:10379000811175C081E080939C02809152049091C8
:1037A0005304009711F00E944E2986E090E00E9499
:1037B000B2288C0180E7F801808385E594E092834C
:1037C0008183138280E290E0958384831093530475
:1037D000009352040E94370581E0D80113968C9320
:1037E000C8010E941408882309F449C081E2898B2A
:1037F00041E050E0BE016F5E7F4F80915204909196
:1038000053040E94670910924304109242041092DC
:1038100045041092440410924704109246041092FA
:1038200049041092480410924B0410924A041092DA
:103830004D0410924C0410924F0410924E041092BA
:103840005104109250040E949B0981E8898341E051
:1038500050E0BE016F5F7F4F8091520490915304FE
:103860000E9467098FEE898341E050E0BE016F5FDF
:103870007F4F80915204909153040E946709809178
:10388000120187FF04C062E08EE00E9491028091E5
:1038900002019091030121E0009709F420E02093B8
:1038A000C302009709F45FC00E94EF0E8091740478
:1038B0009091750497FD48C061E00E94910260E01C
:1038C000809174040E94630281E080936F044091B0
:1038D00072045091730470E060E0809177049091DD
:1038E00078040E94E92980910401FF24F394F80EE2
:1038F00020917604F216B9F10091770410917804C2
:10390000215070E060E061F08F3F09F530E050E059
:1039100040E06FEF7FEF80E090E00E948D28B901DA
:10392000F8014091720450917304CF01801B910BF8
:1039300084179507B0F44081469FC001479F900DC2
:10394000112490833196EDCF10926F04C0CF8F2D4C
:1039500090E0982F88270197622F70E00E945728E7
:10396000DFCFF09276048091120181FF03C09FE0C7
:1039700090936B0482FF14C061E08CE00E9491027E
:1039800061E08DE00E94910261E08FE00E9491026F
:1039900061E080E10E94910261E081E10E94910278
:1039A000B0E64B2EBAEE5B2E612C712CFE013397E4
:1039B000FB8BEA8B9E012B5F3F4F3D8B2C8B222490
:1039C0002394312C0E94B90400918704109188043B
:1039D0002091890430918A04601B710B820B930B38
:1039E000653171058105910500F10E94B90460936C
:1039F0008704709388048093890490938A0460916B
:103A0000850480918604613C20F081958093860432
:103A100002C06032D0F380918604680F6093850401
:103A200070E0809184040E946B030E94B9040091AD
:103A3000A2021091A3022091A4023091A502601B62
:103A4000710B820B930B6E3771058105910528F17F
:103A50000E94B9046093A2027093A3028093A4020F
:103A60009093A5029091A10281E098279093A102E2
:103A7000992399F09091BE0298279093BE029923C2
:103A800061F09091A00298279093A002992329F0C9
:103A900090919F02892780939F020E94C911809173
:103AA000AB02811103C01092C5023CC065E081E405
:103AB00094E00E940E0A30E2839FC0011124809599
:103AC000909561E085FD60E088EF93E00E94CB0A6D
:103AD00007E014E0F12CE12CFFE1CF2EDE2CD80121
:103AE0006D918D0180E0603120F483E194E00E94CB
:103AF0000E0A90E002C0880F991FDA94E2F78095D1
:103B00009095C822BFEFEB1AFB0AE5E0EE16F10430
:103B100029F78091AA02C11069C0882309F4DBC289
:103B20001092AA0282EF92E00E94D513FC019093BA
:103B3000B3028093B202892B09F403C5828190916C
:103B4000100194FFDFC28B3709F0DFC280818F3E06
:103B500029F4828586FD02C0806482878081877F08
:103B6000873E09F0D2C2858140E8849F90011124EC
:103B70008481820F932F911DAFEFBFE3A81BB90B78
:103B8000B093B102A093B002828586FF7FC6809178
:103B9000D1029091D202181619060CF0B6C28EE02E
:103BA000A4EDB2E001900D928A95E1F781E00E94C8
:103BB0009E0E8091D30282FF12C08091D902B0E89C
:103BC0008B9F900111248091D802820F932F911D19
:103BD000EFEFFFE3E81BF90BCF010E94B50E82E087
:103BE00090E09093D2028093D1028FC2C81609F45C
:103BF00072C21091C402C092AA02111105C0C2FE85
:103C000091CF0E94610D8ECF1130F9F4C3FE05C033
:103C10000E94AC111092C40285CFC2FE03C00E9464
:103C2000510D80CFC1FE36C088EF93E00E94190D80
:103C300060E080E00E94B80C80EB91E00E94920C62
:103C400081E00E9417138AE045C01230E1F4C3FC02
:103C5000D8CFC1FE03C00E94410D64CFC2FE62CF27
:103C600087E08093C40288EF93E00E94190D60E022
:103C700080E00E94B80C86EA91E00E94920C81E0FC
:103C80000E94AC0F4FCF173079F4C3FCC8CFC0FCF3
:103C90000E9418098EEC810F853008F0C4C1C4FE63
:103CA000AEC10E94310DFFCE1A30B9F4C4FCA9CFC9
:103CB000C1FEF0CF88EF93E00E94190D60E080E034
:103CC0000E94B80C87E991E00E94920C81E00E946A
:103CD000F00F8BE08093C40225CF1B3009F04FC753
:103CE000C4FED8CF88EF93E00E94190D60E080E019
:103CF0000E94B80C80E991E0A1CF65E070E086E019
:103D00000E948A155DC789E0809FF001819FF00DB8
:103D10001124E45DFE4F838194816817790708F4CC
:103D200029C7858196818617970708F423C7808560
:103D3000811120C78D2D0E94B91529E02D1508F09D
:103D40003FC78FEF9FEF0E94961061E08AE00E94CC
:103D5000B80C46C7C4FE11C08091A902882351F057
:103D60001092A90239E0ED2D3D1508F0D1C08FEF7A
:103D70009FEFBEC00E94410D96CEC1FE59C08091FA
:103D8000A902811120C049E04D15E8F0ED2DF0E0C9
:103D900059E0D59ED0011124A45DBE4F18968C9198
:103DA000811111C0EE0FFF1FE050FF4F8081918104
:103DB0009093A8028093A70221E02093A902109279
:103DC000A6020E9496108091A902882309F4AACE27
:103DD0001091A6021F5F1093A60289E08D1548F08E
:103DE00099E0D99EF0011124E45DFE4F8781823075
:103DF00061F08D2D0E94340990E001961817190684
:103E000031F481E08093A60202C01930D1F361E061
:103E10008091A6020E94B80C60910D04862F8260EA
:103E200080930D046A6088EF93E00E94B50C7ACE0F
:103E3000C3FE76C09091A902992309F45CC0E0907A
:103E4000A702F090A802A9E08FEF9FEFAD1508F44C
:103E500040C00D2D10E0B9E0DB9EF0011124E45DBF
:103E6000FE4FC780E1E0EC1580F08D2D0E94FF1819
:103E70008E0D9F1D9093A8028093A7028E159F051B
:103E800020F4F092A802E092A7022091A7023091BC
:103E9000A80242E0C41213C08091A60248E050E09C
:103EA000481B5109D10102C0AA0FBB1F4A95E2F776
:103EB000CD01822B932B9093A8028093A70289E0D7
:103EC000809FF001819FF00D1124E45DFE4F8581FC
:103ED00096812091A7023091A8028217930720F4BF
:103EE000F092A802E092A7028091A7029091A80206
:103EF0000E94961017CE1F5F1093C402181710F07F
:103F00008093C402E091C402E451EA3008F02FCF5C
:103F1000F0E0EE0FFF1FE050FF4F80819181E8CF6E
:103F2000C2FEB8CE8091A902882309F460C0E09057
:103F3000A702F090A802B9E090E080E0BD1508F477
:103F400043C00D2D10E029E0D29EF0011124E45D64
:103F5000FE4FC78031E03C1588F08D2D0E94FF1880
:103F6000A701481B590B5093A8024093A702E416DF
:103F7000F50620F4F092A802E092A7022091A70291
:103F80003091A80252E0C51215C08091A602A8E0A7
:103F9000B0E0A81BB109F10102C0EE0FFF1FAA9506
:103FA000E2F7CF0180959095822393239093A80206
:103FB0008093A70289E0809FF001819FF00D11247A
:103FC000E45DFE4F838194812091A7023091A80285
:103FD0002817390720F4F092A802E092A7028091F6
:103FE000A7029091A802019609F07ECF79CF1150D7
:103FF0001093C40284E1133109F482CF83CFC3FE4E
:1040000007C01F5F86E3163348F41093C40208C04C
:10401000C2FE61C0115082E31133B9F78093C4022C
:104020000E94EA0C7FCD183CB1F4C2FE03C00E948E
:10403000310D78CDC4FCF3CDC1FE74CD84E1809305
:10404000C40280910001909101010E94961081E0CC
:104050008093C50267CD1D3CE9F4C2FE03C00E94F7
:10406000210D60CDC4FCDBCDC3FCF5CDC1FE5ACD26
:1040700082E38093C40288EF93E00E94190D60E010
:1040800080E00E94B80C87E791E00E94920C0E94A9
:10409000EA0CDDCF123DC9F4C3FCC9CFC4FCBFCDCF
:1040A000C1FE40CD83ED8093C40260E088E00E94B1
:1040B000B80C80E20E94AC0C2FEF3FEF3093A802C7
:1040C0002093A7020E9431192DCD133D21F4C4FC89
:1040D000C6CFC2FCF7CF8091C402873019F480E0CC
:1040E0000E94AC0F8091C4028A3019F480E00E94D3
:1040F00017138091C4028B3009F014CD80E00E9428
:10410000F00F10CD8B3709F429CD0091B202109138
:10411000B302C8010E944208803109F012C2D801DE
:104120008C91853E09F00DC214968C9114978230C3
:1041300009F007C216962C91169780910001909174
:1041400001012817190609F0E3C117962C9117975A
:1041500080910E0190910F012817190609F0D8C11E
:1041600015968C91159790E09C01E4E0220F331F87
:10417000EA95E1F720781996AC901997E894A7F89A
:104180002A2930E0322F222745E0880F991F4A95CF
:10419000E1F780781896AC90E894A7F8A82AA20EC8
:1041A000B32EB11C6501B1E0CB1AD1089C2CE9E01B
:1041B000EC1550F029E0C29EF0011124E45DFE4FA1
:1041C00031E08781813009F030E0D80113968C917D
:1041D0008130F1F5BAE0CB16D104D0F5F801828533
:1041E00090E063856F77AC015695542F442757951F
:1041F0004795262F240F332309F44BC336E0880F4D
:10420000991F3A95E1F7807864856F77862B682F40
:1042100070E0762F6627620F711D8C2D0E94B915F4
:10422000E091B202F091B302838180648383F9E06C
:104230004FEFF91530F0F601EE0FFF1FE050FF4F82
:104240004081E12C00E020E060E08A2D0E94D11442
:10425000E091B202F091B30283818230B9F42AE096
:10426000C216D10498F482E4838339E04FEF391504
:1042700030F0F601EE0FFF1FE050FF4F4081E12CC0
:1042800000E020E060E08A2D0E94D114E091B202AB
:10429000F091B3028381833009F04BC04AE0C41629
:1042A000D10408F046C0628570E0CB019695982F46
:1042B000882797958795992723852F77280F392F5A
:1042C000311D16E0660F771F1A95E1F760787727A2
:1042D00084858F77682B59E08FEF9FEF591538F061
:1042E000F601EE0FFF1FE050FF4F808191812623E2
:1042F0003723232B09F4CFC2682B792B8C2D0E94F6
:10430000B915E091B202F091B30283818064838396
:1043100089E04FEF891530F0F601EE0FFF1FE050F6
:10432000FF4F4081E12C00E020E060E08A2D0E94F8
:10433000D114E091B202F091B3028381853009F08B
:104340007FC09AE0C916D10408F07AC0828590E057
:104350008C0126E0000F111F2A95E1F70078648593
:104360006F77062BBC0135E0660F771F3A95E1F7B2
:10437000162F107865856F77162BBC0144E0660F09
:10438000771F4A95E1F7A62FA078EA2E66856F770A
:10439000E62A63856F779695982F88279795879556
:1043A000680F70E08C2D0E94B915FF24F394FC0C6B
:1043B000602F70E08F2D0E94B91502E00C0D612F67
:1043C00070E0802F0E94B91513E01C0D6E2D70E077
:1043D000812F0E94B915E091B202F091B30283815E
:1043E00080648383B9E04FEFB91530F0F601EE0F2A
:1043F000FF1FE050FF4F4081E9E02FEFEF1538F04D
:10440000EF2DF0E0EE0FFF1FE050FF4F20810A304C
:1044100008F046C2E02FF0E0EE0FFF1FE050FF4F24
:104420000081EE24EA941A3038F4E12FF0E0EE0F28
:10443000FF1FE050FF4FE08060E08A2D0E94D11402
:10444000E091B202F091B30283818630B1F52AE0A7
:10445000C216D10490F586E4838339E04FEF391515
:1044600030F0F601EE0FFF1FE050FF4F4081E1E01A
:10447000EC0D2FEFEA3030F4F0E0EE0FFF1FE050CC
:10448000FF4F2081E2E0EC0D0FEFEA3030F4F0E076
:10449000EE0FFF1FE050FF4F0081E3E0EC0DEE2434
:1044A000EA94EA3030F4F0E0EE0FFF1FE050FF4FE7
:1044B000E08060E08A2D0E94D114E091B202F09178
:1044C000B3028381883061F488E4838340910E01D4
:1044D000E42E0091000120E06DE08AE30E94D114F7
:1044E000E091B202F091B30283818F3089F40E948F
:1044F000BE15E091B202F091B302838180648383A0
:10450000E12C00E020E040E06B2D8A2D0E94D114C8
:10451000E091B202F091B3028681811112C08781CD
:1045200081110FC08381873061F487E483834091D8
:104530000E01E42E0091000120E06DE08AE30E946C
:10454000D1140E94B9040091AC021091AD022091E7
:10455000AE023091AF02AB01BC01401B510B620BAC
:10456000730B433451056105710508F46CC0D90122
:10457000C8018D5B9F4FAF4FBF4F8093AC029093AC
:10458000AD02A093AE02B093AF028091D1029091A0
:10459000D202029709F044C08091D8029091D702CC
:1045A000890F8093D80287FF25C09091D3028F771F
:1045B0008093D8028091D9028F5F8093D90287FFC0
:1045C00019C08DE68093D802892F81708858809316
:1045D000D9028091DA028F5F8F3708F063C1809330
:1045E000DA0291FF73C18FEE8093D40284ED92E0E2
:1045F0000E944E088091D30282FF12C08091D9029E
:1046000040E8849F900111248091D802820F932F5B
:10461000911DAFEFBFE3A81BB90BCD010E94B50EF2
:104620008091D1029091D202892B69F48BEB89831E
:104630008BE78A831B82CE0101960E944E0830923E
:10464000D2022092D1028091C702882361F1809129
:10465000100183FD28C02091C60230E6C32E3AEE39
:10466000D32EE12CF12C222349F030E050E040E041
:10467000C301B2010E946B2869017A010E94B9044A
:104680000091B7021091B8022091B9023091BA029C
:10469000601B710B820B930BC616D706E806F90652
:1046A00010F40E9418098091B602882309F420C1F1
:1046B00061E0809163040E945F061092A6038093DC
:1046C000A503813009F406C182E890E0909362046A
:1046D000809361048091640482FD0AC18091B502D7
:1046E000882309F408C1B091BD02B98FE091BC02E2
:1046F000EA8F1091BB02B090C7020091C6020E94DF
:1047000055098E8BBB2009F40BC1EE24E3940230D3
:1047100008F4E12CFF24F394013009F0F12CC0904F
:104720001201D0901301960124703327388F2F8BFC
:104730008091C502460138E083229924882309F438
:10474000F1C00091C4028EEC800F853008F0EAC001
:104750004F89588D452B19F161E0023309F060E073
:1047600081E10E94630261E0033309F060E080E1CF
:104770000E94630261E0043309F060E08CE00E9473
:10478000630261E0053309F060E08FE00E9463029C
:1047900061E0063309F060E08DE00E946302892841
:1047A00029F1802F8B7F823321F070E060E00533A8
:1047B00011F46FEF70E089E00E946B03033331F076
:1047C000063321F070E060E0053311F46FEF70E024
:1047D0008BE00E946B03043321F070E060E005334E
:1047E00011F46FEF70E083E00E946B038091C302CD
:1047F000882309F443C00E94B904C090BF02D0903E
:10480000C002E090C102F090C2026C197D098E09CD
:104810009F096A3F71058105910580F160E07FEF96
:104820008FEF90E00633B1F060E070E08FEF90E042
:10483000023381F060E07FEF80E090E0033351F0DD
:104840006FEF70E080E090E0043321F06FEF7FEFD6
:104850008FEF90E00E949801809177049091780406
:10486000892B11F00E94ED030E94B9046093BF02EE
:104870007093C0028093C1029093C20280E090E0E6
:10488000892B09F49FC80E94000099C883E090E03A
:10489000A8C980E0BCCC60957095682379232ECDA3
:1048A0000FEFBFCD83E48093DA028091DC028F5F4B
:1048B00087FD03C08093DC0294CE88E68093DC02FF
:1048C0008091DD028F5F8093DD028BCE80E00E94BD
:1048D0009E0E90CE8091670490916804DC01ED916A
:1048E000FC910284F385E02D099580936404F4CE55
:1048F0001092B502F8CE81E08093B5029091B40297
:10490000913009F482E08093B4028091B60288234A
:1049100009F4E9CE8091B4028C6F0E94BC07E3CE0B
:10492000E12CFCCE01E0AB2CA02601278928D1F098
:1049300060910601709107015E8951118BC08091D1
:10494000BE02811102C060E070E089E00E946B034A
:1049500070E060E08BE00E946B0370E060E083E059
:104960000E946B038091C302882399F10E94B904CD
:104970002091BF023091C0024091C1025091C20209
:10498000621B730B840B950B6A3F710581059105C2
:1049900000F18E89811187C06091BE02619570E03F
:1049A00090E080E0CB01772766270E9498018091F4
:1049B000770490917804892B11F00E94ED030E94F6
:1049C000B9046093BF027093C0028093C1029093B8
:1049D000C202AF89B88DAB2BC9F00E945509609116
:1049E000BE02811160E08CE00E946302602F8DE0C6
:1049F0000E9463026F2D8FE00E9463026E2D80E1A2
:104A00000E9463026A2D81E10E946302C1FE36CFDB
:104A100086E991E01123D9F0BA8D2B2F30E0F98D82
:104A2000E4E6FE9F200D311D1124BB2021F0809172
:104A3000BE0240E0811140E42115310509F053C068
:104A400019821A821B828FE38C83CE0101960E9409
:104A5000410314CF80E0F1108C2D8170982EA110AD
:104A600005C0011103C011F460E070E089E00E940C
:104A70006B036091080170910901E11006C00111FA
:104A800004C0911002C060E070E08BE00E946B03F4
:104A900060910A0170910B01F11061CF91105FCF0D
:104AA00060E070E05CCF60E07FEF8FEF90E001119D
:104AB0007CCF60E070E08FEF90E0A11076CF60E0F7
:104AC0007FEF80E090E0E11070CFFF2009F46FCF1E
:104AD0006FEF7FEF8FEF90E0C0FC67CF6FEF70E07C
:104AE00080E090E062CF8E010F5F1F4FF801C90197
:104AF0006AE070E00E945728009719F521153105EA
:104B000001F51382C9016AE070E00E9457289B01F9
:104B100031978A899B89E817F90749F7442309F4F3
:104B200094CFD8019D918D01FD013197842F80781C
:104B3000892B8083440FEC89FD89EA17FB0789F7ED
:104B400084CF8A579E4FDC018C918383DBCF8FEF1C
:104B50009FEF0E94961061E08AE00E94B80C82E804
:104B600091E00E94920C61E08091A6020E94B80C34
:104B70000C94921DF9E0FD1550F3F12C21C0143175
:104B800008F488C88091F703811708F483C8ECEE15
:104B9000DE2ED10EC0FEDEC8F090A902FF2011F477
:104BA0000C94921D6091A7027091A8020D2D10E047
:104BB000F6E0DF12A8C8672B09F09FC80E94BE1557
:104BC000000F111FF801E050FF4F808191810E947A
:104BD000961061E08AE00E94B80CFF2009F4BFCF74
:104BE00089E891E0BECF80917704909178040E948B
:104BF0004E29809174049091750497FD03C060E084
:104C00000C9491020895F999FECF92BD81BDF89A56
:104C1000992780B50895262FF999FECF1FBA92BD26
:104C200081BD20BD0FB6F894FA9AF99A0FBE01968D
:104C300008955058BB27AA270E9431260C94A42718
:104C40000E94962738F00E949D2720F039F49F3F5C
:104C500019F426F40C9493270EF4E095E7FB0C94DA
:104C60008D27E92F0E94B52758F3BA1762077307FB
:104C70008407950720F079F4A6F50C94D7270EF455
:104C8000E0950B2EBA2FA02D0B01B90190010C015C
:104C9000CA01A0011124FF27591B99F0593F50F474
:104CA000503E68F11A16F040A22F232F342F4427CC
:104CB000585FF3CF469537952795A795F0405395C4
:104CC000C9F77EF41F16BA0B620B730B840BBAF094
:104CD0009150A1F0FF0FBB1F661F771F881FC2F7FF
:104CE0000EC0BA0F621F731F841F48F48795779513
:104CF0006795B795F7959E3F08F0B0CF9395880FCD
:104D000008F09927EE0F9795879508950E946927D7
:104D100008F481E008950E949F260C94A4270E9425
:104D20009D2758F00E94962740F029F45F3F29F014
:104D30000C948D2751110C94D8270C9493270E9422
:104D4000B52768F39923B1F3552391F3951B550BC0
:104D5000BB27AA2762177307840738F09F5F5F4F4E
:104D6000220F331F441FAA1FA9F335D00E2E3AF08D
:104D7000E0E832D091505040E695001CCAF72BD0A5
:104D8000FE2F29D0660F771F881FBB1F26173707F6
:104D90004807AB07B0E809F0BB0B802DBF01FF2728
:104DA00093585F4F3AF09E3F510578F00C948D2751
:104DB0000C94D8275F3FE4F3983ED4F3869577951B
:104DC0006795B795F7959F5FC9F7880F911D9695E1
:104DD000879597F90895E1E0660F771F881FBB1F3D
:104DE000621773078407BA0720F0621B730B840BEA
:104DF000BA0BEE1F88F7E09508950E94BD2788F052
:104E00009F5798F0B92F9927B751B0F0E1F0660F8E
:104E1000771F881F991F1AF0BA95C9F714C0B130CF
:104E200091F00E94D727B1E008950C94D727672FFF
:104E3000782F8827B85F39F0B93FCCF386957795FE
:104E40006795B395D9F73EF49095809570956195E7
:104E50007F4F8F4F9F4F0895E89409C097FB3EF412
:104E600090958095709561957F4F8F4F9F4F9923B7
:104E7000A9F0F92F96E9BB279395F6958795779535
:104E80006795B795F111F8CFFAF4BB0F11F460FFF5
:104E90001BC06F5F7F4F8F4F9F4F16C0882311F04D
:104EA00096E911C0772321F09EE8872F762F05C061
:104EB000662371F096E8862F70E060E02AF09A95FC
:104EC000660F771F881FDAF7880F9695879597F9F1
:104ED0000895990F0008550FAA0BE0E8FEEF16168B
:104EE0001706E807F907C0F012161306E407F507DE
:104EF00098F0621B730B840B950B39F40A2661F052
:104F0000232B242B252B21F408950A2609F4A140F4
:104F1000A6958FEF811D811D089597F99F6780E801
:104F200070E060E008959FEF80EC089500240A94FB
:104F30001616170618060906089500240A94121674
:104F40001306140605060895092E0394000C11F4A7
:104F5000882352F0BB0F40F4BF2B11F460FF04C054
:104F60006F5F7F4F8F4F9F4F089557FD9058440FAD
:104F7000551F59F05F3F71F04795880F97FB991FB8
:104F800061F09F3F79F08795089512161306140675
:104F9000551FF2CF4695F1DF08C016161706180602
:104FA000991FF1CF86957105610508940895E894DD
:104FB000BB2766277727CB0197F908950E94F12731
:104FC0000C94A4270E94962738F00E949D2720F079
:104FD000952311F00C948D270C94932711240C9495
:104FE000D8270E94B52770F3959FC1F3950F50E025
:104FF000551F629FF001729FBB27F00DB11D639F8B
:10500000AA27F00DB11DAA1F649F6627B00DA11D30
:10501000661F829F2227B00DA11D621F739FB00DD6
:10502000A11D621F839FA00D611D221F749F332746
:10503000A00D611D231F849F600D211D822F762FDF
:105040006A2F11249F5750409AF0F1F088234AF0BC
:10505000EE0FFF1FBB1F661F771F881F9150504028
:10506000A9F79E3F510580F00C948D270C94D8270A
:105070005F3FE4F3983ED4F3869577956795B795AF
:10508000F795E7959F5FC1F7FE2B880F911D9695C9
:10509000879597F90895991B79E004C0991F961791
:1050A00008F0961B881F7A95C9F780950895AA1B6A
:1050B000BB1B51E107C0AA1FBB1FA617B70710F003
:1050C000A61BB70B881F991F5A95A9F78095909535
:1050D000BC01CD010895A1E21A2EAA1BBB1BFD0144
:1050E0000DC0AA1FBB1FEE1FFF1FA217B307E407C7
:1050F000F50720F0A21BB30BE40BF50B661F771F1F
:10510000881F991F1A9469F76095709580959095FE
:105110009B01AC01BD01CF010895052E97FB1EF444
:1051200000940E94A42857FD07D00E946B2807FC1A
:1051300003D04EF40C94A4285095409530952195B9
:105140003F4F4F4F5F4F08959095809570956195B3
:105150007F4F8F4F9F4F0895EE0FFF1F0590F491E3
:10516000E02D09940F931F93CF93DF938230910525
:1051700010F482E090E0E0918D04F0918E0430E034
:1051800020E0B0E0A0E0309799F42115310509F452
:105190004AC0281B390B24303105D8F58A819B8100
:1051A0006115710589F1FB0193838283FE0111C0B2
:1051B000408151810281138148175907E0F0481757
:1051C000590799F4109761F012960C931297139661
:1051D0001C933296CF01DF91CF911F910F910895CB
:1051E00000938D0410938E04F4CF2115310551F0F6
:1051F0004217530738F0A901DB019A01BD01DF0115
:10520000F801C1CFEF01F9CF90938E0480938D0404
:10521000CDCFFE01E20FF31F81939193225031090C
:1052200039832883D7CF20918B0430918C04232B92
:1052300041F4209116013091170130938C04209392
:105240008B0420911401309115012115310541F491
:105250002DB73EB74091180150911901241B350B11
:10526000E0918B04F0918C04E217F307A0F42E1B5D
:105270003F0B2817390778F0AC014E5F5F4F2417BA
:10528000350748F04E0F5F1F50938C0440938B04FA
:10529000819391939FCFF0E0E0E09CCFCF93DF9399
:1052A0000097E9F0FC01329713821282A0918D04DD
:1052B000B0918E04ED0130E020E01097A1F4208140
:1052C0003181820F931F20918B0430918C04281719
:1052D000390709F061C0F0938C04E0938B04DF91EF
:1052E000CF910895EA01CE17DF07E8F54A815B8187
:1052F0009E0141155105B1F7E901FB83EA8349910C
:105300005991C40FD51FEC17FD0761F4808191817D
:105310000296840F951FE901998388838281938186
:105320009B838A83F0E0E0E012968D919C91139725
:105330000097B9F52D913C911197CD010296820FFE
:10534000931F20918B0430918C042817390739F66C
:10535000309751F510928E0410928D04B0938C0406
:10536000A0938B04BCCFD383C28340815181840F2F
:10537000951FC817D90761F44E5F5F4F88819981E7
:10538000480F591F518340838A819B819383828375
:105390002115310509F0B0CFF0938E04E0938D0410
:1053A0009ECFFD01DC01C0CF13821282D7CF6817D8
:1053B000790768F4FB01DC01E40FF51FA40FB51FAA
:1053C00002C002900E9241505040D8F708950C94BC
:1053D000F029DC0101C06D9341505040E0F7089581
:1053E000FB01DC0102C001900D9241505040D8F702
:1053F000089511E0CAE3D1E004C0FE010E94AC2888
:0C5400002196CB33D107C9F7F894FFCFF9
:10540C00FFFFFFFFFFFFFFFFFFFFFFFFFFFFFFFFA0
:10541C00FFFFFFFF00008F0480000000400014001D
:10542C00540001000A006400E80310270001000189
:10543C00007E0000000108000100FF00000002FFD8
:10544C00000000FF00000003FF000000FF00000050
:10545C0004FF000000FF00000005FF000000FF003B
:10546C0000000605000000050000000712001200F5
:10547C00120000010818000000FF000200090000E3
:10548C000000FF0002003F065B4F666D7D077F6FDB
:10549C00777C395E79714040404000000000850700
:1054AC00580764092E0751073E072F07000000001C
:0C54BC008C0CC5046409630945004F0016
:00000001FF
