:100000000C94FA000C9422010C9422010C9422010D
:100010000C9422010C9422010C9422010C942201D4
:100020000C9422010C9422010C94FE150C9477146C
:100030000C9422010C9422010C9422010C942201B4
:100040000C940E130C9422010C9422010C942201A6
:100050000C9422010C9422010C9422010C94220194
:100060000C9458130C9422015374617475733F00FF
:10007000496E626574726965626E61686D653F00A4
:1000800043563F004932432D5363616E3F0066651E
:10009000727469670030780056657273696F6E20FC
:1000A000004E6562656E7568722D53746174757368
:1000B00000313A002D002D2D2D003F3F3F00436FB2
:1000C0006E666967206C0053572D4944005665726F
:1000D00073696F6E00422D42726967687400472D24
:1000E00042726967687400522D42726967687400D1
:1000F00057532D427269676874004C45442D434E36
:100100005400446576696365494400726F00435644
:10011000002D2D3A2D2D006661696C6564007374A5
:100120006F7265640046617374436C6F636B005358
:1001300074617475730000000000240027002A0019
:100140000000000023002600290000000008000233
:10015000010000030407000000000000000000860A
:10016000227E6DD24620290B2170104080523F061E
:100170005B4F666D7D077F6F090D614843D35F77E5
:100180007C395E79713D76301E753815373F736B5B
:10019000336D783E3E2A766E5B39640F2308025F2A
:1001A0007C585E7B716F74100C753014545C7367EF
:1001B000506D781C1C14766E5B4630700100010295
:1001C00004081020408001020408102001020408E5
:1001D000102000000000250028002B000404040467
:1001E00004040404020202020202030303030303E1
:1001F0006616052211241FBECFEFD8E0DEBFCDBFAB
:1002000011E0A0E0B1E0E2E2FCE402C005900D9252
:10021000A43BB107D9F724E0A4EBB1E001C01D92E3
:10022000A737B207E1F710E0C9EFD0E004C021978B
:10023000FE010E94BE24C83FD107C9F70E94BC1727
:100240000C9404260C94000091E09093BB038093DF
:10025000DD031092BC031092DE0308950895089503
:100260008530A8F4262F2052330BF901E25AFE4FB5
:10027000E491A82FB0E0AA0FBB1FA65DBB4F30E8EA
:10028000439FA0011124E42BF0E0ED93FC9308952B
:1002900080915404909155048230910538F0880F74
:1002A000991F880F991F05970197F1F708954F92AD
:1002B0005F926F927F928F929F92AF92BF92FF92C6
:1002C00020915804309159048217930708F043C0D5
:1002D0002B0166247724852E962EA72EBB24B82DBD
:1002E000A42F20915E04F42C222391F0E22FF0E061
:1002F000E49DD001E59DB00DF49DB00D1124FB2EC1
:10030000289D40011124B92D249F90011124A32F71
:10031000E091640420915F04309160045091610485
:10032000E51323C0FC01EE0FFF1F8E0F9F1F820FEE
:10033000931FE0916104E80FF92FF11DF082E09125
:100340006204E80FF92FF11DB08320916304820F3E
:10035000911DFC01A083FF90BF90AF909F908F9064
:100360007F906F905F904F900895880F991F880F2E
:10037000991F820F931FE80FF92FF11D1082D9CF1B
:10038000833081F028F4813099F08230A9F008950B
:100390008730A9F08830C9F08430B1F480918000B2
:1003A0008F7D03C0809180008F77809380000895B7
:1003B00084B58F7784BD089584B58F7DFBCF809100
:1003C000B0008F778093B00008958091B0008F7D4A
:1003D000F9CF1F93CF93DF93282F30E0F901E65B2D
:1003E000FE4F8491F901E254FE4FD491F901E45299
:1003F000FE4FC491CC23A9F0162F81110E94C00199
:10040000EC2FF0E0EE0FFF1FEE52FE4FA591B491DE
:100410008FB7F894EC91111108C0D095DE23DC93CE
:100420008FBFDF91CF911F910895DE2BF8CFCF932F
:10043000DF9390E0FC01E254FE4F249184529E4FE2
:10044000FC0184918823D1F090E0880F991FFC0172
:10045000EA5CFE4FA591B491FC01EE52FE4FC591AE
:10046000D49161110EC09FB7F8948C91E22FE09562
:100470008E238C932881E223E8839FBFDF91CF9165
:1004800008958FB7F894EC91E22BEC938FBFF6CFE1
:10049000CF93DF93C1E5D4E061E089810E94170228
:1004A0000E94480160E088810E9417020E94480172
:1004B00060E089810E941702DF91CF910C9448017E
:1004C0000F931F93CF93DF93D82FC8E061E0809103
:1004D00051040E9417020E9448010D2F10E060E0B5
:1004E000D0FF61E0809152040E9417020E944801EF
:1004F00060E0809151040E9417020E944801159506
:100500000795D02FC15011F761E0809151040E94EE
:10051000170260E0809152040E9417020E94480175
:1005200060E0809151040E9417020E9448012091CE
:10053000520430E0F901E65BFE4F8491F901E25488
:10054000FE4FD491F901E452FE4FC491CC2339F10E
:1005500081110E94C001EC2FF0E0EE0FFF1FE05C64
:10056000FE4FA591B491EC91ED23C1E009F4C0E0F8
:10057000C11105C061E0809152040E9417020E94DF
:10058000480161E0809151040E9417020E944801D5
:100590008C2F8170DF91CF911F910F910895C0E052
:1005A000E9CF61E0809152040E9417020C94480147
:1005B0000F931F93CF93DF938C010E94D10280E4AD
:1005C0000E9460020E9448020E94D10280EC0E94B8
:1005D0006002E8010C5F1F4F89910E946002C01702
:1005E000D107D1F70E9448020E94D10280915304A2
:1005F0008F7080580E946002DF91CF911F910F9100
:100600000C9448021F93CF93DF93182FEB0161E006
:100610000E941702209739F460E0812FDF91CF917B
:100620001F910C94E901CF3FD10511F461E0F5CFA2
:10063000E12FF0E0E65BFE4FE491E33031F140F46E
:10064000E130B1F0E230E1F0C038D1057CF7E4CF21
:10065000E73029F1E83059F1E430B1F780918000BA
:10066000806280938000D0938B00C0938A0004C086
:1006700084B5806884BDC7BDDF91CF911F91089577
:1006800084B5806284BDC8BDF7CF8091800080684A
:1006900080938000D0938900C0938800EDCF809133
:1006A000B00080688093B000C093B300E5CF809124
:1006B000B00080628093B000C093B400DDCF3FB73C
:1006C000F8948091B5029091B602A091B702B091D2
:1006D000B80226B5A89B05C02F3F19F00196A11DB1
:1006E000B11D3FBFBA2FA92F982F8827BC01CD017C
:1006F000620F711D811D911D42E0660F771F881FDB
:10070000991F4A95D1F708952FB7F8946091B102D7
:100710007091B2028091B3029091B4022FBF0895FC
:10072000AF92BF92CF92DF92EF92FF920F931F93FF
:10073000CF93DF936C017B018B01040F151FEB013D
:100740005E01AE18BF08C017D10759F06991D601F4
:10075000ED91FC910190F081E02DC6010995892B66
:1007600079F7C501DF91CF911F910F91FF90EF9025
:10077000DF90CF90BF90AF90089520916702260F31
:100780003327331F21323105ECF42091B503FC01EE
:1007900090E080E0243069F082E00895A091670243
:1007A0002191AC01495B5D4FA40FB52FB11D2C9376
:1007B0000196861798F380916702680F609367022D
:1007C00080E0089581E008951092B50381E0809360
:1007D000B40310928F0361E082E10E94E90161E0BD
:1007E00083E10E94E901E9EBF0E080818E7F808364
:1007F00080818D7F808388E48093B80085E4809336
:10080000BC00089510928E0310928D031092BC03C9
:100810001092DE030E94E4038EE291E090938C0339
:1008200080938B038FE291E090938A0380938903F6
:100830000895CF93DF9391E0909346028823B9F017
:10084000C091B800D091BA008091BC008A7B80939F
:10085000BC0060E082E10E94E90160E083E10E9467
:10086000E9010E94E403D093BA00C093B800DF917D
:10087000CF9108958F929F92AF92BF92CF92DF92C5
:10088000EF92FF920F931F93CF93DF93D091DE03EC
:10089000D13208F0D7C0182FC091DD030E945F034A
:1008A0006B017C018091B50381116BC082E0809364
:1008B000B5031093B4038FEF8093B3031092B20388
:1008C000D093B103ADEBB3E0E1E9F3E080E0D813FE
:1008D00091C01092900380919003CC0FC82BC093CD
:1008E000900380918F03813009F088C010928F03AC
:1008F0000E945F036B017C01809190038093BB0099
:100900008091B7039091B803A091B903B091BA0355
:10091000892B8A2B8B2BA1F00E945F030091B703D8
:100920001091B8032091B9033091BA036C197D0975
:100930008E099F09061717072807390708F442C0D0
:100940008091BC0083FDD8CF85EC8093BC000E94D1
:100950005F036B017C018091B503823009F450C0C4
:100960008091B3038F3F09F46FC08091B30380324D
:1009700009F46CC08091B303803309F469C084E04A
:1009800026C08091B7039091B803A091B903B091AC
:10099000BA03892B8A2B8B2B09F484CF0E945F0327
:1009A0008090B7039090B803A090B903B090BA03B9
:1009B0006C197D098E099F0986169706A806B90647
:1009C00008F070CF8091B6030E94190485E0109260
:1009D000BC031092DE031092BB03DF91CF911F91F5
:1009E0000F91FF90EF90DF90CF90BF90AF909F90CE
:1009F0008F9008959D9191938F5F69CF85EEA5CFDC
:100A00008091B7039091B803A091B903B091BA0354
:100A1000892B8A2B8B2B09F49ECF0E945F030091B8
:100A2000B7031091B8032091B9033091BA036C1940
:100A30007D098E099F09061717072807390708F04F
:100A40008ACFC0CF81E0C3CF80E0C1CF82E0BFCFEB
:100A500083E0BDCFCF92DF92EF92FF920F931F936F
:100A6000CF93DF93D82FC62F613208F098C00E9431
:100A70005F036B017C018091B50381116BC081E044
:100A80008093B5038093B4039FEF9093B3031092C8
:100A9000B2039C0F9093B1038093900380919003D5
:100AA000DD0FD82BD093900380918F03813009F014
:100AB00078C010928F030E945F036B017C018091CC
:100AC00090038093BB008091B7039091B803A091ED
:100AD000B903B091BA03892B8A2B8B2BA1F00E940A
:100AE0005F030091B7031091B8032091B9033091CF
:100AF000BA036C197D098E099F0906171707280785
:100B0000390708F448C08091BC0083FDD8CF85EC3C
:100B10008093BC000E945F036B017C018091B50350
:100B2000813009F440C08091B2038C1710F4C09159
:100B3000B203E1E9F3E0A9E6B3E080E08C1355C02D
:100B40008C2FDF91CF911F910F91FF90EF90DF904D
:100B5000CF9008958091B7039091B803A091B90305
:100B6000B091BA03892B8A2B8B2B09F484CF0E9476
:100B70005F030091B7031091B8032091B90330913E
:100B8000BA036C197D098E099F09061717072807F4
:100B9000390708F070CF8091B6030E941904C0E0B5
:100BA000CFCF85EEB5CF8091B7039091B803A091D8
:100BB000B903B091BA03892B8A2B8B2B09F4AECFE2
:100BC0000E945F030091B7031091B8032091B9030D
:100BD0003091BA036C197D098E099F090617170712
:100BE0002807390708F09ACFD6CF91919D938F5F50
:100BF000A5CF0895E0918E0380918D03E81730F41E
:100C0000F0E0E759FC4F808190E008958FEF9FEF6F
:100C1000089590918E0380918D032FEF3FEF9817E9
:100C200048F4E92FF0E0E759FC4F208130E09F5F66
:100C300090938E03C901089580918D0390918E0346
:100C4000891B990B0895CF92DF92EF92FF920F9339
:100C50001F93CF93DF937C01CB018A012091BB03CB
:100C6000222389F0EB016B01C40ED51ECC15DD05E6
:100C700069F06991D701ED91FC910190F081E02D2F
:100C8000C7010995F3CF642F0E94BD03C801DF910E
:100C9000CF911F910F91FF90EF90DF90CF9008952B
:100CA000CF93DF931F92CDB7DEB769832091BB034B
:100CB0002223F9F02091DE03203258F021E030E0C9
:100CC000FC013383228390E080E00F90DF91CF918D
:100CD00008958091BC03E82FF0E0E354FC4F998124
:100CE00090838F5F8093BC038093DE0381E090E06C
:100CF000ECCF61E0CE0101960E94BD03F7CF682FD3
:100D00008DE394E00C94500681E00C943A04CF9368
:100D1000DF93C9E4D4E08A8388810E9424018E8114
:100D20009F81DC01ED91FC910190F081E02D6A81C1
:100D300009958E819F810E94840690E09D838C831B
:100D4000DF91CF910895CF93DF93EC0118820E9439
:100D50000204888180620E94240180E00E947F0654
:100D60008FEF0E947F068DE394E00E9484068881C5
:100D700080620E94240181E00E947F068FEF0E9422
:100D80007F068DE394E0DF91CF910C948406CF939E
:100D9000DF93D62FC72FFC01808180620E9424013F
:100DA00082E10E947F068D2F0E947F068C2F0E9479
:100DB0007F068DE394E0DF91CF910C948406CF936E
:100DC000DF93EC018B81882371F088810E942401DC
:100DD00089819A810E94840691E0811190E0892F97
:100DE000DF91CF9108950E94020481E08B83CE01B0
:100DF0000E94DF06982F8111E8CFF1CF9C01DC0122
:100E0000A058BF4FEC9191E09E0F9C93E20FF32FFF
:100E1000F11D608397FD1C920895FC01808180760E
:100E2000803611F4818108958081829586708E5F6D
:100E30000895CF92DF92EF92FF920F931F93CF937B
:100E4000DF93EC0109E11EE2EE24E394F12C93E040
:100E5000D92ECC24C394CE010E940D078093D902D1
:100E6000E091D902E1501092D8028FEF9091D80210
:100E70009E1768F4A091D802AC0FBD2FB11D9C91B4
:100E800089279091D8029F5F9093D802EFCFEC0F03
:100E9000FD2FF11D8083F8948091D702813059F4A1
:100EA0008091D602811738F01092D70280916F009E
:100EB0008D7F80936F0078948091D702813031F4D8
:100EC0008091D602843138F2C12CC5CF8091D702EF
:100ED00081110EC0F89480916F008F7D80936F0018
:100EE000B59B09C080916F00806280936F007894F9
:100EF000C110B1CF56C0E091D402F091D5028081EB
:100F00009091D302970101C0220F9A95EAF7822BA4
:100F1000808380918400909185008A5A9C4F9093A1
:100F2000D2028093D1028091D1029091D20290930B
:100F30008900809388007894D093D002C093CF0228
:100F40001092D8021092CE0288818093CD02D09266
:100F5000D7021092D602B19A80916F00826080937E
:100F60006F008091D7028330E1F38091CE02882315
:100F7000B1F0E091CB02F091CC02E757FF4F8081B6
:100F8000918101969183808383E090E0DF91CF91FE
:100F90001F910F91FF90EF90DF90CF900895809177
:100FA000D7021B3108F01150015009F052CF809147
:100FB00065039091660301969093660380936503A1
:100FC00086E090E0E3CF8930B8F429E0829FF00119
:100FD0001124E65DFE4F85819681803127E29207DC
:100FE00058F4883E23E0920748F48436910540F493
:100FF0000A9740F481E0089585E0089584E008951B
:1010000083E0089582E00895089590E080E00895D7
:10101000EF92FF920F931F93CF93DF93DC0114960F
:101020002D913C912417350710F490E01DC0EA0182
:101030007B018C01FC0180810E942401D801119662
:101040008D919C91DC01ED91FC910280F381E02D6A
:10105000AE01B7010995C817D90739F781E00E9499
:101060003A0491E08111E1CF892FDF91CF911F9157
:101070000F91FF90EF900895CF93DF93CDB7DEB738
:1010800061970FB6F894DEBF0FBECDBF1982AAE2FA
:10109000B4E0FE013196BF019C9111968C9111979D
:1010A000129691838283329684E0AA33B807A1F71F
:1010B00041E150E080913A0490913B040E9408087D
:1010C00061960FB6F894DEBF0FBECDBFDF91CF9112
:1010D00008950E942A0510928E0380938D0308952F
:1010E000FF920F931F93CF93DF938C01C62FDCE009
:1010F000683010F0C850DDE0F801808180620E9405
:1011000024018D2F0E947F068DE394E00E948406C7
:10111000F8018081806261E070E090E00E946908DF
:101120008DE394E00E940906F82EF8018081806228
:101130000E9424018D2F0E947F0681E090E001C073
:10114000880FCA95EAF78F290E947F068DE394E005
:10115000DF91CF911F910F91FF900C9484060F9314
:101160001F93CF93DF938C01C62FD2E1683010F02C
:10117000C850D3E1F801808180620E9424018D2F44
:101180000E947F068DE394E00E948406F80180812E
:10119000806261E070E090E00E9469088DE394E075
:1011A0000E940906992702C095958795CA95E2F78E
:1011B0008170DF91CF911F910F910895FF920F934E
:1011C0001F93CF93DF931F92CDB7DEB78C01698356
:1011D000F42EF8014783608785E090E0958384834F
:1011E000642FCE0101960E94AF08F80116826F2D80
:1011F000CE0101960E94AF08882319F083E0F80120
:1012000086830E948403F8016083718382839383C1
:101210000F90DF91CF911F910F91FF900895EF9262
:10122000FF920F931F93CF93DF938C01C62FE42E71
:1012300084E1F82ED2E1683020F0C85095E1F92E13
:10124000D3E1F801808180620E9424018F2D0E94E9
:101250007F068DE394E00E948406F801808180621D
:1012600061E070E090E00E9469088DE394E00E94E4
:10127000090621E030E001C0220FCA95EAF7F1E04B
:10128000C82FC22BEF1619F02095C22FC823F801E2
:10129000808180620E9424018D2F0E947F068C2F06
:1012A0000E947F068DE394E0DF91CF911F910F9113
:1012B000FF90EF900C948406FC01962F828D8F3F57
:1012C00031F0603140F4CF014B960C940F09642F3C
:1012D000892F0C94E90108950F931F93CF93DF9307
:1012E000C62F8C01055E1F4FD1E062FB442740F9F9
:1012F0004D2768E0C8010E940F09C1FB442740F94F
:101300004D2767E0C8010E940F094C2F409541709E
:1013100066E0C801DF91CF911F910F910C940F09E6
:10132000FF920F931F93CF93DF938C01C62FF42E60
:10133000D0E0683010F0C850D1E0F80180818062C0
:101340000E9424018D2F0E947F068DE394E00E946D
:101350008406F8018081806261E070E090E00E9484
:1013600069088DE394E00E94090621E030E001C0A5
:10137000220FCA95EAF7C82FC22BFF2019F020953B
:10138000C22FC823F801808180620E9424018D2F22
:101390000E947F068C2F0E947F068DE394E0DF91F0
:1013A000CF911F910F91FF900C948406603110F43F
:1013B0000C9490090895CF93DF93EC0140E06E8187
:1013C0000E945C0941E06E81CE010E945C0940E010
:1013D0006E81CE010E945C098BE891E00197F1F7E4
:1013E000DF91CF910895AF92BF92CF92DF92EF92AB
:1013F000FF920F931F93CF93DF93EC018A8D8E01A1
:10140000095F1F4FC62ED12C8F3F09F482C07E0189
:101410008BE1E80EF11C8B8D80620E94240182E139
:101420000E947F068DE394E00E9484068B8D80628B
:1014300062E070E090E00E9469088DE394E00E9411
:101440000906B82E8DE394E00E94090660E0782F2B
:10145000CB018B29F80130E020E001E010E0419160
:10146000B801042E02C0660F771F0A94E2F7609558
:10147000709586239723B601022E02C07595679555
:101480000A94E2F76170772702C0660F771F4A95CA
:10149000E2F7862B972B2F5F3F4F24303105F9F66B
:1014A0002E81680102C0CC0CDD1C2A95E2F7C094A5
:1014B000D094C822D922B601C7010E94C7068E81E6
:1014C000B80102C0660F771F8A95E2F7C62AD72AAD
:1014D000B601C7010E94C7068E81B80102C0660F1F
:1014E000771F8A95E2F7609570956C217D21C70181
:1014F0000E94C7068BE891E00197F1F7DF91CF9149
:101500001F910F91FF90EF90DF90CF90BF90AF9021
:101510000895F12CE12C5E01EBE1AE0EB11CF80157
:1015200081918F019A8D9F3F39F141E0682FC5016C
:101530000E94D609A6010E2C02C0559547950A9423
:10154000E2F74170F80131976081CE010E945C0999
:10155000FFEFEF1AFF0A84E0E816F10401F7CE016D
:10156000DF91CF911F910F91FF90EF90DF90CF907F
:10157000BF90AF900C94DB0961E00E941702DACFB4
:10158000AF92BF92CF92DF92EF92FF920F931F9391
:10159000CF93DF93EC01F62E6C810E945C096D8184
:1015A0006F3F21F040E0CE010E945C090F2D10E05A
:1015B0008C8984FF3BC06E0187E0C80ED11CF12CE2
:1015C000E12C5E01EBE1AE0EB11CF60181916F01E1
:1015D0009A8D9F3F39F141E0682FC5010E94D609DD
:1015E000A8010E2C02C0559547950A94E2F7417068
:1015F000F60131976081CE010E945C09FFEFEF1A7E
:10160000FF0A88E0E816F10401F7CE01DF91CF91DF
:101610001F910F91FF90EF90DF90CF90BF90AF9010
:101620000C94DB0961E00E941702DACFB80184E074
:10163000759567958A95E1F7CE010E94F3096F2DA4
:10164000CE01DF91CF911F910F91FF90EF90DF902E
:10165000CF90BF90AF900C94F30941E00E94C00A74
:1016600081E090E0089541E0682F80EE93E00E94D1
:10167000C00A81E090E008950F931F93CF93DF930A
:101680008C01D0E0C0E0F801EC0FFD1F64916623EF
:1016900039F041E080EE93E00E94C00A2196F3CF3A
:1016A000CE01DF91CF911F910F91089540E00C94EE
:1016B000C00ACF93DF93CDB7DEB728970FB6F89463
:1016C000DEBF0FBECDBF98E0E8E1F1E0DE0111968C
:1016D00001900D929A95E1F79091F803961708F40E
:1016E0006FEF262F30E0220F331F41E050E04C0F08
:1016F0005D1F240F351FF9016081680F606880EE5F
:1017000093E028960FB6F894DEBF0FBECDBFDF91F1
:10171000CF910C94560B61E00E94560B8BE39FE136
:101720000197F1F7089580EE93E00E948B0B60E043
:1017300080E00E94590B84E890E00E943C0B82ED0F
:1017400080939902089580EE93E00E948B0B60E0F5
:1017500080E00E94590B80E890E00E943C0B88ECEE
:1017600080939902089580EE93E00E948B0B60E0D5
:1017700080E00E94590B80E790E00E943C0B82E0E1
:1017800080939902089580EE93E00E948B0B60E0B5
:1017900080E00E94590B88E690E00E943C0B81E0BB
:1017A0008093990208953F924F925F926F927F9239
:1017B0008F929F92AF92BF92CF92DF92EF92FF9261
:1017C0000F931F93CF93DF9391E09093AB02E0913F
:1017D0008B02F0918C023196F0938C02E0938B0295
:1017E0008093AE020093B501811101C090E0909307
:1017F000AF02011104C09091100193FFA8C088238B
:1018000009F4A5C0D22F042F362E0E9484036093C2
:10181000A7027093A8028093A9029093AA028091D4
:10182000AC02D81709F48DC080911001909111017C
:1018300080729927D0FD04C0892B21F082E003C07B
:10184000892BE1F381E08093A4028091A602882392
:1018500029F08091A4028C6F0E94870680918A02F1
:10186000882309F46EC06D2F70E084E6089F600D38
:10187000711D1124072E000C880B990B0E94402328
:101880002B013C0120E030E040E05FE30E942C228D
:101890000E940F236B017C01812C912C30E8A32E38
:1018A0003FE3B32E10E080E1C81687E2D806E104DA
:1018B000F104E0F0115020E030E040E251E4C501D5
:1018C000B4010E949D224B015C01AC019B01C3014C
:1018D000B2010E94F02320E030E040E05FE30E948C
:1018E0002C220E940F236B017C01DDCF20E030E031
:1018F00040E85FE3C501B4010E949822712CC4E066
:101900002AE0822E912CA12CB12C87FF32C080E4DA
:1019100090E090932B0480932A0490932D0480935D
:101920002C0490933104809330049093330480937B
:10193000320482E090E090932F0480932E040E9462
:101940003C080093AD02D093AC023092B401DF9119
:10195000CF911F910F91FF90EF90DF90CF90BF90AC
:10196000AF909F908F907F906F905F904F903F903F
:101970000895C114D104E104F10411F4171588F19C
:10198000112319F0442443941711412C5C2EC150AB
:101990006C2E84E0851558F0C701B601A5019401AD
:1019A0000E947D24605D442D852D0E943001C2304F
:1019B00069F4CEEFC50D84E0861540F0E62DF0E029
:1019C000EE0FFF1FE65DFB4F11821082C701B601CB
:1019D000A50194010E947D2469017A017394C9CF05
:1019E000C150C7FDA6CFC530DCF7EC2FF0E0EE0FFD
:1019F000FF1FE65DFB4F11821082F2CF0F93082F7D
:101A00002091C20223548091C40298E9980F88362D
:101A100018F468E10E945D24492F6091C50280910D
:101A2000BF020E94D30B0F9108950F93AC018091D8
:101A3000AE02882371F12091A0023091A1022E58AC
:101A400033404217530728F55093A1024093A00258
:101A50009091100193FF1DC02091AC0291E0920F74
:101A60009093AC029C3358F09091AD022B5320938D
:101A7000AC0221E0290F283170F42093AD020091CF
:101A8000B5012091AC024091AD026091B4010E9479
:101A9000D30B0F91089597519093AD02F0CF8F9291
:101AA0009F92AF92BF920F931F93CF93DF93CDB7C7
:101AB000DEB7A1970FB6F894DEBF0FBECDBF19A257
:101AC000423008F44AE08E010F5D1F4F842E912CA6
:101AD000B12CA12CA50194010E947D24E62FB9010F
:101AE000CA01EA3044F5E05DD801EE938D01232B65
:101AF000242B252B79F790E080E0109769F0FD0109
:101B000001900020E9F73197AF014A1B5B0BBD0143
:101B100080EE93E00E949003A1960FB6F894DEBF8A
:101B20000FBECDBFDF91CF911F910F91BF90AF90AE
:101B30009F908F900895E95CD7CFCF93DF93EC010E
:101B40006530D8F0C03187E2D80750F480E30E94B6
:101B5000330BC83E83E0D80718F480E30E94330BB0
:101B6000C436D10518F480E30E94330BCA30D10586
:101B700050F480E30E94330B06C0643051F36330AD
:101B800079F3623099F3BE0190E080E04AE0DF91A2
:101B9000CF910C944F0DEF92FF920F931F93CF9321
:101BA000DF93CDB7DEB762970FB6F894DEBF0FBEF6
:101BB000CDBF082FF92E6091F5036D7F6093F5037B
:101BC000686080EE93E00E94560B80EE93E00E94E6
:101BD0008B0B60E080E00E94590B8EE091E00E9448
:101BE0003C0B60E083E00E94590BE09099021DEEEF
:101BF0001E0D1A3018F480E20E94330B612F70E042
:101C000090E080E04AE00E944F0D1CEE1E0D60E067
:101C100086E00E94590B82E091E09A8389838AEFE3
:101C200090E09C838B8380EF90E09E838D8387EE92
:101C300090E098878F838EED90E09A87898785ED75
:101C400090E09C878B878DEC90E09E878D8787EC5A
:101C500090E0988B8F878EEB90E09A8B898B8AEB44
:101C600090E0193040F4E12FF0E0EE0FFF1FEC0F91
:101C7000FD1F818192810E943C0B61E080E00E9407
:101C8000590B80919802882319F08EE30E94330B40
:101C90001930A0F589E0189FF0011124E65DFE4F90
:101CA0008781823059F507FD03C080E30E94330B22
:101CB0000034E0F480E30E94330B0032B8F480E398
:101CC0000E94330B003190F480E30E94330B083004
:101CD00068F480E30E94330B043040F480E30E94F8
:101CE000330B023018F480E30E94330B602F70E056
:101CF00090E080E042E00E944F0D08C0812F0E94DA
:101D0000E307682F802F9F2D0E949D0D80919802E0
:101D1000811144C0193048F489E0189FF001112462
:101D2000E65DFE4F80858823D9F161E08EE00E9458
:101D3000590B8BE091E062960FB6F894DEBF0FBEB0
:101D4000CDBFDF91CF911F910F91FF90EF900C9439
:101D50003C0B89E0189FF0011124E65DFE4F808561
:101D600081111EC061E0809195020E94590B609123
:101D7000F503862F82608093F5036A6080EE93E01E
:101D800062960FB6F894DEBF0FBECDBFDF91CF9144
:101D90001F910F91FF90EF900C94560B1930C8F2E1
:101DA00062960FB6F894DEBF0FBECDBFDF91CF9124
:101DB0001F910F91FF90EF90089580EE93E00E94A5
:101DC0008B0B60E080E00E94590B81EA90E00E945A
:101DD0003C0B61E080E00E94590B88E990E00E9492
:101DE0003C0B60910C0170910D0190E080E04AE0A5
:101DF0000C944F0D0F931F93CF93DF930E94020417
:101E000080E20E9424018DE394E00E948406811107
:101E10002AC180919B02811108C189E294E00E944D
:101E2000A3068091FA038F3F09F457C00E94020471
:101E30008BEF93E00E94A30641E068E08BEF93E014
:101E40000E94900941E066E08BEF93E00E949009C8
:101E500041E067E08BEF93E00E94900967E080EE3D
:101E600093E00E946C096091E503662329F041E04C
:101E70008BEF93E00E94D60941E06091E4038BEF81
:101E800093E00E94D60941E06091E6038BEF93E076
:101E90000E94D60907EE13E0C0EED3E0F80161918D
:101EA0008F0141E08BEF93E00E94D609F3E00B3EF7
:101EB0001F07A1F705EE13E040E06F858BEF93E07D
:101EC0000E94D6096F85603120F48BEF93E00E9469
:101ED000700821960C171D0779F78091F40388602C
:101EE0008093F40382E08093F8031092F9038BE36C
:101EF0009DE00197F1F740E06091E40380EE93E00C
:101F00000E945C0940E06091E60380EE93E00E944D
:101F10005C096091E5036F3F29F040E080EE93E0BB
:101F20000E945C096091F40364FD81C063E080EE6F
:101F300093E00E94F309CBE4D6E4CE010197F1F7D8
:101F400063E080EE93E00E94F3092197F1F763E0EC
:101F500080EE93E00E94F30983E592E00197F1F7A8
:101F600062E080EE93E00E94F3096091F403606206
:101F700080EE93E00E94560B84E08093F5036CE0C2
:101F800080EE93E00E94560B80EE93E00E948B0B54
:101F900082E08093F60366E080EE93E00E94560BA9
:101FA00040E065E089E294E00E94900965E089E202
:101FB00094E00E94700844E050E0609129048CEFA6
:101FC00093E00E94DE0843E050E0609129048EE037
:101FD00094E00E94DE0842E050E06091290487E12D
:101FE00094E00E94DE0841E050E06091290485E021
:101FF00094E00E94DE0850E040E06091290480E215
:1020000094E00E94DE0880910E0190910F014297AA
:1020100011F40E94DD0E10929A0210929902109211
:102020009702109296021092980281E01DC06062A1
:1020300080EE93E00E94560B8BE496E40197F1F753
:102040006091F403606280EE93E00E94560B83E59A
:1020500092E00197F1F76091F403606280EE93E003
:102060000E94560B82CF80E080939B02DF91CF913C
:102070001F910F9108951F93CF93DF93C091960204
:10208000D09197022196D0939702C093960261E077
:1020900080E00E94590BC038D10538F08EE890E0FE
:1020A000DF91CF911F910C943C0BC0919602D0917F
:1020B00097028C2F0E9424018DE394E00E948406F5
:1020C000182F882311F08430D1F485E990E00E9424
:1020D0003C0BDD27C031D10518F480E30E94330B9F
:1020E000BE0190E080E040E10E944F0D80E214309C
:1020F00009F48FE3DF91CF911F910C94330B21965C
:10210000D0939702C0939602C6CFFC0101900020A5
:10211000E9F73197AF01481B590BBC0180EE93E002
:102120000C949003CF93DF9361E080E00E94590B01
:102130008091AB02811106C086EB90E0DF91CF91D8
:102140000C943C0BD091AE02C091B50164E080913B
:102150008B0290918C020E949D0D84EB90E00E9476
:102160003C0B81EB90E00E943C0B62E08D2F90E0F5
:102170000E949D0D8DE20E94330B80E3C11181E32B
:102180000E94330B8DE20E94330B8091AC0280FDE4
:1021900006C08FEA91E0DF91CF910C9485108DEA13
:1021A00091E0F9CF85ED8093BC008091B7039091C9
:1021B000B803A091B903B091BA030796A11DB11D50
:1021C00023E0B695A795979587952A95D1F7209105
:1021D000BC0024FD03C01092B50308954091B703DD
:1021E0005091B8036091B9037091BA03452B462B07
:1021F000472B69F30097A105B10541F02AE22A9522
:10220000F1F700C00197A109B109E1CF8091B603B0
:102210000C9419042F923F924F925F926F927F928B
:102220008F929F92AF92BF92CF92DF92EF92FF92E6
:102230000F931F93CF93DF9300D000D0CDB7DEB7BD
:102240009C838B837C0141E8E40EF11C6C0150E817
:10225000C50ED11C8C010E571F4F8D579F4F2C015F
:102260008B819C818C579F4F4C0122242A94AB80F8
:10227000BC8097E8A90EB11CEB81FC81EB57FF4FA6
:10228000FA83E983F7018081F6019081891709F4C7
:10229000BAC0EB81FC81E80FF11D308037FE6DC0C4
:1022A000F8019081891739F0F501208131812F5F84
:1022B0003F4F31832083F8018083F2012082832DF8
:1022C0008076F401803609F441C0832D82958670B2
:1022D0008E5F8083F8012081F4018081820F99272D
:1022E000991F813891059CF180E8682E621AF89454
:1022F000F6014081F8018081841708F044C0F42F72
:10230000F81B8F2FF60180837894F80160814617BF
:10231000E8F5712C50E06B817C81CB01860D971D17
:102320000E94E925F80160814B815C81460F511DB7
:10233000BA01A3018B819C810E94E925F70180816C
:10234000F8019081891BF7018083F8011082F70161
:1023500090819F5F9083F8018081392F381B97FF10
:1023600002C0F7011082F2012081F40190819317DD
:10237000A9F03226F201308285CFF40180818111EB
:10238000E6CF3082A7CF862D840FBCCF461B50E00E
:102390008B819C81860F911DBC01CCCF32122AC04B
:1023A0004B815C81480F511DCA01E981FA8140814E
:1023B00051814F5F5F4F51834083F7013081F801B6
:1023C00030830097B1F20F900F900F900F90DF9134
:1023D000CF911F910F91FF90EF90DF90CF90BF9022
:1023E000AF909F908F907F906F905F904F903F90B5
:1023F0002F900895F50180819181019691838083CA
:1024000090E080E0DACF90E080E0DDCF6F927F92C5
:102410008F929F92AF92BF92CF92DF92EF92FF92F4
:102420000F931F93CF93DF93E091A202F091A30249
:10243000D581D3709780868073806280A82EE894BF
:10244000A7F887FD9AC0D061B62EE894B7F867FD6B
:10245000D860C42EE894C7F811E147FF10E1D22EEE
:10246000E894D7F827FD1260F02EE894F7F807FDFE
:1024700014600E2D0F77E7FC1860C92DC82588E081
:10248000C827C725C625C027CF25CD25CC25CB25D8
:10249000CA25CD27C12765EE86EB91E00E94FE0696
:1024A00060E186EB91E00E94FE06662D86EB91E0EE
:1024B0000E94FE06672D86EB91E00E94FE0662E018
:1024C00086EB91E00E94FE066D2F86EB91E00E9464
:1024D000FE06682D86EB91E00E94FE06692D86EBD4
:1024E00091E00E94FE066A2D86EB91E00E94FE06B6
:1024F0006B2D86EB91E00E94FE06612F86EB91E04A
:102500000E94FE066C2D86EB91E00E94FE066D2D6A
:1025100086EB91E00E94FE066F2D86EB91E00E9413
:10252000FE06602F86EB91E00E94FE066C2F6F770F
:1025300086EB91E00E94FE066FEF86EB91E00E9431
:10254000FE0686EB91E00E940A119093A30280930D
:10255000A202009711F00E94190781E0DF91CF914C
:102560001F910F91FF90EF90DF90CF90BF90AF90B1
:102570009F908F907F906F900895D46165CF0F9357
:102580001F93CF93DF93E82FF0E099E0899FD0016C
:102590001124A65DBE4F15962D913C912617370745
:1025A000C0F08B01C82FEE0FFF1FE050FF4F71836B
:1025B0006083CF5FCC0FD0E0612FCE010E941D223F
:1025C000602FCE010196DF91CF911F910F910C9456
:1025D0001D22DF91CF911F910F910895893010F442
:1025E0000C94BF120895CF93DF936DE490E080E0E8
:1025F0000E941D226AE581E090E00E941D22CAE24D
:10260000D1E069817A8188810E94EE12299681E069
:10261000CB37D807B1F7DF91CF9108951F920F9272
:102620000FB60F9211242F933F938F939F93AF93E5
:10263000BF938091B1029091B202A091B302B09188
:10264000B4023091B00223E0230F2D3758F50196E4
:10265000A11DB11D2093B0028093B1029093B202EC
:10266000A093B302B093B4028091B5029091B602E8
:10267000A091B702B091B8020196A11DB11D80933F
:10268000B5029093B602A093B702B093B802BF917F
:10269000AF919F918F913F912F910F900FBE0F900F
:1026A0001F90189526E8230F0296A11DB11DD2CFC9
:1026B0001F920F920FB60F9211242F933F934F93B7
:1026C0005F936F937F938F939F93AF93BF93EF939A
:1026D000FF938091B900887F803609F44AC0F0F5F5
:1026E000883209F4A7C018F5803109F49BC0B8F40A
:1026F000882309F4F9C0883009F494C0FF91EF9160
:10270000BF91AF919F918F917F916F915F914F9109
:102710003F912F910F900FBE0F901F901895883109
:1027200009F488C0803251F78093B30314C0803419
:1027300009F49DC040F48033B9F38833F9F68093EF
:10274000B30385ECB0C0803509F485C0883509F441
:1027500096C0883499F60E94D210D0CF883909F4F7
:102760008CC038F5883729F050F4883611F080375E
:1027700029F683E08093B5031092890257C0883808
:1027800009F47BC0803919F0803809F0B7CF809107
:102790008902803208F071C0E091890281E08E0FD9
:1027A000809389028091BB00F0E0E759FD4F808360
:1027B0003DC0803B39F0E0F4803A09F479C0883AB2
:1027C00009F09CCF84E08093B503109268021092C8
:1027D0006702E0918B03F0918C0309958091670269
:1027E00081110FC081E0809367021092470209C0F7
:1027F000803C09F4A6CF883C09F4A3CF883B09F0BC
:102800007DCFE091680281E08E0F80936802F0E056
:10281000E95BFD4F80818093BB00909168028091BD
:10282000670229C0809190038093BB0085EC809360
:10283000BC0064CF9091B2038091B103981758F512
:10284000E091B20381E08E0F8093B203F0E0EF5687
:10285000FC4F8081E9CFE091B20381E08E0F80933D
:10286000B2038091BB00F0E0EF56FC4F8083909163
:10287000B2038091B1039817C8F285E8D8CFE091F0
:10288000B20381E08E0F8093B2038091BB00F0E031
:10289000EF56FC4F80838091B40381115CCF81E0BF
:1028A00080938F0384EA8093BC001092B50326CFF7
:1028B00085EC8093BC001092B50380918902803230
:1028C00030F4E0918902F0E0E759FD4F1082609109
:1028D000890270E0E0918903F0918A0389E692E031
:1028E0000995109289020ACF1092B30334CF1F9238
:1028F0000F920FB60F921124DF92EF92FF920F9377
:102900001F932F933F934F935F936F937F938F9377
:102910009F93AF93BF93CF93DF93EF93FF93B19ABE
:102920008091D1029091D20280549C4F9093D20218
:102930008093D1028091D1029091D202909389002C
:102940008093880080914502882371F0109245029F
:10295000189B26C081E08093D702B59A80916F00C2
:10296000806280936F001CC08091D6028F5F80933D
:10297000D6028091D702843009F043C08091D602FC
:10298000893030F58091CD0290E0959587958093C0
:10299000CD02189B05C08091CD0280688093CD0246
:1029A000FF91EF91DF91CF91BF91AF919F918F9167
:1029B0007F916F915F914F913F912F911F910F9157
:1029C000FF90EF90DF900F900FBE0F901F90189523
:1029D000B59A80916F00806280936F008091CB02E6
:1029E0009091CC02189929C0FC01E957FF4F8081D2
:1029F00091810196918380831092D60281E0809329
:102A0000D7028091D7028330E9F5E091D402F091AA
:102A1000D50280812091D30233B190E0022E02C012
:102A2000959587950A94E2F7832780FD11C010924F
:102A3000D60282E08093D70225C06091CD020E9429
:102A4000FE0680E090E0892BB9F20E940000D4CF0E
:102A50008091D602893008F043C03091CD0281E0E8
:102A600090E001C0880F2A95EAF7908130FF36C0C8
:102A70008095892380838091CD0290E095958795FC
:102A80008093CD028091D702823099F48091D60252
:102A900081118EC0E091D402F091D5028081909195
:102AA000D30221E030E001C0220F9A95EAF7822B91
:102AB00080838091D702813009F072CF8091D60255
:102AC000882309F44ACF8091D602883308F468CF6E
:102AD0001092D70280916F008D7F43CF892BCACF90
:102AE0008091D602893059F4308181E090E001C0B4
:102AF000880F2A95EAF7809583238083C3CF80913E
:102B0000D8028F5F8093D8029091D902891750F52F
:102B10001092D6028091CF029091D002A091D8025B
:102B2000A80FB92FB11D8C918093CD02808141E017
:102B300050E001C0440F2A95EAF7842B80838091EE
:102B40008400909185008A5A9C4F9093D202809382
:102B5000D1028091D1029091D2029093890080930A
:102B6000880090CF81E08093CE020091CF02109137
:102B7000D002E090CB02F090CC02C8010E940D0779
:102B8000D82ED0E0C0E0CD1548F4F801EC0FFD1FC1
:102B90006081C7010E94FE062196F5CF80E090E09B
:102BA000892B11F00E9400001092D60281E042CFE2
:102BB0008091D6028F3008F47CCFE091D402F0915E
:102BC000D50220813091D30281E090E001C0880FCE
:102BD0003A95EAF78095822380831092D60281E0AD
:102BE0008093D702E091CB02F091CC02E357FF4FE4
:102BF000808191810196918380835BCF1F920F9298
:102C00000FB60F9211248F939F93EF93FF93B59A72
:102C1000EFE6F0E080818F7D808380918600909147
:102C2000870080529E4F9093D2028093D102809170
:102C3000D1029091D2029093890080938800B19A3A
:102C400080818260808384E08093D7021092D602D4
:102C500081E080934502FF91EF919F918F910F90BA
:102C60000FBE0F901F901895893028F529E0829F9C
:102C7000F0011124E65DFE4F85819681803127E2C7
:102C80009207C8F4883E23E09207B8F48436910591
:102C9000B0F40A97B0F481E090919502891B990BEA
:102CA0008530910580F4880F991FFC01E05EFE4F8E
:102CB00080819181089585E0EFCF84E0EDCF83E0BE
:102CC000EBCF82E0E9CF90E080E00895CF931092BF
:102CD000400410923F0488EE93E0A0E0B0E08093BF
:102CE000410490934204A0934304B093440483E9C5
:102CF00091E090933E0480933D0486E080936C04C1
:102D000080E880936D0488E080936E0410926F04D5
:102D100010927004109271041092720461E086E0C7
:102D20000E9417020E94840360936F0470937004E2
:102D300080937104909372041092570410925E0471
:102D40001092650410926604109267041092680451
:102D500081E080936404809361041092620492E0A5
:102D6000909363048093560480E390E090935B0417
:102D700080935A040E94C4249093600480935F045B
:102D8000009709F4F0C020E3FC0111922A95E9F7BD
:102D900080E190E090935904809358048AE090E099
:102DA00090935D0480935C0480915704882341F0E4
:102DB00061E08AE00E94170260E08AE00E94E90177
:102DC000E6EEF1E0E491F0E0EE0FFF1FEE52FE4F71
:102DD0008591949190936A0480936904E8ECF1E002
:102DE000E491E0936B04C4E0C093510485E08093C8
:102DF000520484E690E0909355048093540460E07C
:102E000084E00E94170260E0809152040E94170241
:102E100060E0809151040E94E90160E080915204D9
:102E20000E94E9018DE3809349048DE394E090933F
:102E3000500480934F0410924A048FEF80934B0408
:102E400080934C0410924E0410924D0410923B0457
:102E500010923A0410923C041092E3031092E203A1
:102E60001092FA031092F4038FE08093E4038EE053
:102E70008093E5038DE08093E6038CE08093E70385
:102E80008BE08093E8038AE08093E90389E08093F4
:102E9000EA031092EF0381E08093F00382E08093D5
:102EA000F10383E08093F203C093F30385EA91E09A
:102EB0009093E1038093E0031092FC031092FD03D2
:102EC0001092FE031092FF038AE090E090930104B9
:102ED00080930004109202041092030410920504DF
:102EE00010920604109207041092080490930A04AA
:102EF0008093090410920B0410920C0410920E049B
:102F000010920F0410921004109211049093130465
:102F10008093120410921404109215041092170456
:102F2000109218041092190410921A0490931C0421
:102F300080931B0410921D0410921E041092200412
:102F400010922104109222041092230490932504DD
:102F50008093240410922604109227048CE180931D
:102F6000DF03CF91089510925B0410925A041092DF
:102F700059041092580412CFCF93DF93CDB7DEB728
:102F80006D970FB6F894DEBF0FBECDBF789484B5B1
:102F9000826084BD84B5816084BD85B5826085BD55
:102FA00085B5816085BD80916E00816080936E00E3
:102FB00010928100809181008260809381008091D5
:102FC0008100816080938100809180008160809386
:102FD00080008091B10084608093B1008091B00046
:102FE00081608093B00080917A00846080937A0041
:102FF00080917A00826080937A0080917A0081606B
:1030000080937A0080917A00806880937A00109291
:10301000C10010E0E12E11E0F12E02E0C02ED12C13
:10302000C6010E941522182FC60101960E94152282
:10303000212F30E0322F2227820F932F911DD701AD
:103040008D939D937D01B2E0CB0ED11CE4E1CE16B1
:10305000D10431F780910C0190910D01892B29F455
:1030600061E070E086E00E94BF1280910E019091B5
:103070000F01429711F00E94F3120E94FA0EEAED3E
:10308000F2E08FE8DF011D928A95E9F761E087E0C1
:103090000E941702E5ECF1E02491E3EEF1E0E49107
:1030A000F0E0EE0FFF1FEE52FE4F4591549180E08D
:1030B00091E031E0291741F08F5F932F082E01C076
:1030C000990F0A94EAF7F6CF5093D5024093D402B1
:1030D0008093D3028AED92E09093CC028093CB024E
:1030E0002098E091D402F091D50220813091D30252
:1030F00081E090E001C0880F3A95EAF7809582233D
:1031000080831092800011E0109381001092D7020A
:10311000B59A80916F00806280936F0080918100EA
:10312000887F8160809381001092BA021092B90268
:1031300084E08093BB028BEB89838BE78A831B82BD
:10314000CE0101960E9419071092AE0210928C02D5
:1031500010928B021092A7021092A8021092A9025C
:103160001092AA021092AF020E9402048DE30E9404
:1031700024018DE394E00E948406811102C0109323
:10318000A60280E70E9424018DE394E00E94840659
:10319000811175C081E080938A0280913A049091F8
:1031A0003B04009711F00E94602586E090E00E94A9
:1031B000C4248C0180E7F80180838DE394E092833E
:1031C0008183138280E290E09583848310933B0493
:1031D00000933A040E94020481E0D80113968C9374
:1031E000C8010E94DF06882309F449C081E2898B67
:1031F00041E050E0BE016F5E7F4F80913A049091B4
:103200003B040E94080810922B0410922A0410928A
:103210002D0410922C0410922F0410922E04109260
:103220003104109230041092330410923204109240
:103230003504109234041092370410923604109220
:103240003904109238040E943C0881E8898341E0E7
:1032500050E0BE016F5F7F4F80913A0490913B0434
:103260000E9408088FEE898341E050E0BE016F5F45
:103270007F4F80913A0490913B040E94080880910E
:103280005C0490915D0497FD08C061E00E94170204
:1032900060E080915C040E94E90181E08093570422
:1032A00044244A94542C612C712CFE013397FB8FDB
:1032B000EA8F21E030E02C0F3D1F2C5F3F4F3D8F08
:1032C0002C8F19E022242394312C0E948403C09077
:1032D0006F04D0907004E0907104F09072046C1947
:1032E0007D098E099F09653171058105910500F100
:1032F0000E94840360936F04709370048093710440
:103300009093720460916D0480916E04613C20F092
:10331000819580936E0402C06032D0F380916E0478
:10332000680F60936D0470E080916C040E9402034A
:103330000E948403C0909102D0909202E090930288
:10334000F09094026C197D098E099F096E37710502
:103350008105910528F10E94840360939102709386
:10336000920280939302909394029091900281E054
:10337000982790939002992399F090918F02982723
:1033800090938F02992361F090918E0298279093E9
:103390008E02992329F090918D02892780938D02C6
:1033A0000E94FA0E80919B02813009F03EC065E0D8
:1033B00089E294E00E94AF0830E2839FC0011124AB
:1033C0008095909561E085FD60E080EE93E00E943D
:1033D0006C096FEEC62E63E0D62EF12CE12C7FE156
:1033E000B72E0E2DD6016D916D0180E0603120F475
:1033F0008BEF93E00E94AF0890E002C0880F991F06
:103400000A95E2F780959095B822BFEFEB1AFB0A78
:10341000E5E0EE16F10429F780919A02B1106BC035
:10342000882309F4B7C010929A028AED92E00E94B4
:103430000A11FC019093A3028093A202892B09F444
:10344000E8C482819091100194FFC0C28B3709F0CB
:10345000C0C280818F3E29F4828586FD02C08064CF
:1034600082878081877F873E09F0B3C2858140E8EB
:10347000849F900111248481820F932F911DEE244B
:10348000EA942FE3F22ED701A81BB90BB093A10247
:10349000A093A002828586FFF4C58091B902909125
:1034A000BA02181619060CF094C28EE0ACEBB2E02A
:1034B00001900D928A95E1F781E00E94FE0C8091C7
:1034C000BB0282FF11C08091C102B0E88B9F9001C6
:1034D00011248091C002820F932F911DF701E81BE8
:1034E000F90BCF010E94150D82E090E09093BA0293
:1034F0008093B9026EC2B81609F44CC0809199024B
:10350000B0929A02811105C0B2FE8FCF0E94C30B08
:103510008CCF813001F5B3FE05C00E94DD0E109204
:10352000990283CFB2FE03C00E94B30B7ECFB1FEDF
:1035300031C080EE93E00E948B0B60E080E00E943F
:10354000590B8FE291E00E943C0B0E9492108AE09E
:10355000809399026ACF8230C9F4B3FCD7CFB1FE11
:1035600003C00E94A30B61CFB2FE5FCF87E08093C0
:10357000990280EE93E00E948B0B60E080E00E9455
:10358000590B85E291E00E943C0B4FCF8730E1F46C
:10359000B3FCCACF80919902873009F0FBC161E08A
:1035A00080E00E94590B8091AB02882309F4EEC1A0
:1035B0008091AD020091AC02873108F4F3C181EB38
:1035C00091E00E948510F2C18A3019F4B4FEE2CF76
:1035D0009DCF843108F4BEC19091DF03981708F4A1
:1035E000A6C10CEE080FB0FE50C0D0909802DD20AE
:1035F00009F41BCF6091960270919702E02EF12C96
:103600000630E9F4672BA9F40E94F312F701EE0FDC
:10361000FF1FE050FF4F808191810E94CB0D61E040
:103620008AE00E94590BDD2009F4D6C68EE191E0B4
:10363000D5C661E070E086E00E94BF12E7CF1E9D14
:10364000F0011F9DF00D1124E65DFE4F8085238162
:1036500034816217730708F4B4C6258136812617B2
:10366000370708F4AEC68111ACC6802F0E94EE1257
:10367000093060F28FEF9FEF0E94CB0D61E08AE08E
:103680000E94590BD3CFD12CC1CFB4FE0EC0809174
:103690009802882309F465CF10929802E02F093030
:1036A00008F4C7C08FEF9FEFCBC0B1FE58C0809128
:1036B0009802811120C00930F0F4802F90E0189F0B
:1036C000F001199FF00D1124E65DFE4F20852111B8
:1036D00012C0880F991FFC01E050FF4F808191813B
:1036E000909397028093960221E020939802109283
:1036F00095020E94CB0D80919802882309F495CE03
:10370000F0909502F394F0929502093040F4109FE6
:10371000F0011124E65DFE4F8781823061F0802F39
:103720000E94E30790E00196F816190639F481E04B
:103730008093950203C0F9E0FF16C9F361E0809120
:1037400095020E94590B6091F503862F8260809349
:10375000F5036A6080EE93E00E94560B66CEB3FEDE
:1037600072C020919802222309F456C0C09096029C
:10377000D09097028FEF9FEF093008F040C0A02E45
:10378000B12C1A9DF0011B9DF00D1124E65DFE4F3A
:10379000F78021E02F1580F0802F0E9434168C0DC9
:1037A0009D1D90939702809396028C159D0520F4A1
:1037B000D0929702C0929602209196023091970281
:1037C000F2E0FF1213C08091950248E050E0481BE0
:1037D0005109D10102C0AA0FBB1F4A95E2F7CD01E2
:1037E000822B932B90939702809396021A9DF0015F
:1037F0001B9DF00D1124E65DFE4F85819681209181
:103800009602309197028217930708F081C0D092F8
:103810009702C09296027CC08F5F809399028917AD
:1038200010F090939902E0919902E451E93008F088
:1038300039CFF0E0EE0FFF1FE050FF4F8081918104
:103840000E94CB0DF2CDB2FED2C590919802992381
:1038500009F463C0C0909602D090970290E080E097
:10386000093008F043C0A02EB12C1A9DF0011B9D19
:10387000F00D1124E65DFE4FF780B1E0BF1588F032
:10388000802F0E943416F601E81BF90BF093970283
:10389000E0939602CE16DF0620F4D0929702C092F3
:1038A0009602209196023091970242E0F41215C0E0
:1038B0008091950248E050E0481B5109D10102C0B7
:1038C000AA0FBB1F4A95E2F7CD0180959095822300
:1038D000932390939702809396021A9DF0011B9D6B
:1038E000F00D1124E65DFE4F8381948120919602B4
:1038F000309197022817390720F4D0929702C0928E
:1039000096028091960290919702019609F47FCFDA
:10391000809196029091970293CF81508093990263
:10392000833109F080CF84E1809399027CCF883C79
:1039300089F4B2FE03C00E94930B77CDB4FCF4CDA2
:10394000B1FE73CD84E18093990280910001909142
:10395000010176CF823D09F050C5B3FC02CEB4FC24
:10396000E3CDB1FE62CD83ED8093990260E088E003
:103970000E94590B80E20E94330BEFEFFFEFF093B0
:103980009702E09396020E943B104FCD81E191E0B7
:103990000E943C0B809199028A3009F046CD0E942A
:1039A000921043CD62E090E00E949D0D8AE30E9458
:1039B000330B0C3330F462E0802F90E00E949D0DB9
:1039C000E9CF81EB91E00E948510E4CF8B3709F4B9
:1039D00048CDE090A202F090A302C7010E940D071B
:1039E000803109F016C2D7018C91853E09F011C2D1
:1039F00014968C911497823009F00BC216962C9174
:103A0000169780910001909101012817190609F07D
:103A1000E7C117962C91179780910E0190910F0195
:103A20002817190609F0DCC115968C91159790E0BE
:103A30009C01E4E0220F331FEA95E1F72078199604
:103A4000AC901997E894A7F82A2930E0322F222762
:103A500005E0880F991F0A95E1F780781896AC90D9
:103A6000E894A7F8A82AA20EB32EB11C6501B1E014
:103A7000CB1AD1089C2CE8E0EC1548F0C19EF0016F
:103A80001124E65DFE4F31E08781813009F030E09E
:103A9000D70113968C918130F1F5B9E0CB16D104A2
:103AA000D0F5F701828590E063856F77AC0156957C
:103AB000542F442757954795262F240F332309F475
:103AC000E3C246E0880F991F4A95E1F78078648544
:103AD0006F77862B682F70E0762F6627620F711D37
:103AE0008C2D0E94EE12E091A202F091A30283813C
:103AF00080648383F8E04FEFF91530F0F601EE0FA4
:103B0000FF1FE050FF4F4081E12C00E020E060E02B
:103B10008A2D0E940612E091A202F091A3028381F5
:103B20008230B9F429E0C216D10498F482E4838388
:103B300038E04FEF391530F0F601EE0FFF1FE0507F
:103B4000FF4F4081E12C00E020E060E08A2D0E94E0
:103B50000612E091A202F091A3028381833009F062
:103B60004BC049E0C416D10408F046C0628570E03D
:103B7000CB019695982F8827979587959927238528
:103B80002F77280F392F311D86E0660F771F8A9512
:103B9000E1F76078772784858F77682B58E08FEF7F
:103BA0009FEF591538F0F601EE0FFF1FE050FF4F61
:103BB0008081918126233723232B09F467C2682B48
:103BC000792B8C2D0E94EE12E091A202F091A302BB
:103BD00083818064838388E04FEF891530F0F6019C
:103BE000EE0FFF1FE050FF4F4081E12C00E020E08E
:103BF00060E08A2D0E940612E091A202F091A302D9
:103C00008381853009F084C099E0C916D10408F099
:103C10007FC0828590E0BC0136E0660F771F3A9541
:103C2000E1F7A62FA078FA2E64856F77F62ABC01FB
:103C300045E0660F771F4A95E1F7062F0078658506
:103C40006F77062BBC0154E0660F771F5A95E1F79A
:103C5000B62FB0788B2E66856F77862A63856F774F
:103C60009695982F882797958795680F70E08C2DEB
:103C70000E94EE12EE24E394EC0C6F2D70E08E2D7A
:103C80000E94EE12E2E0FE2EFC0C602F70E08F2D01
:103C90000E94EE1203E00C0D682D70E0802F0E9450
:103CA000EE12E091A202F091A302838180648383EB
:103CB000E8E04FEFE91530F0F601EE0FFF1FE0509E
:103CC000FF4F4081F8E02FEFFE1538F0EE2DF0E0C9
:103CD000EE0FFF1FE050FF4F208138E08FEF3F15C0
:103CE00038F0EF2DF0E0EE0FFF1FE050FF4F808126
:103CF000EE24EA94093038F4E02FF0E0EE0FFF1FD5
:103D0000E050FF4FE080082F60E08A2D0E940612ED
:103D1000E091A202F091A30283818630B1F549E0DF
:103D2000C416D10490F586E4838358E04FEF59150B
:103D300030F0F601EE0FFF1FE050FF4F4081E1E051
:103D4000EC0D2FEFE93030F4F0E0EE0FFF1FE05004
:103D5000FF4F2081E2E0EC0D0FEFE93030F4F0E0AE
:103D6000EE0FFF1FE050FF4F0081E3E0EC0DEE246B
:103D7000EA94E93030F4F0E0EE0FFF1FE050FF4F1F
:103D8000E08060E08A2D0E940612E091A202F0918C
:103D9000A3028381883061F488E4838340910E011B
:103DA000E42E0091000120E06DE08AE30E940612FB
:103DB000E091A202F091A30283818F3089F40E94E6
:103DC000F312E091A202F091A302838180648383C5
:103DD000E12C00E020E040E06B2D8A2D0E940612CD
:103DE000E091A202F091A3028681811112C0878125
:103DF00081110FC08381873061F487E48383409110
:103E00000E01E42E0091000120E06DE08AE30E94A3
:103E100006120E948403C0909C02D0909D02E09004
:103E20009E02F0909F02AB01BC014C195D096E0926
:103E30007F09433451056105710508F46BC0D70152
:103E4000C6018D5B9F4FAF4FBF4F80939C029093F5
:103E50009D02A0939E02B0939F028091B90290911F
:103E6000BA02029709F043C08091C0029091BF024C
:103E7000890F8093C00287FF25C09091BB028F7786
:103E80008093C0028091C1028F5F8093C10287FF3F
:103E900019C08DE68093C002892F81708858809365
:103EA000C1028091C2028F5F8F3708F0F4C0809307
:103EB000C20291FF03C18FEE8093BC028CEB92E0B3
:103EC0000E9419078091BB0282FF11C02091C1029C
:103ED000A0E82A9FC00111242091C002280F392F89
:103EE000311D8FEF9FE3821B930B0E94150D809174
:103EF000B9029091BA02892B69F48BEB89838BE725
:103F00008A831B82CE0101960E9419073092BA0261
:103F10002092B9028091AF02882389F12091AE02EC
:103F200040E6C42E4AEED42EE12CF12C222359F087
:103F300030E050E040E060E67AEE80E090E00E9401
:103F40007D2469017A010E9484038090A7029090E9
:103F5000A802A090A902B090AA02681979098A095A
:103F60009B09C616D706E806F90648F48BEB898349
:103F70008BE78A831B82CE0101960E9419078091EC
:103F8000A602882309F4ACC061E0809149040E9434
:103F90002A0510928E0380938D03813009F492C01C
:103FA00082E890E090934E0480934D0480914A04FF
:103FB00082FD96C08091A502882309F494C0909058
:103FC000AD020091AC02E090AB02B090AF02F09075
:103FD000AE02609106017091070189E00E94020320
:103FE000BB2029F0AA24A394BAE0BF1508F0A12CA5
:103FF00060910801709109018BE00E940203BB20CF
:1040000031F08FEF8F0DFF24F3948A3008F0F12CFC
:1040100060910A0170910B0183E00E94020380917C
:10402000040188248394880E20915E04821609F48A
:104030007BC0C0905F04D0906004215070E060E0CD
:1040400059F08F3F09F064C030E050E040E0C30118
:10405000B2010E949F24B901F60140915A04509187
:104060005B04CF018C199D098417950708F05AC08D
:104070004081469FC001479F900D11249083319647
:10408000ECCF83E090E032CA80E024CD609570955B
:104090006823792396CD83E48093C2028091C40281
:1040A0008F5F8093C40287FF04CF88E68093C402A9
:1040B0008091C5028F5F8093C502FBCE80E00E9495
:1040C000FE0C00CF80914F0490915004DC01ED91E3
:1040D000FC910284F385E02D099580934A0468CF12
:1040E0001092A5026CCF81E08093A5029091A4026A
:1040F000913009F482E08093A4028091A602882383
:1041000009F45DCF8091A4028C6F0E94870657CF7F
:10411000882D90E0982F88270197622F70E00E94E9
:1041200069249ACF80925E04D12CC12C88E0882E1D
:10413000E0E1CE16D10409F4EAC0E1108DC0BB2045
:1041400009F4A9C0A110A7C0F110A5C080915F0417
:1041500090916004892B09F47BC00E945F03209139
:1041600065043091660440916704509168046217B9
:1041700073078407950740F46093650470936604A1
:1041800080936704909368042091650430916604DD
:104190004091670450916804621B730B840B950B6C
:1041A0006C32714081059105C0F2F89480915A04F7
:1041B00090915B049A8B898BE0915F04F09160048D
:1041C000DF0111968081898F90915604E0916904F6
:1041D000F0916A0480916B04992309F460C0908186
:1041E000982B988F9081809589238F8B8F898C8BCA
:1041F0008B8A388D4F89698D5B892C8989899A8949
:10420000308367FD232F5A952083242F39F0661FB2
:1042100000C000004083000000C0F2CF58E06D9164
:1042200040830000019761F7F0936A04E09369040A
:10423000698F5B8B2C8B9A8B898B78940E945F03A0
:104240006093650470936604809367049093680498
:104250002FEFC21AD20A6CCF40E050E06FEF70E04F
:10426000BB20A9F040E05FEF60E070E0A1100FC05C
:10427000FF2009F46BCF809110014FEF5FEF6FEFDC
:1042800070E080FD04C04FEF50E060E070E0C601D8
:104290000E9457015BCF40E050E0BA01F8CF908117
:1042A000982B988F9081809589238F8B8F898E8B07
:1042B0008D8A388D4F89698D5D892E8989899A8982
:1042C000308367FD232F00C000C0208300C000C0E2
:1042D00000C000C000C040830000242F5A9541F068
:1042E000661F000000C000C000C000C000C0E8CFD2
:1042F00058E06D9100C0408300C0019709F7F0932A
:104300006A04E0936904698F5D8B2E8B94CF809152
:10431000100181FF1AC08FE0809353048BE891E075
:10432000EE2089F0202F30E044E6949E200D311DD0
:1043300011242115310599F419821A821B828FE309
:104340008C83CE0101960E94D80280E090E0892BF8
:1043500011F40C9465190E9400000C946119CE01AF
:1043600001967C01FC01C9016AE070E00E946924A9
:10437000009709F521153105F1F41382C9016AE0AE
:1043800070E00E9469249B0131974A8D5B8DE41790
:10439000F50749F780E4D7012D917D01FD013197A3
:1043A000982F9078922B9083880FEC8DFD8DEA17D3
:1043B000FB0789F7C6CF85589E4FDC018C9183831C
:1043C000DDCF093008F45FC98FEF9FEF0E94CB0D5E
:1043D00061E08AE00E94590B87E191E00E943C0B6A
:1043E00061E0809195020E94590B0C94151A883C4B
:1043F00009F4A4CA823D09F4B2CA833D09F0CAC8CF
:10440000B4FC99CAB2FEC6C8BECA80915F0490913E
:1044100060040E94602580915C0490915D0497FD8A
:1044200003C060E00C9417020895F999FECF92BD85
:1044300081BDF89A992780B50895262FF999FECF66
:104440001FBA92BD81BD20BD0FB6F894FA9AF99AB1
:104450000FBE019608955058BB27AA270E944322F9
:104460000C94B6230E94A82338F00E94AF2320F0BA
:1044700039F49F3F19F426F40C94A5230EF4E0952B
:10448000E7FB0C949F23E92F0E94C72358F3BA1728
:10449000620773078407950720F079F4A6F50C945A
:1044A000E9230EF4E0950B2EBA2FA02D0B01B901D4
:1044B00090010C01CA01A0011124FF27591B99F09A
:1044C000593F50F4503E68F11A16F040A22F232FA6
:1044D000342F4427585FF3CF469537952795A795F6
:1044E000F0405395C9F77EF41F16BA0B620B730B9D
:1044F000840BBAF09150A1F0FF0FBB1F661F771F0E
:10450000881FC2F70EC0BA0F621F731F841F48F4C2
:10451000879577956795B795F7959E3F08F0B0CF4B
:104520009395880F08F09927EE0F97958795089532
:104530000E947B2308F481E008950E94B1220C942C
:10454000B6230E94AF2358F00E94A82340F029F41C
:104550005F3F29F00C949F2351110C94EA230C9493
:10456000A5230E94C72368F39923B1F3552391F340
:10457000951B550BBB27AA2762177307840738F0D2
:104580009F5F5F4F220F331F441FAA1FA9F335D02F
:104590000E2E3AF0E0E832D091505040E695001CE3
:1045A000CAF72BD0FE2F29D0660F771F881FBB1F9D
:1045B000261737074807AB07B0E809F0BB0B802D7B
:1045C000BF01FF2793585F4F3AF09E3F510578F0A7
:1045D0000C949F230C94EA235F3FE4F3983ED4F3BA
:1045E000869577956795B795F7959F5FC9F7880F7B
:1045F000911D9695879597F90895E1E0660F771FCD
:10460000881FBB1F621773078407BA0720F0621B5D
:10461000730B840BBA0BEE1F88F7E09508950E9488
:10462000CF2388F09F5798F0B92F9927B751B0F052
:10463000E1F0660F771F881F991F1AF0BA95C9F726
:1046400014C0B13091F00E94E923B1E008950C94B8
:10465000E923672F782F8827B85F39F0B93FCCF36B
:10466000869577956795B395D9F73EF490958095A3
:10467000709561957F4F8F4F9F4F0895E89409C0C3
:1046800097FB3EF490958095709561957F4F8F4F85
:104690009F4F9923A9F0F92F96E9BB279395F6959B
:1046A000879577956795B795F111F8CFFAF4BB0F19
:1046B00011F460FF1BC06F5F7F4F8F4F9F4F16C07D
:1046C000882311F096E911C0772321F09EE8872F07
:1046D000762F05C0662371F096E8862F70E060E0C3
:1046E0002AF09A95660F771F881FDAF7880F96953C
:1046F000879597F90895990F0008550FAA0BE0E8E0
:10470000FEEF16161706E807F907C0F01216130693
:10471000E407F50798F0621B730B840B950B39F4D3
:104720000A2661F0232B242B252B21F408950A2639
:1047300009F4A140A6958FEF811D811D089597F979
:104740009F6780E870E060E008959FEF80EC089537
:1047500000240A9416161706180609060895002460
:104760000A9412161306140605060895092E0394DA
:10477000000C11F4882352F0BB0F40F4BF2B11F44E
:1047800060FF04C06F5F7F4F8F4F9F4F089557FDAD
:104790009058440F551F59F05F3F71F04795880FAF
:1047A00097FB991F61F09F3F79F087950895121646
:1047B00013061406551FF2CF4695F1DF08C01616F2
:1047C00017061806991FF1CF8695710561050894A3
:1047D0000895E894BB2766277727CB0197F90895BA
:1047E0000E9403240C94B6230E94A82338F00E9450
:1047F000AF2320F0952311F00C949F230C94A52354
:1048000011240C94EA230E94C72370F3959FC1F3EF
:10481000950F50E0551F629FF001729FBB27F00D6E
:10482000B11D639FAA27F00DB11DAA1F649F6627C3
:10483000B00DA11D661F829F2227B00DA11D621F12
:10484000739FB00DA11D621F839FA00D611D221FCC
:10485000749F3327A00D611D231F849F600D211DB0
:10486000822F762F6A2F11249F5750409AF0F1F033
:1048700088234AF0EE0FFF1FBB1F661F771F881F9C
:1048800091505040A9F79E3F510580F00C949F2312
:104890000C94EA235F3FE4F3983ED4F38695779532
:1048A0006795B795F795E7959F5FC1F7FE2B880F42
:1048B000911D9695879597F90895991B79E004C005
:1048C000991F961708F0961B881F7A95C9F780954F
:1048D0000895AA1BBB1B51E107C0AA1FBB1FA61747
:1048E000B70710F0A61BB70B881F991F5A95A9F799
:1048F00080959095BC01CD010895A1E21A2EAA1BC6
:10490000BB1BFD010DC0AA1FBB1FEE1FFF1FA2177F
:10491000B307E407F50720F0A21BB30BE40BF50B7C
:10492000661F771F881F991F1A9469F76095709505
:10493000809590959B01AC01BD01CF010895052E96
:1049400097FB1EF400940E94B62457FD07D00E94E6
:104950007D2407FC03D04EF40C94B624509540956A
:10496000309521953F4F4F4F5F4F0895909580951B
:10497000709561957F4F8F4F9F4F0895EE0FFF1FEA
:104980000590F491E02D09940F931F93CF93DF933B
:104990008230910510F482E090E0E0917504F0918E
:1049A000760430E020E0B0E0A0E0309799F42115E3
:1049B000310509F44AC0281B390B24303105D8F5DC
:1049C0008A819B816115710589F1FB019383828343
:1049D000FE0111C04081518102811381481759079E
:1049E000E0F04817590799F4109761F012960C936C
:1049F000129713961C933296CF01DF91CF911F919E
:104A00000F9108950093750410937604F4CF211547
:104A1000310551F04217530738F0A901DB019A0123
:104A2000BD01DF01F801C1CFEF01F9CF909376040A
:104A300080937504CDCFFE01E20FF31F8193919314
:104A40002250310939832883D7CF209173043091C4
:104A50007404232B41F420911401309115013093FB
:104A600074042093730420911201309113012115D5
:104A7000310541F42DB73EB7409116015091170111
:104A8000241B350BE0917304F0917404E217F307D3
:104A9000A0F42E1B3F0B2817390778F0AC014E5FAE
:104AA0005F4F2417350748F04E0F5F1F5093740473
:104AB00040937304819391939FCFF0E0E0E09CCF0B
:104AC000CF93DF930097E9F0FC01329713821282B3
:104AD000A0917504B0917604ED0130E020E01097CC
:104AE000A1F420813181820F931F209173043091B2
:104AF00074042817390709F061C0F0937404E09337
:104B00007304DF91CF910895EA01CE17DF07E8F52E
:104B10004A815B819E0141155105B1F7E901FB8393
:104B2000EA8349915991C40FD51FEC17FD0761F431
:104B3000808191810296840F951FE9019983888372
:104B4000828193819B838A83F0E0E0E012968D91CD
:104B50009C9113970097B9F52D913C911197CD0138
:104B60000296820F931F20917304309174042817CA
:104B7000390739F6309751F5109276041092750482
:104B8000B0937404A0937304BCCFD383C2834081D9
:104B90005181840F951FC817D90761F44E5F5F4F8D
:104BA00088819981480F591F518340838A819B8155
:104BB000938382832115310509F0B0CFF0937604F9
:104BC000E09375049ECFFD01DC01C0CF13821282F9
:104BD000D7CF6817790768F4FB01DC01E40FF51FF4
:104BE000A40FB51F02C002900E9241505040D8F75A
:104BF00008950C94FB25FB01DC0102C001900D928D
:104C000041505040D8F7089510E0C9EFD0E004C0FB
:104C1000FE010E94BE242196CA3FD107C9F7F8942D
:024C2000FFCFC4
:104C2200FFFFFFFFFFFFFFFFFFFFFFFFFFFFFFFF92
:104C3200FFFF0000770480000000400014005400D1
:104C420001000A006400E803102700010001007E51
:104C52000000000110000100FF00000102FF00003F
:104C6200000000000003FF000000FF00000004FF3E
:104C7200000000FF00000005FF000000FF00000030
:104C820006010000000100000007120012001200DD
:104C92000001081C000000FF0002003F065B4F6697
:104CA2006D7D077F6F777C395E79714040404000AF
:104CB200000000500623060508F9051C060906FA3D
:104CC20005000000002D0B9003050804084F004565
:044CD200003F3F0060
:00000001FF
