:100000000C941A010C9442010C9442010C9442018C
:100010000C9442010C9442010C9442010C94420154
:100020000C9442010C9442010C9416170C948F15F9
:100030000C9442010C9442010C9442010C94420134
:100040000C9426140C9442010C9442010C9442012D
:100050000C9442010C9442010C9442010C94420114
:100060000C9470140C9442015374617475733F00C6
:10007000496E626574726965626E61686D653F00A4
:1000800043563F004932432D5363616E3F0066651E
:10009000727469670030780056657273696F6E20FC
:1000A000004E6562656E7568722D53746174757368
:1000B00000313A002D002D2D2D002D002B00313A5E
:1000C000002D0054005374700052756E002D0042D4
:1000D000002D0047002D0052003F3F3F00436F6E50
:1000E000666967206C004366672046432D536C7633
:1000F0000053572D49440056657273696F6E004274
:100100002D42726967687400472D4272696768748E
:1001100000522D4272696768740057532D4272690C
:10012000676874004C45442D434E5400446576691D
:100130006365494400726F004356002D2D3A2D2D02
:10014000006661696C65640073746F726564005366
:10015000746174757300446973706C61792D5374A4
:10016000617475730046617374436C6F636B005305
:1001700074617475730000000000240027002A00D9
:1001800000000000230026002900000000080002F3
:1001900001000003040700000000000000000086CA
:1001A000227E6DD24620290B2170104080523F06DE
:1001B0005B4F666D7D077F6F090D614843D35F77A5
:1001C0007C395E79713D76301E753815373F736B1B
:1001D000336D783E3E2A766E5B39640F2308025FEA
:1001E0007C585E7B716F74100C753014545C7367AF
:1001F000506D781C1C14766E5B4630700100010255
:1002000004081020408001020408102001020408A4
:10021000102000000000250028002B000404040426
:1002200004040404020202020202030303030303A0
:100230007E175D2311241FBECFEFD8E0DEBFCDBFF8
:1002400011E0A0E0B1E0E0EEFEE402C005900D9206
:10025000A03CB107D9F724E0A0ECB1E001C01D92A9
:10026000A538B207E1F711E0C9E1D1E004C0219758
:10027000FE010E941626C831D107C9F70E94C61890
:100280000C9463270C94000091E09093C903809331
:10029000EB031092CA031092EC0308950895089599
:1002A0008530A8F4262F2052330BF901E256FE4F79
:1002B000E491A82FB0E0AA0FBB1FA85CBB4F30E8A9
:1002C000439FA0011124E42BF0E0ED93FC930895EB
:1002D00080916204909163048230910538F0880F18
:1002E000991F880F991F05970197F1F708954F926D
:1002F0005F926F927F928F929F92AF92BF92FF9286
:1003000020916604309167048217930708F043C078
:100310002B0166247724852E962EA72EBB24B82D7C
:10032000A42F20916C04F42C222391F0E22FF0E012
:10033000E49DD001E59DB00DF49DB00D1124FB2E80
:10034000289D40011124B92D249F90011124A32F31
:10035000E091720420916D0430916E0450916F040D
:10036000E51323C0FC01EE0FFF1F8E0F9F1F820FAE
:10037000931FE0916F04E80FF92FF11DF082E091D7
:100380007004E80FF92FF11DB08320917104820FE2
:10039000911DFC01A083FF90BF90AF909F908F9024
:1003A0007F906F905F904F900895880F991F880FEE
:1003B000991F820F931FE80FF92FF11D1082D9CFDB
:1003C000833081F028F4813099F08230A9F00895CB
:1003D0008730A9F08830C9F08430B1F48091800072
:1003E0008F7D03C0809180008F7780938000089577
:1003F00084B58F7784BD089584B58F7DFBCF8091C0
:10040000B0008F778093B00008958091B0008F7D09
:10041000F9CFCF93DF93282F30E0F901E657FE4F55
:100420008491F901E250FE4FD491F901E45EFD4F51
:10043000C491CC23A1F081110E94E001EC2FF0E0E7
:10044000EE0FFF1FE058FE4FA591B491EC91ED2304
:1004500081E090E009F480E0DF91CF91089580E0A1
:1004600090E0FACF1F93CF93DF93282F30E0F9016C
:10047000E657FE4F8491F901E250FE4FD491F90105
:10048000E45EFD4FC491CC23A9F0162F81110E9488
:10049000E001EC2FF0E0EE0FFF1FEE5EFD4FA591A7
:1004A000B4918FB7F894EC91111108C0D095DE2368
:1004B000DC938FBFDF91CF911F910895DE2BF8CF92
:1004C000CF93DF9390E0FC01E250FE4F2491845ED5
:1004D0009D4FFC0184918823C9F090E0880F991FFB
:1004E000FC01EA58FE4FA591B491FC01EE5EFD4F70
:1004F000C591D49161110DC09FB7F8948C9120954E
:1005000082238C938881282328839FBFDF91CF91FA
:100510000895623051F49FB7F8943C91822F8095F2
:1005200083238C93E8812E2BEFCF8FB7F894EC9137
:100530002E2B2C938FBFEACFCF93DF93CFE5D4E060
:1005400061E089810E9460020E94680160E0888108
:100550000E9460020E94680160E089810E9460023E
:10056000DF91CF910C9468010F931F93CF93DF938A
:10057000D82FC8E061E080915F040E9460020E9471
:1005800068010D2F10E060E0D0FF61E08091600411
:100590000E9460020E94680160E080915F040E94F6
:1005A00060020E94680115950795D02FC15011F780
:1005B00061E080915F040E94600260E080916004CD
:1005C0000E9460020E94680160E080915F040E94C6
:1005D00060020E946801809160040E940902C82F95
:1005E000811105C061E0809160040E9460020E9458
:1005F000680161E080915F040E9460020E946801CE
:1006000081E0C11101C080E0DF91CF911F910F9176
:10061000089561E0809160040E9460020C9468017A
:100620000F931F93CF93DF938C010E94090380E403
:100630000E94B4020E949C020E94090380EC0E9466
:10064000B402E8010C5F1F4F89910E94B402C017E9
:10065000D107D1F70E949C020E9409038091610496
:100660008F7080580E94B402DF91CF911F910F913B
:100670000C949C021F93CF93DF93182FEB0161E042
:100680000E946002209739F460E0812FDF91CF91C2
:100690001F910C943202CF3FD10511F461E0F5CFE8
:1006A000E12FF0E0E657FE4FE491E33031F140F402
:1006B000E130B1F0E230E1F0C038D1057CF7E4CFB1
:1006C000E73029F1E83059F1E430B1F7809180004A
:1006D000806280938000D0938B00C0938A0004C016
:1006E00084B5806884BDC7BDDF91CF911F91089507
:1006F00084B5806284BDC8BDF7CF809180008068DA
:1007000080938000D0938900C0938800EDCF8091C2
:10071000B00080688093B000C093B300E5CF8091B3
:10072000B00080628093B000C093B400DDCF3FB7CB
:10073000F8948091C3029091C402A091C502B09137
:10074000C60226B5A89B05C02F3F19F00196A11D32
:10075000B11D3FBFBA2FA92F982F8827BC01CD010B
:10076000620F711D811D911D42E0660F771F881F6A
:10077000991F4A95D1F708952FB7F8946091BF0259
:100780007091C0028091C1029091C2022FBF089562
:10079000AF92BF92CF92DF92EF92FF920F931F938F
:1007A000CF93DF936C017B018B01040F151FEB01CD
:1007B0005E01AE18BF08C017D10759F06991D60184
:1007C000ED91FC910190F081E02DC6010995892BF6
:1007D00079F7C501DF91CF911F910F91FF90EF90B5
:1007E000DF90CF90BF90AF90089520917302260FB5
:1007F0003327331F21323105ECF42091C303FC0170
:1008000090E080E0243069F082E00895A0917302C6
:100810002191AC014D5A5D4FA40FB52FB11D2C9302
:100820000196861798F380917302680F60937302A4
:1008300080E0089581E008951092C30381E08093E1
:10084000C20310929D0361E082E10E94320261E0E6
:1008500083E10E943202E9EBF0E080818E7F8083A9
:1008600080818D7F808388E48093B80085E48093C5
:10087000BC00089510929C0310929B031092CA032F
:100880001092EC030E941C048EE491E090939A0372
:10089000809399038FE491E090939803809397035A
:1008A0000895CF93DF9391E0909352028823B9F09B
:1008B000C091B800D091BA008091BC008A7B80932F
:1008C000BC0060E082E10E94320260E083E10E94AD
:1008D00032020E941C04D093BA00C093B800DF918A
:1008E000CF9108958F929F92AF92BF92CF92DF9255
:1008F000EF92FF920F931F93CF93DF93D091EC036E
:10090000D13208F0D7C0182FC091EB030E94970393
:100910006B017C018091C30381116BC082E08093E5
:10092000C3031093C2038FEF8093C1031092C003DF
:10093000D093BF03ABECB3E0EFE9F3E080E0D81372
:1009400091C010929E0380919E03CC0FC82BC09340
:100950009E0380919D03813009F088C010929D0311
:100960000E9497036B017C0180919E038093BB00E2
:100970008091C5039091C603A091C703B091C803AD
:10098000892B8A2B8B2BA1F00E9497030091C50322
:100990001091C6032091C7033091C8036C197D09DB
:1009A0008E099F09061717072807390708F442C060
:1009B0008091BC0083FDD8CF85EC8093BC000E9461
:1009C00097036B017C018091C303823009F450C00E
:1009D0008091C1038F3F09F46FC08091C1038032C1
:1009E00009F46CC08091C103803309F469C084E0CC
:1009F00026C08091C5039091C603A091C703B09112
:100A0000C803892B8A2B8B2B09F484CF0E94970370
:100A10008090C5039090C603A090C703B090C80310
:100A20006C197D098E099F0986169706A806B906D6
:100A300008F070CF8091C4030E94510485E01092A9
:100A4000CA031092EC031092C903DF91CF911F915A
:100A50000F91FF90EF90DF90CF90BF90AF909F905D
:100A60008F9008959D9191938F5F69CF85EEA5CF6B
:100A70008091C5039091C603A091C703B091C803AC
:100A8000892B8A2B8B2B09F49ECF0E949703009110
:100A9000C5031091C6032091C7033091C8036C1998
:100AA0007D098E099F09061717072807390708F0DF
:100AB0008ACFC0CF81E0C3CF80E0C1CF82E0BFCF7B
:100AC00083E0BDCFCF92DF92EF92FF920F931F93FF
:100AD000CF93DF93D82FC62F613208F098C00E94C1
:100AE00097036B017C018091C30381116BC081E08E
:100AF0008093C3038093C2039FEF9093C10310922E
:100B0000C0039C0F9093BF0380939E0380919E032C
:100B1000DD0FD82BD0939E0380919D03813009F087
:100B200078C010929D030E9497036B017C01809115
:100B30009E038093BB008091C5039091C603A09152
:100B4000C703B091C803892B8A2B8B2BA1F00E947D
:100B500097030091C5031091C6032091C7033091FC
:100B6000C8036C197D098E099F0906171707280706
:100B7000390708F448C08091BC0083FDD8CF85ECCC
:100B80008093BC000E9497036B017C018091C3039A
:100B9000813009F440C08091C0038C1710F4C091DB
:100BA000C003EFE9F3E0A7E7B3E080E08C1355C0A2
:100BB0008C2FDF91CF911F910F91FF90EF90DF90DD
:100BC000CF9008958091C5039091C603A091C7036B
:100BD000B091C803892B8A2B8B2B09F484CF0E94F8
:100BE00097030091C5031091C6032091C70330916C
:100BF000C8036C197D098E099F0906171707280776
:100C0000390708F070CF8091C4030E945104C0E0FE
:100C1000CFCF85EEB5CF8091C5039091C603A0914B
:100C2000C703B091C803892B8A2B8B2B09F4AECF55
:100C30000E9497030091C5031091C6032091C7033A
:100C40003091C8036C197D098E099F090617170793
:100C50002807390708F09ACFD6CF91919D938F5FDF
:100C6000A5CF0895E0919C0380919B03E81730F491
:100C7000F0E0E958FC4F808190E008958FEF9FEFFE
:100C8000089590919C0380919B032FEF3FEF98175D
:100C900048F4E92FF0E0E958FC4F208130E09F5FF5
:100CA00090939C03C901089580919B0390919C03AC
:100CB000891B990B0895CF92DF92EF92FF920F93C9
:100CC0001F93CF93DF937C01CB018A012091C9034D
:100CD000222389F0EB016B01C40ED51ECC15DD0576
:100CE00069F06991D701ED91FC910190F081E02DBF
:100CF000C7010995F3CF642F0E94F503C801DF9166
:100D0000CF911F910F91FF90EF90DF90CF900895BA
:100D1000CF93DF931F92CDB7DEB769832091C903CC
:100D20002223F9F02091EC03203258F021E030E04A
:100D3000FC013383228390E080E00F90DF91CF911C
:100D400008958091CA03E82FF0E0E553FC4F9981A4
:100D500090838F5F8093CA038093EC0381E090E0DF
:100D6000ECCF61E0CE0101960E94F503F7CF682F2A
:100D70008BE494E00C94880681E00C947204CF9389
:100D8000DF93C7E5D4E08A8388810E9444018E8185
:100D90009F81DC01ED91FC910190F081E02D6A8151
:100DA00009958E819F810E94BC0690E09D838C8373
:100DB000DF91CF910895CF93DF93EC0118820E94C9
:100DC0003A04888180620E94440180E00E94B70654
:100DD0008FEF0E94B7068BE494E00E94BC068881E6
:100DE00080620E94440181E00E94B7068FEF0E945A
:100DF000B7068BE494E0DF91CF910C94BC06CF93BF
:100E0000DF93D62FC72FFC01808180620E944401AE
:100E100082E10E94B7068D2F0E94B7068C2F0E9498
:100E2000B7068BE494E0DF91CF910C94BC06CF938E
:100E3000DF93EC018B81882371F088810E9444014B
:100E400089819A810E94BC0691E0811190E0892FEE
:100E5000DF91CF9108950E943A0481E08B83CE0107
:100E60000E941707982F8111E8CFF1CF9C01DC0178
:100E7000A058BF4FEC9191E09E0F9C93E20FF32F8F
:100E8000F11D608397FD1C920895FC01808180769E
:100E9000803611F4818108958081829586708E5FFD
:100EA0000895CF92DF92EF92FF920F931F93CF930B
:100EB000DF93EC0109E11EE2EE24E394F12C93E0D0
:100EC000D92ECC24C394CE010E9445078093E7021B
:100ED000E091E702E1501092E6028FEF9091E60276
:100EE0009E1768F4A091E602AC0FBD2FB11D9C9136
:100EF00089279091E6029F5F9093E602EFCFEC0F77
:100F0000FD2FF11D8083F8948091E502813059F422
:100F10008091E402811738F01092E50280916F0011
:100F20008D7F80936F0078948091E502813031F459
:100F30008091E402843138F2C12CC5CF8091E50262
:100F400081110EC0F89480916F008F7D80936F00A7
:100F5000B59B09C080916F00806280936F00789488
:100F6000C110B1CF56C0E091E202F091E30280815E
:100F70009091E102970101C0220F9A95EAF7822B26
:100F8000808380918400909185008A5A9C4F909331
:100F9000E0028093DF028091DF029091E002909363
:100FA0008900809388007894D093DE02C093DD029C
:100FB0001092E6021092DC0288818093DB02D092CC
:100FC000E5021092E402B19A80916F0082608093F2
:100FD0006F008091E5028330E1F38091DC02882389
:100FE000B1F0E091D902F091DA02E757FF4F80812A
:100FF000918101969183808383E090E0DF91CF918E
:101000001F910F91FF90EF90DF90CF900895809106
:10101000E5021B3108F01150015009F052CF8091C8
:1010200073039091740301969093740380937303F8
:1010300086E090E0E3CFCF93DF93CDB7DEB7609744
:101040000FB6F894DEBF0FBECDBF8BEB89838BE765
:101050008A831B82CE0101960E94510760960FB6CB
:10106000F894DEBF0FBECDBFDF91CF9108958A30D7
:10107000B8F429E0829FF0011124E45DFE4F8581E0
:101080009681803127E2920758F4883E23E0920748
:1010900048F48436910540F40A9740F481E00895BD
:1010A00085E0089584E0089583E0089582E008953E
:1010B0008091120121E087FF07C08EE00E940902A3
:1010C00021E0892B09F020E0822F0895089590E017
:1010D00080E00895EF92FF920F931F93CF93DF93D9
:1010E000DC0114962D913C912417350710F490E003
:1010F0001DC0EA017B018C01FC0180810E9444013A
:10110000D80111968D919C91DC01ED91FC910280AA
:10111000F381E02DAE01B7010995C817D90739F75A
:1011200081E00E94720491E08111E1CF892FDF916B
:10113000CF911F910F91FF90EF900895CF93DF9380
:10114000CDB7DEB761970FB6F894DEBF0FBECDBF47
:101150001982A8E3B4E0FE013196BF019C9111967B
:101160008C911197129691838283329684E0A834F1
:10117000B807A1F741E150E08091480490914904FB
:101180000E946A0861960FB6F894DEBF0FBECDBF0D
:10119000DF91CF9108950E94620510929C03809385
:1011A0009B030895FF920F931F93CF93DF938C01BE
:1011B000C62FDCE0683010F0C850DDE0F801808117
:1011C00080620E9444018D2F0E94B7068BE494E058
:1011D0000E94BC06F8018081806261E070E090E0CE
:1011E0000E94CB088BE494E00E944106F82EF8019F
:1011F000808180620E9444018D2F0E94B70681E0A9
:1012000090E001C0880FCA95EAF78F290E94B706BF
:101210008BE494E0DF91CF911F910F91FF900C949C
:10122000BC060F931F93CF93DF938C01C62FD2E19F
:10123000683010F0C850D3E1F801808180620E94CC
:1012400044018D2F0E94B7068BE494E00E94BC06F7
:10125000F8018081806261E070E090E00E94CB083C
:101260008BE494E00E944106992702C095958795EA
:10127000CA95E2F78170DF91CF911F910F91089588
:10128000FF920F931F93CF93DF931F92CDB7DEB7DB
:101290008C016983F42EF8014783608785E090E034
:1012A00095838483642FCE0101960E941109F80171
:1012B00016826F2DCE0101960E941109882319F024
:1012C00083E0F80186830E94BC03F8016083718388
:1012D000828393830F90DF91CF911F910F91FF90A5
:1012E0000895EF92FF920F931F93CF93DF938C019A
:1012F000C62FE42E84E1F82ED2E1683020F0C850E9
:1013000095E1F92ED3E1F801808180620E944401C9
:101310008F2D0E94B7068BE494E00E94BC06F80172
:101320008081806261E070E090E00E94CB088BE4F5
:1013300094E00E94410621E030E001C0220FCA95EE
:10134000EAF7F1E0C82FC22BEF1619F02095C22F53
:10135000C823F801808180620E9444018D2F0E9481
:10136000B7068C2F0E94B7068BE494E0DF91CF91F3
:101370001F910F91FF90EF900C94BC06FC01962FEB
:10138000828D8F3F31F0603140F4CF014B960C9449
:101390007109642F892F0C94320208950F931F93C3
:1013A000CF93DF93C62F8C01055E1F4FD1E062FB08
:1013B000442740F94D2768E0C8010E947109C1FB2C
:1013C000442740F94D2767E0C8010E9471094C2F5E
:1013D0004095417066E0C801DF91CF911F910F9158
:1013E0000C947109FF920F931F93CF93DF938C019D
:1013F000C62FF42ED0E0683010F0C850D1E0F801CC
:10140000808180620E9444018D2F0E94B7068BE488
:1014100094E00E94BC06F8018081806261E070E087
:1014200090E00E94CB088BE494E00E94410621E00A
:1014300030E001C0220FCA95EAF7C82FC22BFF2067
:1014400019F02095C22FC823F801808180620E9484
:1014500044018D2F0E94B7068C2F0E94B7068BE4A3
:1014600094E0DF91CF911F910F91FF900C94BC06F7
:10147000603110F40C94F2090895CF93DF93EC01DE
:1014800040E06E810E94BE0941E06E81CE010E9463
:10149000BE0940E06E81CE010E94BE098BE891E05A
:1014A0000197F1F7DF91CF910895AF92BF92CF925C
:1014B000DF92EF92FF920F931F93CF93DF93EC0194
:1014C0008A8D8E01095F1F4FC62ED12C8F3F09F4E4
:1014D00082C07E018BE1E80EF11C8B8D80620E9440
:1014E000440182E10E94B7068BE494E00E94BC06AE
:1014F0008B8D806262E070E090E00E94CB088BE40C
:1015000094E00E944106B82E8BE494E00E944106CC
:1015100060E0782FCB018B29F80130E020E001E07A
:1015200010E04191B801042E02C0660F771F0A94A3
:10153000E2F76095709586239723B601022E02C0CC
:10154000759567950A94E2F76170772702C0660F78
:10155000771F4A95E2F7862B972B2F5F3F4F24305A
:101560003105F9F62E81680102C0CC0CDD1C2A95EC
:10157000E2F7C094D094C822D922B601C7010E94D4
:10158000FF068E81B80102C0660F771F8A95E2F7C9
:10159000C62AD72AB601C7010E94FF068E81B8016C
:1015A00002C0660F771F8A95E2F7609570956C21EF
:1015B0007D21C7010E94FF068BE891E00197F1F7BA
:1015C000DF91CF911F910F91FF90EF90DF90CF901F
:1015D000BF90AF900895F12CE12C5E01EBE1AE0ECF
:1015E000B11CF80181918F019A8D9F3F39F141E043
:1015F000682FC5010E94380AA6010E2C02C055951D
:1016000047950A94E2F74170F80131976081CE0165
:101610000E94BE09FFEFEF1AFF0A84E0E816F1040A
:1016200001F7CE01DF91CF911F910F91FF90EF90C5
:10163000DF90CF90BF90AF900C943D0A61E00E9484
:101640006002DACFAF92BF92CF92DF92EF92FF9219
:101650000F931F93CF93DF93EC01F62E6C810E94C2
:10166000BE096D816F3F21F040E0CE010E94BE09AE
:101670000F2D10E08C8984FF3BC06E0187E0C80EFF
:10168000D11CF12CE12C5E01EBE1AE0EB11CF60198
:1016900081916F019A8D9F3F39F141E0682FC5011B
:1016A0000E94380AA8010E2C02C0559547950A944D
:1016B000E2F74170F60131976081CE010E94BE09C8
:1016C000FFEFEF1AFF0A88E0E816F10401F7CE01F8
:1016D000DF91CF911F910F91FF90EF90DF90CF900E
:1016E000BF90AF900C943D0A61E00E946002DACF97
:1016F000B80184E0759567958A95E1F7CE010E945F
:10170000550A6F2DCE01DF91CF911F910F91FF9060
:10171000EF90DF90CF90BF90AF900C94550A41E0CE
:101720000E94220B81E090E0089541E0682F8EEE48
:1017300093E00E94220B81E090E008950F931F93A5
:10174000CF93DF938C01D0E0C0E0F801EC0FFD1FD8
:101750006491662339F041E08EEE93E00E94220B03
:101760002196F3CFCE01DF91CF911F910F91089574
:1017700040E00C94220BCF93DF93CDB7DEB72897D0
:101780000FB6F894DEBF0FBECDBF98E0EAE1F1E0FE
:10179000DE01119601900D929A95E1F79091060461
:1017A000961708F46FEF262F30E0220F331F41E029
:1017B00050E04C0F5D1F240F351FF9016081680F49
:1017C00060688EEE93E028960FB6F894DEBF0FBEE9
:1017D000CDBFDF91CF910C94B80B61E00E94B80BA4
:1017E0008BE39FE10197F1F708958EEE93E00E945D
:1017F000ED0B60E080E00E94BB0B84E890E00E946B
:101800009E0B82ED8093A40208958EEE93E00E94D9
:10181000ED0B60E080E00E94BB0B80E890E00E944E
:101820009E0B88EC8093A40208958EEE93E00E94B4
:10183000ED0B60E080E00E94BB0B80E790E00E942F
:101840009E0B82E08093A40208958EEE93E00E94A6
:10185000ED0B60E080E00E94BB0B88E690E00E9408
:101860009E0B81E08093A40208953F924F925F9275
:101870006F927F928F929F92AF92BF92CF92DF92A0
:10188000EF92FF920F931F93CF93DF9391E090938A
:10189000B602E0919702F09198023196F093980287
:1018A000E09397028093BC020093C101811101C0B3
:1018B00090E09093BD02011104C09091100193FF3C
:1018C000A8C0882309F4A5C0D22F042F362E0E9469
:1018D000BC036093B2027093B3028093B4029093FE
:1018E000B5028091B702D81709F48DC0809110011C
:1018F0009091110180729927D0FD04C0892B21F0AD
:1019000082E003C0892BE1F381E08093AF028091F4
:10191000B102882329F08091AF028C6F0E94BF062C
:1019200080919602882309F46EC06D2F70E084E6E2
:10193000089F600D711D1124072E000C880B990B58
:101940000E9498242B013C0120E030E040E05FE35E
:101950000E9484230E9467246B017C01812C912CBE
:1019600030E8A32E3FE3B32E10E080E1C81687E2F3
:10197000D806E104F104E0F0115020E030E040E24C
:1019800051E4C501B4010E94F5234B015C01AC0197
:101990009B01C301B2010E94482520E030E040E0F5
:1019A0005FE30E9484230E9467246B017C01DDCFEA
:1019B00020E030E040E85FE3C501B4010E94F0237D
:1019C000712CC4E02AE0822E912CA12CB12C87FF2F
:1019D00032C080E490E0909339048093380490936F
:1019E0003B0480933A0490933F0480933E04909389
:1019F00041048093400482E090E090933D04809302
:101A00003C040E949E080093B802D093B702309223
:101A1000C001DF91CF911F910F91FF90EF90DF9068
:101A2000CF90BF90AF909F908F907F906F905F907E
:101A30004F903F900895C114D104E104F10411F4D2
:101A4000171588F1112319F0442443941711412CE0
:101A50005C2EC1506C2E84E0851558F0C701B6018C
:101A6000A50194010E94D525605D442D852D0E941D
:101A70005001C23069F4CEEFC50D84E0861540F008
:101A8000E62DF0E0EE0FFF1FE85CFB4F11821082A5
:101A9000C701B601A50194010E94D52569017A010B
:101AA0007394C9CFC150C7FDA6CFC530DCF7EC2F6A
:101AB000F0E0EE0FFF1FE85CFB4F11821082F2CFC7
:101AC0000F93082F2091D00223548091D20298E9DD
:101AD000980F883618F468E10E94B525492F609167
:101AE000D3028091CD020E94350C0F9108950F937F
:101AF000AC018091BC02882371F12091AB0230913E
:101B0000AC022E5833404217530728F55093AC02CD
:101B10004093AB029091100193FF1DC02091B7023A
:101B200091E0920F9093B7029C3358F09091B802D5
:101B30002B532093B70221E0290F283170F4209312
:101B4000B8020091C1012091B7024091B8026091A2
:101B5000C0010E94350C0F91089597519093B802DF
:101B6000F0CF0F931F93CF93DF938C0180916D047F
:101B700090916E040E94B8269091720480916F0437
:101B8000981721F184E090E0809FE001819FD00DC3
:101B9000909FD00D1124D0936904C0936804CE01A6
:101BA0000E941C2690936E0480936D04009789F028
:101BB000AE0170E060E00E94532710936704009329
:101BC0006604DF91CF911F910F91089583E090E01B
:101BD000DBCF10926904109268041092670410928F
:101BE0006604EFCF8F929F92AF92BF920F931F9395
:101BF000CF93DF93CDB7DEB7A1970FB6F894DEBFD2
:101C00000FBECDBF19A2423008F44AE08E010F5D2D
:101C10001F4F842E912CB12CA12CA50194010E9460
:101C2000D525E62FB901CA01EA3044F5E05DD801B7
:101C3000EE938D01232B242B252B79F790E080E068
:101C4000109769F0FD0101900020E9F73197AF018D
:101C50004A1B5B0BBD018EEE93E00E94C803A19668
:101C60000FB6F894DEBF0FBECDBFDF91CF911F91AD
:101C70000F91BF90AF909F908F900895E95CD7CF60
:101C8000CF93DF93EC016530D8F0C03187E2D807FD
:101C900050F480E30E94950BC83E83E0D80718F407
:101CA00080E30E94950BC436D10518F480E30E94AE
:101CB000950BCA30D10550F480E30E94950B06C005
:101CC000643051F3633079F3623099F3BE0190E0F0
:101CD00080E04AE0DF91CF910C94F20DFF920F93D8
:101CE0001F93CF93DF9361E080E00E94BB0BF090E5
:101CF000B602C091BD021091BC02CC2309F459C0B8
:101D00000C2F123008F053C0113009F04FC0DC2FF7
:101D100000E085ED90E00E949E0B83ED90E00111C4
:101D200002C081ED90E00E949E0B8FEC90E0D111FB
:101D300002C08DEC90E00E949E0B61E084E00E9466
:101D4000BB0B89EC90E0C11102C085EC90E00E94D1
:101D50009E0B61E088E00E94BB0B83EC90E0F110E9
:101D600002C081EC90E00E949E0B61E08AE00E943C
:101D7000BB0B8EEB90E00E949E0B62E0812F90E007
:101D80000E94400E61E08FE00E94BB0B0E94580849
:101D9000882349F08CEB90E0DF91CF911F910F9158
:101DA000FF900C949E0B8AEB90E0F6CF00E0D0E021
:101DB000B0CF87ED90E00E949E0BD0E0B2CFEF92C3
:101DC000FF920F931F93CF93DF93CDB7DEB7649746
:101DD0000FB6F894DEBF0FBECDBF082FF92E60916D
:101DE00003046D7F6093030468608EEE93E00E94AD
:101DF000B80B8EEE93E00E94ED0B60E080E00E9455
:101E0000BB0B88E391E00E949E0B60E083E00E94A0
:101E1000BB0BE090A4021DEE1E0D1A3018F480E2F8
:101E20000E94950B612F70E090E080E04AE00E94F4
:101E3000F20D1CEE1E0D60E086E00E94BB0B8CE2F2
:101E400091E09A83898384E291E09C838B838AE189
:101E500091E09E838D8381E191E098878F8388E074
:101E600091E09A8789878FEF90E09C878B8787EF37
:101E700090E09E878D8781EF90E0988B8F8786EE2C
:101E800090E09A8B898B8DED90E09C8B8B8B89ED0C
:101E900090E01A3040F4E12FF0E0EE0FFF1FEC0F5E
:101EA000FD1F818192810E949E0B61E080E00E9473
:101EB000BB0B8091A302882319F08EE30E94950B3F
:101EC0001A30A0F589E0189FF0011124E45DFE4F5F
:101ED0008781823059F507FD03C080E30E94950B8E
:101EE0000034E0F480E30E94950B0032B8F480E304
:101EF0000E94950B003190F480E30E94950B08300E
:101F000068F480E30E94950B043040F480E30E9463
:101F1000950B023018F480E30E94950B602F70E05F
:101F200090E080E042E00E94F20D08C0812F0E9404
:101F30003708682F802F9F2D0E94400E8091A302AA
:101F4000811144C01A3048F489E0189FF00111242F
:101F5000E45DFE4F80858823D9F161E08EE00E9428
:101F6000BB0B85E391E064960FB6F894DEBF0FBE1D
:101F7000CDBFDF91CF911F910F91FF90EF900C9407
:101F80009E0B89E0189FF0011124E45DFE4F8085CF
:101F900081111EC061E08091A0020E94BB0B609184
:101FA0000304862F8260809303046A608EEE93E0C0
:101FB00064960FB6F894DEBF0FBECDBFDF91CF9110
:101FC0001F910F91FF90EF900C94B80B1A30C8F24C
:101FD00064960FB6F894DEBF0FBECDBFDF91CF91F0
:101FE0001F910F91FF90EF9008958EEE93E00E9465
:101FF000ED0B60E080E00E94BB0B81EA90E00E9464
:102000009E0B61E080E00E94BB0B88E990E00E949B
:102010009E0B60910C0170910D0190E080E04AE010
:102020000C94F20D0F931F93CF93DF930E943A0409
:1020300080E20E9444018BE494E00E94BC0681117E
:102040002AC18091A602811108C187E394E00E9411
:10205000DB06809108048F3F09F457C00E943A04C0
:1020600089E094E00E94DB0641E068E089E094E0CA
:102070000E94F20941E066E089E094E00E94F209E2
:1020800041E067E089E094E00E94F20967E08EEEAB
:1020900093E00E94CE096091F303662329F041E0AA
:1020A00089E094E00E94380A41E06091F20389E0FF
:1020B00094E00E94380A41E06091F40389E094E0E2
:1020C0000E94380A05EF13E0CEEED3E0F8016191EB
:1020D0008F0141E089E094E00E94380AF3E0093F73
:1020E0001F07A1F703EF13E040E06F8589E094E05C
:1020F0000E94380A6F85603120F489E094E00E94E4
:10210000D20821960C171D0779F780910204886088
:102110008093020482E080930604109207048BE30C
:102120009DE00197F1F740E06091F2038EEE93E0BD
:102130000E94BE0940E06091F4038EEE93E00E949D
:10214000BE096091F3036F3F29F040E08EEE93E00B
:102150000E94BE096091020464FD81C063E08EEEBE
:1021600093E00E94550ACBE4D6E4CE010197F1F743
:1021700063E08EEE93E00E94550A2197F1F763E049
:102180008EEE93E00E94550A83E592E00197F1F705
:1021900062E08EEE93E00E94550A60910204606254
:1021A0008EEE93E00E94B80B84E0809303046CE011
:1021B0008EEE93E00E94B80B8EEE93E00E94ED0B42
:1021C00082E08093040466E08EEE93E00E94B80BF8
:1021D00040E065E087E394E00E94F20965E087E370
:1021E00094E00E94D20844E050E0609137048AE015
:1021F00094E00E94400943E050E0609137048CE194
:1022000094E00E94400942E050E06091370485E28A
:1022100094E00E94400941E050E06091370483E17E
:1022200094E00E94400950E040E0609137048EE263
:1022300094E00E94400980910E0190910F01429715
:1022400011F40E94F50F1092A5021092A4021092B0
:10225000A2021092A1021092A30281E01DC060624E
:102260008EEE93E00E94B80B8BE496E40197F1F7B1
:102270006091020460628EEE93E00E94B80B83E5E9
:1022800092E00197F1F76091020460628EEE93E0B4
:102290000E94B80B82CF80E08093A602DF91CF919D
:1022A0001F910F9108951F93CF93DF93C091A102C7
:1022B000D091A2022196D093A202C093A10261E024
:1022C00080E00E94BB0BC038D10538F08EE890E06A
:1022D000DF91CF911F910C949E0BC091A102D091E0
:1022E000A2028C2F0E9444018BE494E00E94BC0661
:1022F000182F882311F08430D1F485E990E00E94F2
:102300009E0BDD27C031D10518F480E30E94950BA8
:10231000BE0190E080E040E10E94F20D80E21430C6
:1023200009F48FE3DF91CF911F910C94950B2196C7
:10233000D093A202C093A102C6CFFC01019000205D
:10234000E9F73197AF01481B590BBC018EEE93E0C2
:102350000C94C803CF93DF9361E080E00E94BB0B35
:102360008091B602811106C086EB90E0DF91CF919B
:102370000C949E0BD091BC02C091C10164E080918D
:102380009702909198020E94400E84EB90E00E9488
:102390009E0B81EB90E00E949E0B62E08D2F90E0FF
:1023A0000E94400E8DE20E94950B80E3C11181E3F3
:1023B0000E94950B8DE20E94950B8091B70280FDE3
:1023C00006C08AEB91E0DF91CF910C949D1188EBD0
:1023D00091E0F9CF85ED8093BC008091C503909189
:1023E000C603A091C703B091C8030796A11DB11DF4
:1023F00023E0B695A795979587952A95D1F72091D3
:10240000BC0024FD03C01092C30308954091C5038E
:102410005091C6036091C7037091C803452B462BAA
:10242000472B69F30097A105B10541F02AE22A95EF
:10243000F1F700C00197A109B109E1CF8091C40370
:102440000C9451042F923F924F925F926F927F9221
:102450008F929F92AF92BF92CF92DF92EF92FF92B4
:102460000F931F93CF93DF9300D000D0CDB7DEB78B
:102470009C838B837C0141E8E40EF11C6C0150E8E5
:10248000C50ED11C8C010E571F4F8D579F4F2C012D
:102490008B819C818C579F4F4C0122242A94AB80C6
:1024A000BC8097E8A90EB11CEB81FC81EB57FF4F74
:1024B000FA83E983F7018081F6019081891709F495
:1024C000BAC0EB81FC81E80FF11D308037FE6DC092
:1024D000F8019081891739F0F501208131812F5F52
:1024E0003F4F31832083F8018083F2012082832DC6
:1024F0008076F401803609F441C0832D8295867080
:102500008E5F8083F8012081F4018081820F9927FA
:10251000991F813891059CF180E8682E621AF89421
:10252000F6014081F8018081841708F044C0F42F3F
:10253000F81B8F2FF60180837894F801608146178D
:10254000E8F5712C50E06B817C81CB01860D971DE5
:102550000E944127F80160814B815C81460F511D2B
:10256000BA01A3018B819C810E944127F7018081E0
:10257000F8019081891BF7018083F8011082F7012F
:1025800090819F5F9083F8018081392F381B97FFDE
:1025900002C0F7011082F2012081F40190819317AB
:1025A000A9F03226F201308285CFF40180818111B9
:1025B000E6CF3082A7CF862D840FBCCF461B50E0DC
:1025C0008B819C81860F911DBC01CCCF32122AC019
:1025D0004B815C81480F511DCA01E981FA8140811C
:1025E00051814F5F5F4F51834083F7013081F80184
:1025F00030830097B1F20F900F900F900F90DF9102
:10260000CF911F910F91FF90EF90DF90CF90BF90EF
:10261000AF909F908F907F906F905F904F903F9082
:102620002F900895F5018081918101969183808397
:1026300090E080E0DACF90E080E0DDCF6F927F9293
:102640008F929F92AF92BF92CF92DF92EF92FF92C2
:102650000F931F93CF93DF93E091AD02F091AE0201
:10266000D581D3709780868073806280A82EE8948D
:10267000A7F887FD9AC0D061B62EE894B7F867FD39
:10268000D860C42EE894C7F811E147FF10E1D22EBC
:10269000E894D7F827FD1260F02EE894F7F807FDCC
:1026A00014600E2D0F77E7FC1860C92DC82588E04F
:1026B000C827C725C625C027CF25CD25CC25CB25A6
:1026C000CA25CD27C12765EE82EC91E00E9436072E
:1026D00060E182EC91E00E943607662D82EC91E089
:1026E0000E943607672D82EC91E00E94360762E077
:1026F00082EC91E00E9436076D2F82EC91E00E94FF
:102700003607682D82EC91E00E943607692D82EC35
:1027100091E00E9436076A2D82EC91E00E94360714
:102720006B2D82EC91E00E943607612F82EC91E0E4
:102730000E9436076C2D82EC91E00E9436076D2DC9
:1027400082EC91E00E9436076F2D82EC91E00E94AE
:102750003607602F82EC91E00E9436076C2F6F776E
:1027600082EC91E00E9436076FEF82EC91E00E94CC
:10277000360782EC91E00E9422129093AE02809381
:10278000AD02009711F00E94510781E0DF91CF91D7
:102790001F910F91FF90EF90DF90CF90BF90AF907F
:1027A0009F908F907F906F900895D46165CF0F9325
:1027B0001F93CF93DF93E82FF0E099E0899FD0013A
:1027C0001124A45DBE4F15962D913C912617370715
:1027D000C0F08B01C82FEE0FFF1FE050FF4F718339
:1027E0006083CF5FCC0FD0E0612FCE010E947523B4
:1027F000602FCE010196DF91CF911F910F910C9424
:102800007523DF91CF911F910F9108958A3010F4B5
:102810000C94D7130895CF93DF936DE490E080E09C
:102820000E9475236AE581E090E00E947523CCE266
:10283000D1E069817A8188810E940614299681E01D
:10284000C638D807B1F7DF91CF9108951F920F9244
:102850000FB60F9211242F933F938F939F93AF93B3
:10286000BF938091BF029091C002A091C102B0912C
:10287000C2023091BE0223E0230F2D3758F5019696
:10288000A11DB11D2093BE028093BF029093C00290
:10289000A093C102B093C2028091C3029091C4027E
:1028A000A091C502B091C6020196A11DB11D8093F1
:1028B000C3029093C402A093C502B093C602BF9115
:1028C000AF919F918F913F912F910F900FBE0F90DD
:1028D0001F90189526E8230F0296A11DB11DD2CF97
:1028E0001F920F920FB60F9211242F933F934F9385
:1028F0005F936F937F938F939F93AF93BF93EF9368
:10290000FF938091B900887F803609F44AC0F0F5C2
:10291000883209F4A7C018F5803109F49BC0B8F4D7
:10292000882309F4F9C0883009F494C0FF91EF912D
:10293000BF91AF919F918F917F916F915F914F91D7
:102940003F912F910F900FBE0F901F9018958831D7
:1029500009F488C0803251F78093C10314C08034D9
:1029600009F49DC040F48033B9F38833F9F68093BD
:10297000C10385ECB0C0803509F485C0883509F401
:1029800096C0883499F60E94EA11D0CF883909F4AC
:102990008CC038F5883729F050F4883611F080372C
:1029A00029F683E08093C3031092950257C08838BC
:1029B00009F47BC0803919F0803809F0B7CF8091D5
:1029C0009502803208F071C0E091950281E08E0F8F
:1029D000809395028091BB00F0E0EB58FD4F80831F
:1029E0003DC0803B39F0E0F4803A09F479C0883A80
:1029F00009F09CCF84E08093C3031092740210927C
:102A00007302E0919903F0919A0309958091730202
:102A100081110FC081E0809373021092530209C0AC
:102A2000803C09F4A6CF883C09F4A3CF883B09F089
:102A30007DCFE091740281E08E0F80937402F0E00C
:102A4000ED5AFD4F80818093BB009091740280917C
:102A5000730229C080919E038093BB0085EC809314
:102A6000BC0064CF9091C0038091BF03981758F5C4
:102A7000E091C00381E08E0F8093C003F0E0E15647
:102A8000FC4F8081E9CFE091C00381E08E0F8093FD
:102A9000C0038091BB00F0E0E156FC4F8083909131
:102AA000C0038091BF039817C8F285E8D8CFE091A2
:102AB000C00381E08E0F8093C0038091BB00F0E0E3
:102AC000E156FC4F80838091C20381115CCF81E08D
:102AD00080939D0384EA8093BC001092C30326CFA9
:102AE00085EC8093BC001092C303809195028032E4
:102AF00030F4E0919502F0E0EB58FD4F10826091C8
:102B0000950270E0E0919703F091980385E792E0D9
:102B10000995109295020ACF1092C10334CF1F92EB
:102B20000F920FB60F921124DF92EF92FF920F9344
:102B30001F932F933F934F935F936F937F938F9345
:102B40009F93AF93BF93CF93DF93EF93FF93B19A8C
:102B50008091DF029091E00280549C4F9093E002BC
:102B60008093DF028091DF029091E00290938900D0
:102B70008093880080915102882371F01092510255
:102B8000189B26C081E08093E502B59A80916F0082
:102B9000806280936F001CC08091E4028F5F8093FD
:102BA000E4028091E502843009F043C08091E402A0
:102BB000893030F58091DB0290E095958795809380
:102BC000DB02189B05C08091DB0280688093DB02EA
:102BD000FF91EF91DF91CF91BF91AF919F918F9135
:102BE0007F916F915F914F913F912F911F910F9125
:102BF000FF90EF90DF900F900FBE0F901F901895F1
:102C0000B59A80916F00806280936F008091D902A5
:102C10009091DA02189929C0FC01E957FF4F808191
:102C200091810196918380831092E40281E08093E8
:102C3000E5028091E5028330E9F5E091E202F0914E
:102C4000E30280812091E10233B190E0022E02C0C4
:102C5000959587950A94E2F7832780FD11C010921D
:102C6000E40282E08093E50225C06091DB020E94CD
:102C7000360780E090E0892BB9F20E940000D4CFA3
:102C80008091E402893008F043C03091DB0281E09A
:102C900090E001C0880F2A95EAF7908130FF36C096
:102CA0008095892380838091DB0290E095958795BC
:102CB0008093DB028091E502823099F48091E402F6
:102CC00081118EC0E091E202F091E3028081909147
:102CD000E10221E030E001C0220F9A95EAF7822B51
:102CE00080838091E502813009F072CF8091E40207
:102CF000882309F44ACF8091E402883308F468CF2E
:102D00001092E50280916F008D7F43CF892BCACF4F
:102D10008091E402893059F4308181E090E001C073
:102D2000880F2A95EAF7809583238083C3CF80910B
:102D3000E6028F5F8093E6029091E702891750F5D3
:102D40001092E4028091DD029091DE02A091E602F1
:102D5000A80FB92FB11D8C918093DB02808141E0D7
:102D600050E001C0440F2A95EAF7842B80838091BC
:102D70008400909185008A5A9C4F9093E002809342
:102D8000DF028091DF029091E002909389008093AE
:102D9000880090CF81E08093DC020091DD021091E9
:102DA000DE02E090D902F090DA02C8010E944507E5
:102DB000D82ED0E0C0E0CD1548F4F801EC0FFD1F8F
:102DC0006081C7010E9436072196F5CF80E090E030
:102DD000892B11F00E9400001092E40281E042CFA2
:102DE0008091E4028F3008F47CCFE091E202F09110
:102DF000E30220813091E10281E090E001C0880F80
:102E00003A95EAF78095822380831092E40281E06C
:102E10008093E502E091D902F091DA02E357FF4F87
:102E2000808191810196918380835BCF1F920F9265
:102E30000FB60F9211248F939F93EF93FF93B59A40
:102E4000EFE6F0E080818F7D808380918600909115
:102E5000870080529E4F9093E0028093DF02809122
:102E6000DF029091E0029093890080938800B19AEC
:102E700080818260808384E08093E5021092E40286
:102E800081E080935102FF91EF919F918F910F907C
:102E90000FBE0F901F9018958A3028F529E0829F69
:102EA000F0011124E45DFE4F85819681803127E297
:102EB0009207C8F4883E23E09207B8F4843691055F
:102EC000B0F40A97B0F481E09091A002891B990BAD
:102ED0008530910580F4880F991FFC01EE5DFE4F4F
:102EE00080819181089585E0EFCF84E0EDCF83E08C
:102EF000EBCF82E0E9CF90E080E00895CF9310928D
:102F00004E0410924D0488EE93E0A0E0B0E0809370
:102F10004F0490935004A0935104B09352048EE94F
:102F200091E090934C0480934B0486E080937A0464
:102F300080E880937B0488E080937C0410927D0479
:102F400010927E0410927F041092800461E086E06B
:102F50000E9460020E94BC0360937D0470937E0413
:102F600080937F04909380041092650410926C0407
:102F700010926E0410926D041092730410927404F7
:102F8000109275041092760481E08093720480930D
:102F90006F041092700492E0909371048093640423
:102FA00088E090E00E94B10D80916504882349F08B
:102FB00080916A0490916B0497FD03C060E00E94C9
:102FC00060028AE090E090936B0480936A048091A1
:102FD0006504882341F061E08AE00E94600260E0BD
:102FE0008AE00E943202E6E2F2E0E491F0E0EE0FC5
:102FF000FF1FEE5EFD4F859194919093780480932E
:103000007704E8E0F2E0E491E0937904C4E0C0934F
:103010005F0485E08093600484E690E0909363040D
:103020008093620460E084E00E94600260E080912E
:1030300060040E94600260E080915F040E9432029E
:1030400060E0809160040E9432028DE38093570417
:103050008BE494E090935E0480935D041092580496
:103060008FEF8093590480935A0410925C0410925D
:103070005B04109249041092480410924A04109282
:10308000F1031092F00310920804109202048FE0F2
:103090008093F2038EE08093F3038DE08093F4033A
:1030A0008CE08093F5038BE08093F6038AE08093B5
:1030B000F70389E08093F8031092FD0381E0809389
:1030C000FE0382E08093FF0383E080930004C093BB
:1030D000010480EB91E09093EF038093EE03109254
:1030E0000A0410920B0410920C0410920D048AE052
:1030F00090E090930F0480930E04109210041092AD
:1031000011041092130410921404109215041092DA
:1031100016049093180480931704109219041092C7
:103120001A0410921C0410921D0410921E04109296
:103130001F04909321048093200410922204109283
:103140002304109225041092260410922704109252
:10315000280490932A048093290410922B0410923F
:103160002C0410922E0410922F041092300410920E
:1031700031049093330480933204109234041092FB
:1031800035048DE18093ED03CF910895CF93DF93C4
:10319000CDB7DEB76D970FB6F894DEBF0FBECDBFCB
:1031A000789484B5826084BD84B5816084BD85B522
:1031B000826085BD85B5816085BD80916E0081602E
:1031C00080936E00109281008091810082608093D4
:1031D00081008091810081608093810080918000D6
:1031E0008160809380008091B10084608093B10001
:1031F0008091B00081608093B00080917A008460FB
:1032000080937A0080917A00826080937A00809126
:103210007A00816080937A0080917A008068809340
:103220007A001092C10080E0E82E81E0F82E92E052
:10323000C92ED12CC6010E946D23182FC6010196FC
:103240000E946D23212F30E0322F2227820F932FEF
:10325000911DD7018D939D937D01B2E0CB0ED11CC2
:10326000E6E1CE16D10431F780910C0190910D0169
:10327000039728F463E070E086E00E94D713809102
:103280000E0190910F01429711F00E940B140E94C1
:103290001210E8EEF2E08FE8DF011D928A95E9F75F
:1032A00061E087E00E946002E5E0F2E02491E3E261
:1032B000F2E0E491F0E0EE0FFF1FEE5EFD4F45916E
:1032C000549180E091E031E0291741F08F5F932F16
:1032D000082E01C0990F0A94EAF7F6CF5093E30243
:1032E0004093E2028093E10288EE92E09093DA024A
:1032F0008093D9022098E091E202F091E3022081CC
:103300003091E10281E090E001C0880F3A95EAF740
:103310008095822380831092800011E010938100B9
:103320001092E502B59A80916F00806280936F00E1
:1033300080918100887F8160809381001092C80213
:103340001092C70284E08093C9020E941B08109269
:10335000BC0210929802109297021092B202109240
:10336000B3021092B4021092B5021092BD020E94F4
:103370003A048DE30E9444018BE494E00E94BC0671
:10338000811102C01093B10280E70E9444018BE4D6
:1033900094E00E94BC06811175C081E08093960282
:1033A0008091480490914904009711F00E94B8263A
:1033B00086E090E00E941C268C0180E7F801808363
:1033C0008BE494E092838183138280E290E0958382
:1033D000848310934904009348040E943A0481E0D6
:1033E000D80113968C93C8010E941707882309F40B
:1033F00049C081E2898B41E050E0BE016F5E7F4FA2
:1034000080914804909149040E946A0810923904FE
:103410001092380410923B0410923A0410923D042A
:1034200010923C0410923F0410923E04109241040A
:1034300010924004109243041092420410924504EA
:103440001092440410924704109246040E949E0871
:1034500081E8898341E050E0BE016F5F7F4F80913A
:103460004804909149040E946A088FEE898341E0E4
:1034700050E0BE016F5F7F4F8091480490914904F6
:103480000E946A0880910201909103019093BA0210
:103490008093B9020E94B10D80916A0490916B04EF
:1034A00097FD08C061E00E94600260E080916A04BC
:1034B0000E94320281E08093650462E08EE00E9407
:1034C000600288248A94982CA12CB12CFE01339799
:1034D000FB8FEA8F9E012B5F3F4F3D8F2C8F222465
:1034E0002394312C0E94BC0300917D0410917E0432
:1034F00020917F0430918004601B710B820B930B31
:10350000653171058105910500F10E94BC0360934E
:103510007D0470937E0480937F0490938004609177
:103520007B0480917C04613C20F0819580937C0435
:1035300002C06032D0F380917C04680F60937B04FA
:1035400070E080917A040E943A030E94BC030091CB
:103550009C0210919D0220919E0230919F02601B5F
:10356000710B820B930B6E3771058105910528F164
:103570000E94BC0360939C0270939D0280939E0204
:1035800090939F0290919B0281E0982790939B02D9
:10359000992399F09091BB0298279093BB029923AD
:1035A00061F090919A02982790939A02992329F0BA
:1035B000909199028927809399020E94121080911C
:1035C000A6028130E1F565E087E394E00E941109ED
:1035D00030E2839FC00111248095909561E085FDC4
:1035E00060E08EEE93E00E94CE09EDEFEE2EE3E078
:1035F000FE2E10E000E0FFE1DF2EC02ED7016D911E
:103600007D0180E0603120F489E094E00E9411099E
:1036100090E002C0880F991FCA94E2F780959095B8
:10362000D8220F5F1F4F0530110539F78091A50291
:10363000D11069C0882309F4B3C01092A50288EEA6
:1036400092E00E942212FC019093AE028093AD02A0
:10365000892B09F403C582819091100194FFDFC288
:103660008B3709F0DFC280818F3E29F4828586FD89
:1036700002C0806482878081877F873E09F0D2C242
:10368000858140E8849F900111248481820F932FCB
:10369000911D0FEF1FE3D801A81BB90BB093AC022B
:1036A000A093AB02828586FF13C68091C7029091DA
:1036B000C802181619060CF0B5C28EE0AAECB2E0EA
:1036C00001900D928A95E1F781E00E94600D809152
:1036D000C90282FF11C08091CF02B0E88B9F900198
:1036E00011248091CE02820F932F911DF801E81BC7
:1036F000F90BCF010E94770D82E090E09093C80211
:103700008093C7028FC2D81609F44AC08091A402E0
:10371000D092A502811105C0D2FE91CF0E94250C46
:103720008ECF8130F1F4D3FE05C00E94F50F1092C8
:10373000A40285CFD2FE03C00E94150C80CFD1FE1B
:103740002FC08EEE93E00E94ED0B60E080E00E94BF
:10375000BB0B8FE691E00E949E0B0E94AA118AE0AB
:103760004EC08230C9F4D3FCD9CFD1FE03C00E9431
:10377000050C65CFD2FE63CF87E08093A4028EEE66
:1037800093E00E94ED0B60E080E00E94BB0B85E6B9
:1037900091E00E949E0B53CF8730E1F4D3FCCCCF55
:1037A0008091A402873009F018C261E080E00E9495
:1037B000BB0B8091B602882309F40BC28091B8023A
:1037C0001091B702873108F416C28CEB91E00E9489
:1037D0009D1115C28A30B1F4D4FCA0CFD1FEE0CF48
:1037E0008EEE93E00E94ED0B60E080E00E94BB0B48
:1037F00086E591E00E949E0B0E946E0E8BE0809306
:10380000A4021DCF8B3069F4D4FECACF8EEE93E0B4
:103810000E94ED0B60E080E00E94BB0B8FE491E022
:103820009ACF843108F4B9C19091ED03981708F448
:10383000A1C11CEE180FD0FE51C00091A3020023BD
:1038400009F4FDCE6091A1027091A202E12EF12C4B
:103850001630E9F4672BA9F40E940B14F701EE0F60
:10386000FF1FE050FF4F808191810E94DF0E61E0D9
:103870008AE00E94BB0B002309F406C788E491E0AC
:1038800005C763E070E086E00E94D713E7CF89E0C8
:103890008E9DF0018F9DF00D1124E45DFE4F80851B
:1038A000238134816217730708F4E3C625813681CA
:1038B0002617370708F4DDC68111DBC6812F0E9469
:1038C00006141A3058F28FEF9FEF0E94DF0E61E06E
:1038D0008AE00E94BB0BD2CF00E0C0CFD4FE0EC066
:1038E0008091A302882309F442CF1092A302E12F12
:1038F0001A3008F4C3C08FEF9FEFC7C0D1FE57C086
:103900008091A30281111FC01A30E8F4E12FF0E08A
:1039100029E0129FD0011124A45DBE4F18968C910E
:10392000811111C0EE0FFF1FE050FF4F8081918188
:103930009093A2028093A10221E02093A30210920F
:10394000A0020E94DF0E8091A302882309F477CEA3
:103950000091A0020F5F0093A0021A3048F439E0F2
:10396000139FF0011124E45DFE4F8781823061F0E6
:10397000812F0E94370890E001960817190631F44C
:1039800081E08093A00202C00930D1F361E0809110
:10399000A0020E94BB0B60910304862F826080937B
:1039A00003046A608EEE93E00E94B80B48CED3FE0B
:1039B0006FC02091A302222309F453C0E090A1021A
:1039C000F090A2028FEF9FEF1A30F0F5C12ED12CAC
:1039D00049E0149FF0011124E45DFE4F078102309D
:1039E00080F4812F0E944C178E0D9F1D9093A20290
:1039F0008093A1028E159F0520F4F092A202E0921E
:103A0000A1022091A1023091A202023099F480918A
:103A1000A002A8E0B0E0A81BB109F10102C0EE0FBE
:103A2000FF1FAA95E2F7CF01822B932B9093A2025E
:103A30008093A10289E08C9DF0018D9DF00D1124F1
:103A4000E45DFE4F858196812091A1023091A20212
:103A50008217930708F07FC0F092A202E092A102C1
:103A60007AC08F5F8093A402891710F09093A4020C
:103A7000E091A402E451EA3008F03DCFF0E0EE0F0F
:103A8000FF1FE050FF4F808191810E94DF0ED7CD54
:103A9000D2FE05C69091A302992309F461C0E0907B
:103AA000A102F090A20290E080E01A3008F041C03C
:103AB000C12ED12C29E0129FF0011124E45DFE4FAC
:103AC0000781023088F4812F0E944C17A701481B00
:103AD000590B5093A2024093A102E416F50620F47C
:103AE000F092A202E092A1022091A1023091A202E2
:103AF0000230A9F48091A002A8E0B0E0A81BB109AF
:103B0000F10102C0EE0FFF1FAA95E2F7CF018095E9
:103B10009095822393239093A2028093A10289E03F
:103B20008C9DF0018D9DF00D1124E45DFE4F83818D
:103B300094812091A1023091A2022817390720F424
:103B4000F092A202E092A1028091A1029091A202C1
:103B5000019609F481CF8091A1029091A20295CFA4
:103B600081508093A402833109F082CF84E1809355
:103B7000A4027ECF883C89F4D2FE03C00E94F50BDC
:103B80005ECDD4FCD9CDD1FE5ACD84E18093A40280
:103B9000809100019091010178CF823D09F085C5A7
:103BA000D3FCE5CDD4FCC8CDD1FE49CD83ED8093C7
:103BB000A40260E088E00E94BB0B80E20E94950BAB
:103BC0002FEF3FEF3093A2022093A1020E945311E6
:103BD00036CD8BE391E00E949E0B8091A4028A3047
:103BE00011F40E94AA118091A4028B3009F027CD14
:103BF0000E946E0E24CD62E090E00E94400E8AE3A7
:103C00000E94950B1C3330F462E0812F90E00E94FB
:103C1000400EE3CF8CEB91E00E949D11DECF8B37FD
:103C200009F429CD0091AD021091AE02C8010E94A5
:103C30004507803109F012C2D8018C91853E09F008
:103C40000DC214968C911497823009F007C2169613
:103C50002C91169780910001909101012817190667
:103C600009F0E3C117962C91179780910E0190915E
:103C70000F012817190609F0D8C115968C911597D0
:103C800090E09C01E4E0220F331FEA95E1F72078F1
:103C900019966C901997E89467F8262930E0322F2E
:103CA000222745E0880F991F4A95E1F780781896FA
:103CB0006C90E89467F8682A620E732E711C630199
:103CC000B1E0CB1AD1085C2CE9E0EC1550F029E00A
:103CD000C29EF0011124E45DFE4F31E08781813006
:103CE00009F030E0D80113968C918130F1F5BAE0FB
:103CF000CB16D104D0F5F801828590E063856F770B
:103D0000AC015695542F442757954795262F240FDD
:103D1000332309F4E0C236E0880F991F3A95E1F7A2
:103D2000807864856F77862B682F70E0762F662702
:103D3000620F711D8C2D0E940614E091AD02F0916E
:103D4000AE02838180648383F9E04FEFF51530F094
:103D5000F601EE0FFF1FE050FF4F4081E12C00E025
:103D600020E060E0862D0E941E13E091AD02F091EC
:103D7000AE0283818230B9F42AE0C216D10498F4ED
:103D800082E4838339E04FEF351530F0F601EE0F12
:103D9000FF1FE050FF4F4081E12C00E020E060E099
:103DA000862D0E941E13E091AD02F091AE02838138
:103DB000833009F04BC04AE0C416D10408F046C075
:103DC000628570E0CB019695982F88279795879507
:103DD000992723852F77280F392F311D16E0660F7D
:103DE000771F1A95E1F76078772784858F77682B9E
:103DF00059E08FEF9FEF551538F0F601EE0FFF1FDA
:103E0000E050FF4F8081918126233723232B09F433
:103E100064C2682B792B8C2D0E940614E091AD02B0
:103E2000F091AE0283818064838389E04FEF851532
:103E300030F0F601EE0FFF1FE050FF4F4081E12C04
:103E400000E020E060E0862D0E941E13E091AD02AC
:103E5000F091AE028381853009F07FC09AE0C916E7
:103E6000D10408F07AC0828590E08C0126E0000F32
:103E7000111F2A95E1F7007864856F77062BBC0146
:103E800035E0660F771F3A95E1F7162F10786585B4
:103E90006F77162BBC0144E0660F771F4A95E1F758
:103EA000A62FA078EA2E66856F77E62A63856F775E
:103EB0009695982F882797958795680F70E08C2D99
:103EC0000E940614FF24F394FC0C602F70E08F2DE9
:103ED0000E94061402E00C0D612F70E0802F0E94FA
:103EE000061413E01C0D6E2D70E0812F0E94061445
:103EF000E091AD02F091AE02838180648383B9E0EA
:103F00004FEFB51530F0F601EE0FFF1FE050FF4FF9
:103F10004081E9E02FEFEF1538F0EF2DF0E0EE0FE4
:103F2000FF1FE050FF4F20810A3008F0DBC1E02F77
:103F3000F0E0EE0FFF1FE050FF4F0081EE24EA9407
:103F40001A3038F4E12FF0E0EE0FFF1FE050FF4F82
:103F5000E08060E0862D0E941E13E091AD02F0919A
:103F6000AE0283818630B1F52AE0C216D10490F505
:103F700086E4838339E04FEF351530F0F601EE0F1C
:103F8000FF1FE050FF4F4081E1E0EC0D2FEFEA30E2
:103F900030F4F0E0EE0FFF1FE050FF4F2081E2E031
:103FA000EC0D0FEFEA3030F4F0E0EE0FFF1FE050C1
:103FB000FF4F0081E3E0EC0DEE24EA94EA3030F4A8
:103FC000F0E0EE0FFF1FE050FF4FE08060E0862D35
:103FD0000E941E13E091AD02F091AE028381883001
:103FE00061F488E4838340910E01E42E0091000186
:103FF00020E06DE08AE30E941E13E091AD02F09193
:10400000AE0283818F3089F40E940B14E091AD02DF
:10401000F091AE02838180648383E12C00E020E094
:1040200040E0672D862D0E941E13E091AD02F091B5
:10403000AE028681811112C0878181110FC08381F8
:10404000873061F487E4838340910E01E42E009170
:10405000000120E06DE08AE30E941E130E94BC0371
:104060000091A7021091A8022091A9023091AA0202
:10407000AB01BC01401B510B620B730B4334510568
:104080006105710508F46BC0D901C8018D5B9F4FB4
:10409000AF4FBF4F8093A7029093A802A093A902AD
:1040A000B093AA028091C7029091C802029709F0CA
:1040B00043C08091CE029091CD02890F8093CE02B1
:1040C00087FF25C09091C9028F778093CE0280919F
:1040D000CF028F5F8093CF0287FF19C08DE6809358
:1040E000CE02892F817088588093CF028091D002B0
:1040F0008F5F8F3708F0F8C08093D00291FF08C11E
:104100008FEE8093CA028AEC92E00E945107809160
:10411000C90282FF11C02091CF0240E8249FC00154
:1041200011242091CE02280F392F311D8FEF9FE3EC
:10413000821B930B0E94770D8091C7029091C80259
:10414000892B69F48BEB89838BE78A831B82CE01F1
:1041500001960E9451073092C8022092C7028091B6
:10416000BD02882351F12091BC0240E6C42E4AEEE4
:10417000D42EE12CF12C222359F030E050E040E025
:1041800060E67AEE80E090E00E94D52569017A0130
:104190000E94BC030091B2021091B3022091B402BC
:1041A0003091B502601B710B820B930BC616D706BC
:1041B000E806F90610F40E941B088091B1028823DA
:1041C00009F4B8C061E0809157040E946205109222
:1041D0009C0380939B03813009F49EC082E890E0A9
:1041E00090935C0480935B048091580482FDA2C08C
:1041F0008091B002882309F4A0C06090B8021091A9
:10420000B7027090B602E090BD028091BC02EE2031
:1042100009F4A8C0FF24F394823008F4F12C01E0E3
:10422000813009F000E0C0900601D09007010E94A3
:104230005808811199C08091BB02811102C0D12C14
:10424000C12CB60189E00E943A0370E060E08BE087
:104250000E943A0370E060E083E00E943A0380919C
:10426000B9029091BA02892B09F49FC1809104018F
:1042700055245394580E20916C04521609F490C0A2
:10428000C0906D04D0906E04215070E060E059F051
:104290008F3F09F079C030E050E040E0C501B40143
:1042A0000E94F725B901F601409168045091690414
:1042B000CF018C199D098417950708F06FC04081C4
:1042C000469FC001479F900D112490833196ECCFFB
:1042D00083E090E013CA80E027CD60957095682355
:1042E000792399CD0FEF2ACE83E48093D002809179
:1042F000D2028F5F87FD03C08093D202FFCE88E693
:104300008093D2028091D3028F5F8093D302F6CE46
:1043100080E00E94600DFBCE80915D0490915E0470
:10432000DC01ED91FC910284F385E02D09958093E9
:1043300058045CCF1092B00260CF81E08093B0024D
:104340009091AF02913009F482E08093AF028091A6
:10435000B102882309F451CF8091AF028C6F0E9483
:10436000BF064BCFF12C5ECFB60189E00E943A0325
:1043700060910801709109018BE00E943A036091FD
:104380000A0170910B0168CF852D90E0982F882746
:104390000197622F70E00E94C12585CF50926C0476
:1043A000D12CC12C98E0592E8091B9029091BA027B
:1043B000C816D90608F0F9C00E94580881110DC02E
:1043C0004091BB02419550E070E060E0BA01552792
:1043D0004427C6010E94770109C071108DC0EE20EC
:1043E00009F4A7C0F110A5C00111A3C080916D040C
:1043F00090916E04892B09F47BC00E949703209151
:1044000073043091740440917504509176046217DE
:1044100073078407950740F46093730470937404E2
:104420008093750490937604209173043091740402
:104430004091750450917604621B730B840B950BAD
:104440006C32714081059105C0F2F8948091680446
:10445000909169049A8B898BE0916D04F0916E04C0
:10446000DF0111968081898F90916404E091770437
:10447000F091780480917904992309F45EC09081C9
:10448000982B988F9081809589238F8B8F898C8B27
:104490005B8A488D5F89698D3B892C8989899A89D6
:1044A000408367FD242F3A952083252F39F0661F1E
:1044B00000C000005083000000C0F2CF38E06D91D2
:1044C00050830000019761F7F0937804E09377043C
:1044D000698F3B8B2C8B9A8B898B78940E949703E6
:1044E00060937304709374048093750490937604BE
:1044F000EFEFCE1ADE0A58CF40E050E06FEF70E0E9
:10450000EE2009F466CF40E05FEF60E070E0F1106C
:1045100060CF002309F46ACF809112014FEF5FEF63
:104520006FEF70E080FD55CF4FEF50E060E070E03E
:1045300050CF40E050E0BA014CCF9081982B988F3B
:104540009081809589238F8B8F898E8B5D8A488D92
:104550005F89698D3D892E8989899A89408367FDA4
:10456000242F00C000C0208300C000C000C000C0D5
:1045700000C050830000252F3A9541F0661F0000CF
:1045800000C000C000C000C000C0E8CF38E06D919E
:1045900000C0508300C0019709F7F0937804E093BE
:1045A0007704698F3D8B2E8B96CF8091120181FF0E
:1045B00023C08FE08093610486E991E07720D1F0F9
:1045C0008091BD02882321F08091BB0240E08111DF
:1045D00040E4212F30E0F4E66F9E200D311D1124C0
:1045E0002115310599F419821A821B828FE38C837D
:1045F000CE0101960E94100380E090E0892B11F417
:104600000C94721A0E9400000C946F1A8E010F5FB6
:104610001F4FF801C9016AE070E00E94C1250097B0
:1046200011F521153105F9F41382C9016AE070E032
:104630000E94C1259B0131978A8D9B8DE817F90750
:1046400049F74423A9F2D8019D918D01FD013197CD
:10465000842F8078892B8083440FEC8DFD8DEA17A1
:10466000FB0789F7C5CF8A579E4FDC018C91838366
:10467000DCCF1A3008F430C98FEF9FEF0E94DF0EB5
:1046800061E08AE00E94BB0B81E491E00E949E0BF6
:1046900061E08091A0020E94BB0B0C941F1B883C20
:1046A00009F46FCA823D09F47DCA833D09F078C8D8
:1046B000D4FC64CAD2FE74C889CA80916D049091FA
:1046C0006E040E94B82680916A0490916B0497FD55
:1046D00003C060E00C9460020895F999FECF92BD8A
:1046E00081BDF89A992780B50895262FF999FECFB4
:1046F0001FBA92BD81BD20BD0FB6F894FA9AF99AFF
:104700000FBE019608955058BB27AA270E949B23ED
:104710000C940E250E94002538F00E94072520F0F9
:1047200039F49F3F19F426F40C94FD240EF4E0951F
:10473000E7FB0C94F724E92F0E941F2558F3BA17C2
:10474000620773078407950720F079F4A6F50C94A7
:1047500041250EF4E0950B2EBA2FA02D0B01B901C7
:1047600090010C01CA01A0011124FF27591B99F0E7
:10477000593F50F4503E68F11A16F040A22F232FF3
:10478000342F4427585FF3CF469537952795A79543
:10479000F0405395C9F77EF41F16BA0B620B730BEA
:1047A000840BBAF09150A1F0FF0FBB1F661F771F5B
:1047B000881FC2F70EC0BA0F621F731F841F48F410
:1047C000879577956795B795F7959E3F08F0B0CF99
:1047D0009395880F08F09927EE0F97958795089580
:1047E0000E94D32408F481E008950E9409240C94C7
:1047F0000E250E94072558F00E94002540F029F45C
:104800005F3F29F00C94F72451110C9442250C942D
:10481000FD240E941F2568F39923B1F3552391F3DA
:10482000951B550BBB27AA2762177307840738F01F
:104830009F5F5F4F220F331F441FAA1FA9F335D07C
:104840000E2E3AF0E0E832D091505040E695001C30
:10485000CAF72BD0FE2F29D0660F771F881FBB1FEA
:10486000261737074807AB07B0E809F0BB0B802DC8
:10487000BF01FF2793585F4F3AF09E3F510578F0F4
:104880000C94F7240C9442255F3FE4F3983ED4F354
:10489000869577956795B795F7959F5FC9F7880FC8
:1048A000911D9695879597F90895E1E0660F771F1A
:1048B000881FBB1F621773078407BA0720F0621BAB
:1048C000730B840BBA0BEE1F88F7E09508950E94D6
:1048D000272588F09F5798F0B92F9927B751B0F046
:1048E000E1F0660F771F881F991F1AF0BA95C9F774
:1048F00014C0B13091F00E944125B1E008950C94AC
:104900004125672F782F8827B85F39F0B93FCCF35E
:10491000869577956795B395D9F73EF490958095F0
:10492000709561957F4F8F4F9F4F0895E89409C010
:1049300097FB3EF490958095709561957F4F8F4FD2
:104940009F4F9923A9F0F92F96E9BB279395F695E8
:10495000879577956795B795F111F8CFFAF4BB0F66
:1049600011F460FF1BC06F5F7F4F8F4F9F4F16C0CA
:10497000882311F096E911C0772321F09EE8872F54
:10498000762F05C0662371F096E8862F70E060E010
:104990002AF09A95660F771F881FDAF7880F969589
:1049A000879597F90895990F0008550FAA0BE0E82D
:1049B000FEEF16161706E807F907C0F012161306E1
:1049C000E407F50798F0621B730B840B950B39F421
:1049D0000A2661F0232B242B252B21F408950A2687
:1049E00009F4A140A6958FEF811D811D089597F9C7
:1049F0009F6780E870E060E008959FEF80EC089585
:104A000000240A94161617061806090608950024AD
:104A10000A9412161306140605060895092E039427
:104A2000000C11F4882352F0BB0F40F4BF2B11F49B
:104A300060FF04C06F5F7F4F8F4F9F4F089557FDFA
:104A40009058440F551F59F05F3F71F04795880FFC
:104A500097FB991F61F09F3F79F087950895121693
:104A600013061406551FF2CF4695F1DF08C016163F
:104A700017061806991FF1CF8695710561050894F0
:104A80000895E894BB2766277727CB0197F9089507
:104A90000E945B250C940E250E94002538F00E9490
:104AA000072520F0952311F00C94F7240C94FD2495
:104AB00011240C9442250E941F2570F3959FC1F389
:104AC000950F50E0551F629FF001729FBB27F00DBC
:104AD000B11D639FAA27F00DB11DAA1F649F662711
:104AE000B00DA11D661F829F2227B00DA11D621F60
:104AF000739FB00DA11D621F839FA00D611D221F1A
:104B0000749F3327A00D611D231F849F600D211DFD
:104B1000822F762F6A2F11249F5750409AF0F1F080
:104B200088234AF0EE0FFF1FBB1F661F771F881FE9
:104B300091505040A9F79E3F510580F00C94F72406
:104B40000C9442255F3FE4F3983ED4F38695779525
:104B50006795B795F795E7959F5FC1F7FE2B880F8F
:104B6000911D9695879597F90895991B79E004C052
:104B7000991F961708F0961B881F7A95C9F780959C
:104B80000895AA1BBB1B51E107C0AA1FBB1FA61794
:104B9000B70710F0A61BB70B881F991F5A95A9F7E6
:104BA00080959095BC01CD010895A1E21A2EAA1B13
:104BB000BB1BFD010DC0AA1FBB1FEE1FFF1FA217CD
:104BC000B307E407F50720F0A21BB30BE40BF50BCA
:104BD000661F771F881F991F1A9469F76095709553
:104BE000809590959B01AC01BD01CF010895052EE4
:104BF00097FB1EF400940E940E2657FD07D00E94DA
:104C0000D52507FC03D04EF40C940E265095409504
:104C1000309521953F4F4F4F5F4F08959095809568
:104C2000709561957F4F8F4F9F4F0895EE0FFF1F37
:104C30000590F491E02D09940F931F93CF93DF9388
:104C40008230910510F482E090E0E0918304F091CD
:104C5000840430E020E0B0E0A0E0309799F4211522
:104C6000310509F44AC0281B390B24303105D8F529
:104C70008A819B816115710589F1FB019383828390
:104C8000FE0111C0408151810281138148175907EB
:104C9000E0F04817590799F4109761F012960C93B9
:104CA000129713961C933296CF01DF91CF911F91EB
:104CB0000F9108950093830410938404F4CF211579
:104CC000310551F04217530738F0A901DB019A0171
:104CD000BD01DF01F801C1CFEF01F9CF909384044A
:104CE00080938304CDCFFE01E20FF31F8193919354
:104CF0002250310939832883D7CF20918104309104
:104D00008204232B41F42091160130911701309336
:104D10008204209381042091140130911501211502
:104D2000310541F42DB73EB740911801509119015A
:104D3000241B350BE0918104F0918204E217F30704
:104D4000A0F42E1B3F0B2817390778F0AC014E5FFB
:104D50005F4F2417350748F04E0F5F1F50938204B2
:104D600040938104819391939FCFF0E0E0E09CCF4A
:104D7000CF93DF930097E9F0FC0132971382128200
:104D8000A0918304B0918404ED0130E020E01097FD
:104D9000A1F420813181820F931F209181043091F1
:104DA00082042817390709F061C0F0938204E09368
:104DB0008104DF91CF910895EA01CE17DF07E8F56E
:104DC0004A815B819E0141155105B1F7E901FB83E1
:104DD000EA8349915991C40FD51FEC17FD0761F47F
:104DE000808191810296840F951FE90199838883C0
:104DF000828193819B838A83F0E0E0E012968D911B
:104E00009C9113970097B9F52D913C911197CD0185
:104E10000296820F931F20918104309182042817FB
:104E2000390739F6309751F51092840410928304B3
:104E3000B0938204A0938104BCCFD383C28340810A
:104E40005181840F951FC817D90761F44E5F5F4FDA
:104E500088819981480F591F518340838A819B81A2
:104E6000938382832115310509F0B0CFF093840438
:104E7000E09383049ECFFD01DC01C0CF1382128238
:104E8000D7CF6817790768F4FB01DC01E40FF51F41
:104E9000A40FB51F02C002900E9241505040D8F7A7
:104EA00008950C945A27DC0101C06D934150504085
:104EB000E0F70895FB01DC0102C001900D92415022
:104EC0005040D8F7089511E0C9E1D1E004C0FE01D7
:104ED0000E9416262196CA31D107C9F7F894FFCF50
:104EE000FFFFFFFFFFFFFFFFFFFFFFFFFFFFFFFFD2
:104EF000FFFFFFFF00008504800000004000140059
:104F0000540001000A006400E803102700010001BA
:104F1000007E0000000108000100FF00000002FF09
:104F2000000000FF00000003FF000000FF00000081
:104F300004FF000000FF00000005FF000000FF006C
:104F4000000006030000000300000007120012002A
:104F5000120000010818000000FF00020009000014
:104F60000000FF0002003F065B4F666D7D077F6F0C
:104F7000777C395E7971404040400000000088062F
:104F80005B06670831065406410632060000000041
:104F90008F0BC803670866084F0045003F3F0000BD
:00000001FF
