:100000000C941A010C9442010C9442010C9442018C
:100010000C9442010C9442010C9442010C94420154
:100020000C9442010C9442010C94E6160C945F155A
:100030000C9442010C9442010C9442010C94420134
:100040000C94F6130C9442010C9442010C9442015E
:100050000C9442010C9442010C9442010C94420114
:100060000C9440140C9442015374617475733F00F6
:10007000496E626574726965626E61686D653F00A4
:1000800043563F004932432D5363616E3F0066651E
:10009000727469670030780056657273696F6E20FC
:1000A000004E6562656E7568722D53746174757368
:1000B00000313A002D002D2D2D002D002B00313A5E
:1000C000002D0054005374700052756E002D0042D4
:1000D000002D0047002D0052003F3F3F00436F6E50
:1000E000666967206C004366672046432D536C7633
:1000F0000053572D49440056657273696F6E004274
:100100002D42726967687400472D4272696768748E
:1001100000522D4272696768740057532D4272690C
:100120006768740057532D436F756E74004465768D
:10013000696365494400726F004356002D2D3A2DC6
:100140002D006661696C65640073746F726564008C
:1001500053746174757300446973706C61792D53C5
:1001600074617475730046617374436C6F636B00E4
:100170005374617475730000000000240027002A86
:100180000000000000250028002B000000000023D4
:1001900000260029000404040404040404020202EA
:1001A00002020203030303030301020408102040B8
:1001B0008001020408102001020408102000000041
:1001C0000800020100000304070000000000000016
:1001D000000086227E6DD24620290B2170104080BF
:1001E000523F065B4F666D7D077F6F090D61484387
:1001F000D35F777C395E79713D76301E753815375F
:100200003F736B336D783E3E2A766E5B39640F2305
:1002100008025F7C585E7B716F74100C753014544B
:100220005C7367506D781C1C14766E5B46307001F1
:1002300000004E1711241FBECFEFD8E0DEBFCDBFA8
:1002400011E0A0E0B1E0E8E4FEE402C005900D9208
:10025000A03CB107D9F724E0A0ECB1E001C01D92A9
:10026000AC36B207E1F711E0CAE1D1E004C0219752
:10027000FE010E94D525C931D107C9F70E94E517B3
:100280000C9422270C94000091E09093CB03809370
:10029000ED031092CC031092EE0308950895089593
:1002A0008530A8F4262F2052330BF901EF52FE4F70
:1002B000E491A82FB0E0AA0FBB1FA65CBB4F30E8AB
:1002C000439FA0011124E42BF0E0ED93FC930895EB
:1002D000833081F028F4813099F08230A9F00895BC
:1002E0008730A9F08830C9F08430B1F48091800063
:1002F0008F7D03C0809180008F7780938000089568
:1003000084B58F7784BD089584B58F7DFBCF8091B0
:10031000B0008F778093B00008958091B0008F7DFA
:10032000F9CFCF93DF93282F30E0F901E354FE4F4C
:100330008491F901E755FE4FD491F901EB56FE4F38
:10034000C491CC23A1F081110E946801EC2FF0E050
:10035000EE0FFF1FE557FE4FA591B491EC91ED23F1
:1003600081E090E009F480E0DF91CF91089580E092
:1003700090E0FACF1F93CF93DF93282F30E0F9015D
:10038000E354FE4F8491F901E755FE4FD491F901F2
:10039000EB56FE4FC491CC23A9F0162F81110E9479
:1003A0006801EC2FF0E0EE0FFF1FEF57FE4FA59115
:1003B000B4918FB7F894EC91111108C0D095DE2359
:1003C000DC938FBFDF91CF911F910895DE2BF8CF83
:1003D000CF93DF9390E0FC01E755FE4F24918B56BD
:1003E0009E4FFC0184918823C9F090E0880F991FEB
:1003F000FC01E958FE4FA591B491FC01EF57FE4F67
:10040000C591D49161110DC09FB7F8948C9120953E
:1004100082238C938881282328839FBFDF91CF91EB
:100420000895623051F49FB7F8943C91822F8095E3
:1004300083238C93E8812E2BEFCF8FB7F894EC9128
:100440002E2B2C938FBFEACF1F93CF93DF93182FC0
:10045000EB0161E00E94E801209739F460E0812F10
:10046000DF91CF911F910C94BA01CF3FD10511F4C8
:1004700061E0F5CFE12FF0E0E354FE4FE491E3308B
:1004800031F140F4E130B1F0E230E1F0C038D105B3
:100490007CF7E4CFE73029F1E83059F1E430B1F7E7
:1004A00080918000806280938000D0938B00C09305
:1004B0008A0004C084B5806884BDC7BDDF91CF9138
:1004C0001F91089584B5806284BDC8BDF7CF809127
:1004D0008000806880938000D0938900C09388005A
:1004E000EDCF8091B00080688093B000C093B300DE
:1004F000E5CF8091B00080628093B000C093B400DB
:10050000DDCF3FB7F8948091C5029091C602A091CB
:10051000C702B091C80226B5A89B05C02F3F19F0AD
:100520000196A11DB11D3FBFBA2FA92F982F882773
:10053000BC01CD01620F711D811D911D42E0660F4E
:10054000771F881F991F4A95D1F708952FB7F89400
:100550006091C1027091C2028091C3029091C40265
:100560002FBF0895AF92BF92CF92DF92EF92FF928A
:100570000F931F93CF93DF936C017B018B01040FCB
:10058000151FEB015E01AE18BF08C017D10759F067
:100590006991D601ED91FC910190F081E02DC601A9
:1005A0000995892B79F7C501DF91CF911F910F91A3
:1005B000FF90EF90DF90CF90BF90AF900895209183
:1005C0007302260F3327331F21323105ECF42091BB
:1005D000C503FC0190E080E0243069F082E00895DA
:1005E000A09173022191AC014D5A5D4FA40FB52F1C
:1005F000B11D2C930196861798F380917302680FB2
:100600006093730280E0089581E008951092C5031D
:1006100081E08093C40310929F0361E082E10E9415
:10062000BA0161E083E10E94BA01E9EBF0E0808168
:100630008E7F808380818D7F808388E48093B80063
:1006400085E48093BC00089510929E0310929D0350
:100650001092CC031092EE030E9406038EE491E008
:1006600090939C0380939B038FE491E090939A0373
:10067000809399030895CF93DF9391E09093520272
:100680008823B9F0C091B800D091BA008091BC0025
:100690008A7B8093BC0060E082E10E94BA0160E046
:1006A00083E10E94BA010E940603D093BA00C0936E
:1006B000B800DF91CF9108958F929F92AF92BF9231
:1006C000CF92DF92EF92FF920F931F93CF93DF931E
:1006D000D091EE03D13208F0D7C0182FC091ED03AE
:1006E0000E9481026B017C018091C50381116BC066
:1006F00082E08093C5031093C4038FEF8093C303FC
:100700001092C203D093C103ADECB3E0E1EAF3E091
:1007100080E0D81391C01092A0038091A003CC0F69
:10072000C82BC093A00380919F03813009F088C03B
:1007300010929F030E9481026B017C018091A003B3
:100740008093BB008091C7039091C803A091C90317
:10075000B091CA03892B8A2B8B2BA1F00E948102B6
:100760000091C7031091C8032091C9033091CA03B7
:100770006C197D098E099F09061717072807390785
:1007800008F442C08091BC0083FDD8CF85EC8093F3
:10079000BC000E9481026B017C018091C503823004
:1007A00009F450C08091C3038F3F09F46FC080915A
:1007B000C303803209F46CC08091C303803309F411
:1007C00069C084E026C08091C7039091C803A091BE
:1007D000C903B091CA03892B8A2B8B2B09F484CFD0
:1007E0000E9481028090C7039090C803A090C90323
:1007F000B090CA036C197D098E099F098616970669
:10080000A806B90608F070CF8091C6030E943B038A
:1008100085E01092CC031092EE031092CB03DF918F
:10082000CF911F910F91FF90EF90DF90CF90BF90ED
:10083000AF909F908F9008959D9191938F5F69CF16
:1008400085EEA5CF8091C7039091C803A091C903FD
:10085000B091CA03892B8A2B8B2B09F49ECF0E945F
:1008600081020091C7031091C8032091C903309100
:10087000CA036C197D098E099F09061717072807F7
:10088000390708F08ACFC0CF81E0C3CF80E0C1CF65
:1008900082E0BFCF83E0BDCFCF92DF92EF92FF9295
:1008A0000F931F93CF93DF93D82FC62F613208F099
:1008B00098C00E9481026B017C018091C503811167
:1008C0006BC081E08093C5038093C4039FEF909336
:1008D000C3031092C2039C0F9093C1038093A003A3
:1008E0008091A003DD0FD82BD093A00380919F03AC
:1008F000813009F078C010929F030E9481026B0141
:100900007C018091A0038093BB008091C7039091EC
:10091000C803A091C903B091CA03892B8A2B8B2BE2
:10092000A1F00E9481020091C7031091C803209199
:10093000C9033091CA036C197D098E099F090617F6
:1009400017072807390708F448C08091BC0083FDC9
:10095000D8CF85EC8093BC000E9481026B017C01A2
:100960008091C503813009F440C08091C2038C1787
:1009700010F4C091C203E1EAF3E0A9E7B3E080E03C
:100980008C1355C08C2FDF91CF911F910F91FF9049
:10099000EF90DF90CF9008958091C7039091C803A6
:1009A000A091C903B091CA03892B8A2B8B2B09F420
:1009B00084CF0E9481020091C7031091C803209147
:1009C000C9033091CA036C197D098E099F09061766
:1009D00017072807390708F070CF8091C6030E94D7
:1009E0003B03C0E0CFCF85EEB5CF8091C703909198
:1009F000C803A091C903B091CA03892B8A2B8B2B02
:100A000009F4AECF0E9481020091C7031091C80380
:100A10002091C9033091CA036C197D098E099F0981
:100A2000061717072807390708F09ACFD6CF9191F4
:100A30009D938F5FA5CF0895E0919E0380919D03C4
:100A4000E81730F4F0E0E758FC4F808190E008951B
:100A50008FEF9FEF089590919E0380919D032FEF5C
:100A60003FEF981748F4E92FF0E0E758FC4F20815A
:100A700030E09F5F90939E03C901089580919D038C
:100A800090919E03891B990B0895CF92DF92EF926C
:100A9000FF920F931F93CF93DF937C01CB018A01C9
:100AA0002091CB03222389F0EB016B01C40ED51EEC
:100AB000CC15DD0569F06991D701ED91FC910190AC
:100AC000F081E02DC7010995F3CF642F0E94DF026A
:100AD000C801DF91CF911F910F91FF90EF90DF90B0
:100AE000CF900895CF93DF931F92CDB7DEB7698380
:100AF0002091CB032223F9F02091EE03203258F00D
:100B000021E030E0FC013383228390E080E00F900D
:100B1000DF91CF9108958091CC03E82FF0E0E3536B
:100B2000FC4F998190838F5F8093CC038093EE0379
:100B300081E090E0ECCF61E0CE0101960E94DF02FF
:100B4000F7CF682F8DE494E00C94720581E00C944B
:100B50005C03CF93DF93C9E5D4E08A8388810E9448
:100B600044018E819F81DC01ED91FC910190F08127
:100B7000E02D6A8109958E819F810E94A60590E0F3
:100B80009D838C83DF91CF910895CF93DF93EC0108
:100B900018820E942403888180620E94440180E0C0
:100BA0000E94A1058FEF0E94A1058DE494E00E94B0
:100BB000A605888180620E94440181E00E94A1050F
:100BC0008FEF0E94A1058DE494E0DF91CF910C940A
:100BD000A605CF93DF93D62FC72FFC0180818062BB
:100BE0000E94440182E10E94A1058D2F0E94A1056F
:100BF0008C2F0E94A1058DE494E0DF91CF910C949D
:100C0000A605CF93DF93EC018B81882371F0888157
:100C10000E94440189819A810E94A60591E0811178
:100C200090E0892FDF91CF9108950E94240381E005
:100C30008B83CE010E940106982F8111E8CFF1CF5E
:100C4000FC01838194818230910538F0880F991FCF
:100C5000880F991F05970197F1F70895EF92FF927A
:100C60000F931F93CF93DF93EC01062F18E061E001
:100C700088810E94E801CE010E942006E02EF12C1E
:100C800060E000FF61E089810E94E801CE010E94DE
:100C9000200660E088810E94E801CE010E942006C3
:100CA000F594E7940E2D115011F761E088810E94B0
:100CB000E80160E089810E94E801CE010E942006DF
:100CC00060E088810E94E801CE010E9420068981AF
:100CD0000E949101182F811104C061E089810E9456
:100CE000E801CE010E94200661E088810E94E801AF
:100CF000CE010E94200681E0111101C080E0DF9149
:100D0000CF911F910F91FF90EF900895CF93DF93B4
:100D1000EC0161E089810E94E801CE010E94200679
:100D200060E088810E94E801CE010E94200660E018
:100D300089810E94E801CE01DF91CF910C942006B9
:100D4000CF93DF93EC0161E089810E94E801CE013D
:100D5000DF91CF910C942006EF92FF920F931F9397
:100D6000CF93DF93EC017B010E94A00660E4CE01EB
:100D70000E942E06CE010E948606CE010E94A00689
:100D800060ECCE010E942E06870184E0E80EF11C83
:100D9000F80161918F01CE010E942E060E151F05EC
:100DA000B9F7CE010E948606CE010E94A0066A8194
:100DB0006F706058CE010E942E06CE01DF91CF9158
:100DC0001F910F91FF90EF900C9486068F929F9247
:100DD000AF92BF92CF92DF92EF92FF92CF93DF93C9
:100DE000FC018281938168177907D8F54A01AA240A
:100DF000BB24C32ED42EE52EFF24DC2DC22F8085EC
:100E0000982D882391F0C82FD0E0C89DD001C99DAE
:100E1000B00DD89DB00D11249B2F8C9D6001112425
:100E2000DD2D829F90011124C32FA6852185328557
:100E30008385A81321C0AB01440F551F640F751F94
:100E4000620F731FA385A60FB72FB11D9C93A485B6
:100E5000A60FB72FB11DDC938585680F711DFB01AF
:100E6000C083DF91CF91FF90EF90DF90CF90BF9044
:100E7000AF909F908F900895660F771F660F771F32
:100E8000620F731FA60FB72FB11D1C92DBCF9C0101
:100E9000DC01A058BF4FEC9191E09E0F9C93E20FB4
:100EA000F32FF11D608397FD1C920895FC01808152
:100EB0008076803611F481810895808182958670D4
:100EC0008E5F0895CF92DF92EF92FF920F931F9360
:100ED000CF93DF93EC0109E11EE2EE24E394F12CC1
:100EE00093E0D92ECC24C394CE010E945607809360
:100EF000E902E091E902E1501092E8028FEF90914F
:100F0000E8029E1768F4A091E802AC0FBD2FB11D56
:100F10009C9189279091E8029F5F9093E802EFCF20
:100F2000EC0FFD2FF11D8083F8948091E702813052
:100F300059F48091E602811738F01092E70280910F
:100F40006F008D7F80936F0078948091E7028130ED
:100F500031F48091E602843138F2C12CC5CF809102
:100F6000E70281110EC0F89480916F008F7D80930D
:100F70006F00B59B09C080916F00806280936F0005
:100F80007894C110B1CF56C0E091E402F091E5022F
:100F900080819091E302970101C0220F9A95EAF7B0
:100FA000822B808380918400909185008A5A9C4F87
:100FB0009093E2028093E1028091E1029091E2023B
:100FC00090938900809388007894D093E002C09336
:100FD000DF021092E8021092DE0288818093DD0227
:100FE000D092E7021092E602B19A80916F0082607F
:100FF00080936F008091E7028330E1F38091DE02FD
:101000008823B1F0E091DB02F091DC02E757FF4F5B
:101010008081918101969183808383E090E0DF91CC
:10102000CF911F910F91FF90EF90DF90CF90089597
:101030008091E7021B3108F01150015009F052CFA6
:101040008091750390917603019690937603809337
:10105000750386E090E0E3CFCF93DF93CDB7DEB7A3
:1010600060970FB6F894DEBF0FBECDBF8BEB8983C0
:101070008BE78A831B82CE0101960E9462076096ED
:101080000FB6F894DEBF0FBECDBFDF91CF910895AC
:101090008A30B8F429E0829FF0011124E45DFE4F0C
:1010A00085819681803127E2920758F4883E23E0BB
:1010B000920748F48436910540F40A9740F481E0A1
:1010C000089585E0089584E0089583E0089582E01E
:1010D00008958091120121E087FF07C08EE00E94F1
:1010E000910121E0892B09F020E0822F08950895D5
:1010F00090E080E00895EF92FF920F931F93CF93BB
:10110000DF93DC0114962D913C912417350710F4E0
:1011100090E01DC0EA017B018C01FC0180810E94EE
:101120004401D80111968D919C91DC01ED91FC91C7
:101130000280F381E02DAE01B7010995C817D907E8
:1011400039F781E00E945C0391E08111E1CF892FA2
:10115000DF91CF911F910F91FF90EF900895CF9362
:10116000DF93CDB7DEB761970FB6F894DEBF0FBE41
:10117000CDBF1982AAE3B4E0FE013196BF019C9174
:1011800011968C911197129691838283329684E006
:10119000AA34B807A1F741E150E080914A04909148
:1011A0004B040E947B0861960FB6F894DEBF0FBE19
:1011B000CDBFDF91CF9108950E944C0410929E0301
:1011C00080939D030895FF920F931F93CF93DF9316
:1011D0008C01C62FDCE0683010F0C850DDE0F8016B
:1011E000808180620E9444018D2F0E94A1058DE4C0
:1011F00094E00E94A605F8018081806261E070E0C1
:1012000090E00E94DC088DE494E00E942B05F82E0B
:10121000F801808180620E9444018D2F0E94A10507
:1012200081E090E001C0880FCA95EAF78F290E94FB
:10123000A1058DE494E0DF91CF911F910F91FF9074
:101240000C94A6050F931F93CF93DF938C01C62FA9
:10125000D2E1683010F0C850D3E1F801808180629B
:101260000E9444018D2F0E94A1058DE494E00E940C
:10127000A605F8018081806261E070E090E00E9444
:10128000DC088DE494E00E942B05992702C0959517
:101290008795CA95E2F78170DF91CF911F910F91E9
:1012A0000895FF920F931F93CF93DF931F92CDB7B3
:1012B000DEB78C016983F42EF8014783608785E0EF
:1012C00090E095838483642FCE0101960E942209C9
:1012D000F80116826F2DCE0101960E942209882303
:1012E00019F083E0F80186830E94A602F80160836A
:1012F0007183828393830F90DF91CF911F910F9120
:10130000FF900895EF92FF920F931F93CF93DF9377
:101310008C01C62FE42E84E1F82ED2E1683020F053
:10132000C85095E1F92ED3E1F801808180620E94D6
:1013300044018F2D0E94A1058DE494E00E94A60532
:10134000F8018081806261E070E090E00E94DC083A
:101350008DE494E00E942B0521E030E001C0220FD3
:10136000CA95EAF7F1E0C82FC22BEF1619F02095C5
:10137000C22FC823F801808180620E9444018D2F12
:101380000E94A1058C2F0E94A1058DE494E0DF91BD
:10139000CF911F910F91FF90EF900C94A605FC0147
:1013A000962F828D8F3F31F0603140F4CF014B9604
:1013B0000C948209642F892F0C94BA0108950F931D
:1013C0001F93CF93DF93C62F8C01055E1F4FD1E093
:1013D00062FB442740F94D2768E0C8010E9482095A
:1013E000C1FB442740F94D2767E0C8010E948209EC
:1013F0004C2F4095417066E0C801DF91CF911F915D
:101400000F910C948209FF920F931F93CF93DF9358
:101410008C01C62FF42ED0E0683010F0C850D1E017
:10142000F801808180620E9444018D2F0E94A105F5
:101430008DE494E00E94A605F8018081806261E05D
:1014400070E090E00E94DC088DE494E00E942B059F
:1014500021E030E001C0220FCA95EAF7C82FC22B65
:10146000FF2019F02095C22FC823F80180818062E7
:101470000E9444018D2F0E94A1058C2F0E94A1057E
:101480008DE494E0DF91CF911F910F91FF900C9428
:10149000A605603110F40C94030A0895CF93DF93EE
:1014A000EC0140E06E810E94CF0941E06E81CE01E7
:1014B0000E94CF0940E06E81CE010E94CF098BE8E7
:1014C00091E00197F1F7DF91CF910895AF92BF922C
:1014D000CF92DF92EF92FF920F931F93CF93DF9300
:1014E000EC018A8D8E01095F1F4FC62ED12C8F3FD4
:1014F00009F482C07E018BE1E80EF11C8B8D8062C5
:101500000E94440182E10E94A1058DE494E00E94C2
:10151000A6058B8D806262E070E090E00E94DC089E
:101520008DE494E00E942B05B82E8DE494E00E9497
:101530002B0560E0782FCB018B29F80130E020E00B
:1015400001E010E04191B801042E02C0660F771F40
:101550000A94E2F76095709586239723B601022ED0
:1015600002C0759567950A94E2F76170772702C00B
:10157000660F771F4A95E2F7862B972B2F5F3F4F19
:1015800024303105F9F62E81680102C0CC0CDD1C37
:101590002A95E2F7C094D094C822D922B601C70197
:1015A0000E94E9058E81B80102C0660F771F8A95F7
:1015B000E2F7C62AD72AB601C7010E94E9058E8143
:1015C000B80102C0660F771F8A95E2F760957095A3
:1015D0006C217D21C7010E94E9058BE891E001970C
:1015E000F1F7DF91CF911F910F91FF90EF90DF9076
:1015F000CF90BF90AF900895F12CE12C5E01EBE10C
:10160000AE0EB11CF80181918F019A8D9F3F39F187
:1016100041E0682FC5010E94490AA6010E2C02C0B4
:10162000559547950A94E2F74170F801319760812A
:10163000CE010E94CF09FFEFEF1AFF0A84E0E816FF
:10164000F10401F7CE01DF91CF911F910F91FF902F
:10165000EF90DF90CF90BF90AF900C944E0A61E076
:101660000E94E801DACFAF92BF92CF92DF92EF9261
:10167000FF920F931F93CF93DF93EC01F62E6C81B3
:101680000E94CF096D816F3F21F040E0CE010E94A2
:10169000CF090F2D10E08C8984FF3BC06E0187E0DD
:1016A000C80ED11CF12CE12C5E01EBE1AE0EB11C99
:1016B000F60181916F019A8D9F3F39F141E0682FCA
:1016C000C5010E94490AA8010E2C02C055954795F4
:1016D0000A94E2F74170F60131976081CE010E94D1
:1016E000CF09FFEFEF1AFF0A88E0E816F10401F7CF
:1016F000CE01DF91CF911F910F91FF90EF90DF907E
:10170000CF90BF90AF900C944E0A61E00E94E80128
:10171000DACFB80184E0759567958A95E1F7CE0137
:101720000E94660A6F2DCE01DF91CF911F910F911C
:10173000FF90EF90DF90CF90BF90AF900C94660A2F
:1017400041E00E94330B81E090E0089541E0682F72
:1017500080EF93E00E94330B81E090E008950F93B7
:101760001F93CF93DF938C01D0E0C0E0F801EC0F22
:10177000FD1F6491662339F041E080EF93E00E9401
:10178000330B2196F3CFCE01DF91CF911F910F91B3
:10179000089540E00C94330BCF93DF93CDB7DEB7C1
:1017A00028970FB6F894DEBF0FBECDBF98E0EAE1F0
:1017B000F1E0DE01119601900D929A95E1F790917A
:1017C0000804961708F46FEF262F30E0220F331F1E
:1017D00041E050E04C0F5D1F240F351FF90160817F
:1017E000680F606880EF93E028960FB6F894DEBF2C
:1017F0000FBECDBFDF91CF910C94C90B61E00E9469
:10180000C90B8BE39FE10197F1F7089580EF93E017
:101810000E94FE0B60E080E00E94CC0B84E890E028
:101820000E94AF0B82ED8093A402089580EF93E0B5
:101830000E94FE0B60E080E00E94CC0B80E890E00C
:101840000E94AF0B88EC8093A402089580EF93E090
:101850000E94FE0B60E080E00E94CC0B80E790E0ED
:101860000E94AF0B82E08093A402089580EF93E082
:101870000E94FE0B60E080E00E94CC0B88E690E0C6
:101880000E94AF0B81E08093A40208953F924F9293
:101890005F926F927F928F929F92AF92BF92CF9200
:1018A000DF92EF92FF920F931F93CF93DF9391E01C
:1018B0009093B602E0919702F09198023196F093DE
:1018C0009802E09397028093BE020093C1018111B8
:1018D00001C090E09093BF02011104C090911001EB
:1018E00093FFA8C0882309F4A5C0D22F042F362E59
:1018F0000E94A6026093B2027093B3028093B40276
:101900009093B5028091B702D81709F48DC08091E9
:1019100010019091110180729927D0FD04C0892B8C
:1019200021F082E003C0892BE1F381E08093AF02D4
:101930008091B102882329F08091AF028C6F0E94C0
:10194000A90580919602882309F46EC06D2F70E07E
:1019500084E6089F600D711D1124072E000C880B72
:10196000990B0E9457242B013C0120E030E040E01D
:101970005FE30E9443230E9426246B017C01812C9B
:10198000912C30E8A32E3FE3B32E10E080E1C8167F
:1019900087E2D806E104F104E0F0115020E030E0E5
:1019A00040E251E4C501B4010E94B4234B015C0143
:1019B000AC019B01C301B2010E94072520E030E089
:1019C00040E05FE30E9443230E9426246B017C01D8
:1019D000DDCF20E030E040E85FE3C501B4010E94C4
:1019E000AF23712CC4E02AE0822E912CA12CB12CC3
:1019F00087FF32C080E490E090933B0480933A04E8
:101A000090933D0480933C04909341048093400460
:101A1000909343048093420482E090E090933F04CB
:101A200080933E040E94AF080093B802D093B7029F
:101A30003092C001DF91CF911F910F91FF90EF90F5
:101A4000DF90CF90BF90AF909F908F907F906F90DE
:101A50005F904F903F900895C114D104E104F104C8
:101A600011F4171588F1112319F044244394171128
:101A7000412C5C2EC1506C2E84E0851558F0C701B6
:101A8000B601A50194010E949425605D442D852D29
:101A90000E945001C23069F4CEEFC50D84E0861576
:101AA00040F0E62DF0E0EE0FFF1FE65CFB4F1182E9
:101AB0001082C701B601A50194010E949425690115
:101AC0007A017394C9CFC150C7FDA6CFC530DCF7EA
:101AD000EC2FF0E0EE0FFF1FE65CFB4F118210824F
:101AE000F2CF0F93082F2091D20223548091D40279
:101AF00098E9980F883618F468E10E947425492FF8
:101B00006091D5028091CF020E94460C0F910895FA
:101B10000F93AC018091BE02882371F12091AB023A
:101B20003091AC022E5833404217530728F550939A
:101B3000AC024093AB029091100193FF1DC0209125
:101B4000B70291E0920F9093B7029C3358F09091B6
:101B5000B8022B532093B70221E0290F283170F4EB
:101B60002093B8020091C1012091B7024091B802C0
:101B70006091C0010E94460C0F9108959751909377
:101B8000B802F0CF8F929F92AF92BF920F931F93A4
:101B9000CF93DF93CDB7DEB7A1970FB6F894DEBF32
:101BA0000FBECDBF19A2423008F44AE08E010F5D8E
:101BB0001F4F842E912CB12CA12CA50194010E94C1
:101BC0009425E62FB901CA01EA3044F5E05DD80159
:101BD000EE938D01232B242B252B79F790E080E0C9
:101BE000109769F0FD0101900020E9F73197AF01EE
:101BF0004A1B5B0BBD0180EF93E00E94B202A196ED
:101C00000FB6F894DEBF0FBECDBFDF91CF911F910D
:101C10000F91BF90AF909F908F900895E95CD7CFC0
:101C2000CF93DF93EC016530D8F0C03187E2D8075D
:101C300050F480E30E94A60BC83E83E0D80718F456
:101C400080E30E94A60BC436D10518F480E30E94FD
:101C5000A60BCA30D10550F480E30E94A60B06C043
:101C6000643051F3633079F3623099F3BE0190E050
:101C700080E04AE0DF91CF910C94C20DFF920F9368
:101C80001F93CF93DF9361E080E00E94CC0BF09034
:101C9000B602C091BF021091BE02CC2309F459C014
:101CA0000C2F123008F053C0113009F04FC0DC2F58
:101CB00000E085ED90E00E94AF0B83ED90E0011114
:101CC00002C081ED90E00E94AF0B8FEC90E0D1114B
:101CD00002C08DEC90E00E94AF0B61E084E00E94B6
:101CE000CC0B89EC90E0C11102C085EC90E00E9421
:101CF000AF0B61E088E00E94CC0B83EC90E0F11028
:101D000002C081EC90E00E94AF0B61E08AE00E948B
:101D1000CC0B8EEB90E00E94AF0B62E0812F90E045
:101D20000E94100E61E08FE00E94CC0B0E946908B7
:101D3000882349F08CEB90E0DF91CF911F910F91B8
:101D4000FF900C94AF0B8AEB90E0F6CF00E0D0E070
:101D5000B0CF87ED90E00E94AF0BD0E0B2CFEF9212
:101D6000FF920F931F93CF93DF93CDB7DEB76497A6
:101D70000FB6F894DEBF0FBECDBF082FF92E6091CD
:101D800005046D7F60930504686080EF93E00E9416
:101D9000C90B80EF93E00E94FE0B60E080E00E94A0
:101DA000CC0B89E391E00E94AF0B60E083E00E94DE
:101DB000CC0BE090A4021DEE1E0D1A3018F480E248
:101DC0000E94A60B612F70E090E080E04AE00E9444
:101DD000C20D1CEE1E0D60E086E00E94CC0B8DE271
:101DE00091E09A83898384E291E09C838B838AE1EA
:101DF00091E09E838D8381E191E098878F8388E0D5
:101E000091E09A8789878FEF90E09C878B8787EF97
:101E100090E09E878D8781EF90E0988B8F8786EE8C
:101E200090E09A8B898B8DED90E09C8B8B8B89ED6C
:101E300090E01A3040F4E12FF0E0EE0FFF1FEC0FBE
:101E4000FD1F818192810E94AF0B61E080E00E94C2
:101E5000CC0B8091A302882319F08EE30E94A60B7D
:101E60001A30A0F589E0189FF0011124E45DFE4FBF
:101E70008781823059F507FD03C080E30E94A60BDD
:101E80000034E0F480E30E94A60B0032B8F480E353
:101E90000E94A60B003190F480E30E94A60B08304C
:101EA00068F480E30E94A60B043040F480E30E94B3
:101EB000A60B023018F480E30E94A60B602F70E09E
:101EC00090E080E042E00E94C20D08C0812F0E9495
:101ED0004808682F802F9F2D0E94100E8091A3022A
:101EE000811144C01A3048F489E0189FF001112490
:101EF000E45DFE4F80858823D9F161E08EE00E9489
:101F0000CC0B86E391E064960FB6F894DEBF0FBE6B
:101F1000CDBFDF91CF911F910F91FF90EF900C9467
:101F2000AF0B89E0189FF0011124E45DFE4F80851E
:101F300081111EC061E08091A0020E94CC0B6091D3
:101F40000504862F8260809305046A6080EF93E029
:101F500064960FB6F894DEBF0FBECDBFDF91CF9170
:101F60001F910F91FF90EF900C94C90B1A30C8F29B
:101F700064960FB6F894DEBF0FBECDBFDF91CF9150
:101F80001F910F91FF90EF90089580EF93E00E94D2
:101F9000FE0B60E080E00E94CC0B81EA90E00E94A2
:101FA000AF0B61E080E00E94CC0B88E990E00E94DA
:101FB000AF0B60910C0170910D0190E080E04AE060
:101FC0000C94C20D0F931F93CF93DF930E942403B1
:101FD00080E20E9444018DE494E00E94A6058111F4
:101FE0002AC18091A602811108C189E394E00E9470
:101FF000C50580910A048F3F09F457C00E9424034D
:102000008BE094E00E94C50541E068E08BE094E03D
:102010000E94030A41E066E08BE094E00E94030A1C
:1020200041E067E08BE094E00E94030A67E080EF04
:1020300093E00E94DF096091F503662329F041E0F7
:102040008BE094E00E94490A41E06091F4038BE048
:1020500094E00E94490A41E06091F6038BE094E02D
:102060000E94490A07EF13E0C0EFD3E0F801619145
:102070008F0141E08BE094E00E94490AF3E00B3FBE
:102080001F07A1F705EF13E040E06F858BE094E0B8
:102090000E94490A6F85603120F48BE094E00E9431
:1020A000E30821960C171D0779F7809104048860D6
:1020B0008093040482E080930804109209048BE367
:1020C0009DE00197F1F740E06091F40380EF93E029
:1020D0000E94CF0940E06091F60380EF93E00E94F8
:1020E000CF096091F5036F3F29F040E080EF93E066
:1020F0000E94CF096091040464FD81C063E080EF19
:1021000093E00E94660ACBE4D6E4CE010197F1F792
:1021100063E080EF93E00E94660A2197F1F763E0A5
:1021200080EF93E00E94660A83E592E00197F1F761
:1021300062E080EF93E00E94660A609104046062AE
:1021400080EF93E00E94C90B84E0809305046CE06B
:1021500080EF93E00E94C90B80EF93E00E94FE0B9A
:1021600082E08093060466E080EF93E00E94C90B52
:1021700040E065E089E394E00E94030A65E089E3BA
:1021800094E00E94E30844E050E0609139048CE060
:1021900094E00E94510943E050E0609139048EE1DF
:1021A00094E00E94510942E050E06091390487E2D6
:1021B00094E00E94510941E050E06091390485E1CA
:1021C00094E00E94510950E040E06091390480E3BE
:1021D00094E00E94510980910E0190910F01429765
:1021E00011F40E94C50F1092A5021092A402109241
:1021F000A2021092A1021092A30281E01DC06062AF
:1022000080EF93E00E94C90B8BE496E40197F1F70D
:1022100060910404606280EF93E00E94C90B83E543
:1022200092E00197F1F760910404606280EF93E01F
:102230000E94C90B82CF80E08093A602DF91CF91EC
:102240001F910F9108951F93CF93DF93C091A10227
:10225000D091A2022196D093A202C093A10261E084
:1022600080E00E94CC0BC038D10538F08EE890E0B9
:10227000DF91CF911F910C94AF0BC091A102D0912F
:10228000A2028C2F0E9444018DE494E00E94A605D6
:10229000182F882311F08430D1F485E990E00E9452
:1022A000AF0BDD27C031D10518F480E30E94A60BE7
:1022B000BE0190E080E040E10E94C20D80E2143057
:1022C00009F48FE3DF91CF911F910C94A60B219617
:1022D000D093A202C093A102C6CFFC0101900020BE
:1022E000E9F73197AF01481B590BBC0180EF93E030
:1022F0000C94B202CF93DF9361E080E00E94CC0B9C
:102300008091B602811106C086EB90E0DF91CF91FB
:102310000C94AF0BD091BE02C091C10164E08091DA
:102320009702909198020E94100E84EB90E00E9418
:10233000AF0B81EB90E00E94AF0B62E08D2F90E03D
:102340000E94100E8DE20E94A60B80E3C11181E372
:102350000E94A60B8DE20E94A60B8091B70280FD21
:1023600006C08AEB91E0DF91CF910C946D1188EB60
:1023700091E0F9CF85ED8093BC008091C7039091E7
:10238000C803A091C903B091CA030796A11DB11D4E
:1023900023E0B695A795979587952A95D1F7209133
:1023A000BC0024FD03C01092C50308954091C703EB
:1023B0005091C8036091C9037091CA03452B462B05
:1023C000472B69F30097A105B10541F02AE22A9550
:1023D000F1F700C00197A109B109E1CF8091C603CF
:1023E0000C943B032F923F924F925F926F927F9299
:1023F0008F929F92AF92BF92CF92DF92EF92FF9215
:102400000F931F93CF93DF9300D000D0CDB7DEB7EB
:102410009C838B837C0141E8E40EF11C6C0150E845
:10242000C50ED11C8C010E571F4F8D579F4F2C018D
:102430008B819C818C579F4F4C0122242A94AB8026
:10244000BC8097E8A90EB11CEB81FC81EB57FF4FD4
:10245000FA83E983F7018081F6019081891709F4F5
:10246000BAC0EB81FC81E80FF11D308037FE6DC0F2
:10247000F8019081891739F0F501208131812F5FB2
:102480003F4F31832083F8018083F2012082832D26
:102490008076F401803609F441C0832D82958670E0
:1024A0008E5F8083F8012081F4018081820F99275B
:1024B000991F813891059CF180E8682E621AF89482
:1024C000F6014081F8018081841708F044C0F42FA0
:1024D000F81B8F2FF60180837894F80160814617EE
:1024E000E8F5712C50E06B817C81CB01860D971D46
:1024F0000E940027F80160814B815C81460F511DCD
:10250000BA01A3018B819C810E940027F701808181
:10251000F8019081891BF7018083F8011082F7018F
:1025200090819F5F9083F8018081392F381B97FF3E
:1025300002C0F7011082F2012081F401908193170B
:10254000A9F03226F201308285CFF4018081811119
:10255000E6CF3082A7CF862D840FBCCF461B50E03C
:102560008B819C81860F911DBC01CCCF32122AC079
:102570004B815C81480F511DCA01E981FA8140817C
:1025800051814F5F5F4F51834083F7013081F801E4
:1025900030830097B1F20F900F900F900F90DF9162
:1025A000CF911F910F91FF90EF90DF90CF90BF9050
:1025B000AF909F908F907F906F905F904F903F90E3
:1025C0002F900895F50180819181019691838083F8
:1025D00090E080E0DACF90E080E0DDCF6F927F92F4
:1025E0008F929F92AF92BF92CF92DF92EF92FF9223
:1025F0000F931F93CF93DF93E091AD02F091AE0262
:10260000D581D3709780868073806280A82EE894ED
:10261000A7F887FD9AC0D061B62EE894B7F867FD99
:10262000D860C42EE894C7F811E147FF10E1D22E1C
:10263000E894D7F827FD1260F02EE894F7F807FD2C
:1026400014600E2D0F77E7FC1860C92DC82588E0AF
:10265000C827C725C625C027CF25CD25CC25CB2506
:10266000CA25CD27C12765EE82EC91E00E9447077D
:1026700060E182EC91E00E944707662D82EC91E0D8
:102680000E944707672D82EC91E00E94470762E0B5
:1026900082EC91E00E9447076D2F82EC91E00E944E
:1026A0004707682D82EC91E00E944707692D82EC74
:1026B00091E00E9447076A2D82EC91E00E94470753
:1026C0006B2D82EC91E00E944707612F82EC91E034
:1026D0000E9447076C2D82EC91E00E9447076D2D08
:1026E00082EC91E00E9447076F2D82EC91E00E94FE
:1026F0004707602F82EC91E00E9447076C2F6F77AD
:1027000082EC91E00E9447076FEF82EC91E00E941B
:10271000470782EC91E00E94F2119093AE02809301
:10272000AD02009711F00E94620781E0DF91CF9126
:102730001F910F91FF90EF90DF90CF90BF90AF90DF
:102740009F908F907F906F900895D46165CF0F9385
:102750001F93CF93DF93E82FF0E099E0899FD0019A
:102760001124A45DBE4F15962D913C912617370775
:10277000C0F08B01C82FEE0FFF1FE050FF4F718399
:102780006083CF5FCC0FD0E0612FCE010E94342355
:10279000602FCE010196DF91CF911F910F910C9484
:1027A0003423DF91CF911F910F9108958A3010F457
:1027B0000C94A7130895CF93DF936DE490E080E02D
:1027C0000E9434236AE581E090E00E943423CCE249
:1027D000D1E069817A8188810E94D613299681E0AF
:1027E000C638D807B1F7DF91CF9108951F920F92A5
:1027F0000FB60F9211242F933F938F939F93AF9314
:10280000BF938091C1029091C202A091C302B09186
:10281000C4023091C00223E0230F2D3758F50196F2
:10282000A11DB11D2093C0028093C1029093C202EA
:10283000A093C302B093C4028091C5029091C602D6
:10284000A091C702B091C8020196A11DB11D80934D
:10285000C5029093C602A093C702B093C802BF916D
:10286000AF919F918F913F912F910F900FBE0F903D
:102870001F90189526E8230F0296A11DB11DD2CFF7
:102880001F920F920FB60F9211242F933F934F93E5
:102890005F936F937F938F939F93AF93BF93EF93C8
:1028A000FF938091B900887F803609F44AC0F0F523
:1028B000883209F4A7C018F5803109F49BC0B8F438
:1028C000882309F4F9C0883009F494C0FF91EF918E
:1028D000BF91AF919F918F917F916F915F914F9138
:1028E0003F912F910F900FBE0F901F901895883138
:1028F00009F488C0803251F78093C30314C0803438
:1029000009F49DC040F48033B9F38833F9F680931D
:10291000C30385ECB0C0803509F485C0883509F45F
:1029200096C0883499F60E94BA11D0CF883909F43C
:102930008CC038F5883729F050F4883611F080378C
:1029400029F683E08093C5031092950257C088381A
:1029500009F47BC0803919F0803809F0B7CF809135
:102960009502803208F071C0E091950281E08E0FEF
:10297000809395028091BB00F0E0EB58FD4F80837F
:102980003DC0803B39F0E0F4803A09F479C0883AE0
:1029900009F09CCF84E08093C503109274021092DA
:1029A0007302E0919B03F0919C030995809173025F
:1029B00081110FC081E0809373021092530209C00D
:1029C000803C09F4A6CF883C09F4A3CF883B09F0EA
:1029D0007DCFE091740281E08E0F80937402F0E06D
:1029E000ED5AFD4F80818093BB00909174028091DD
:1029F000730229C08091A0038093BB0085EC809373
:102A0000BC0064CF9091C2038091C103981758F520
:102A1000E091C20381E08E0F8093C203F0E0EF5596
:102A2000FC4F8081E9CFE091C20381E08E0F80935B
:102A3000C2038091BB00F0E0EF55FC4F8083909182
:102A4000C2038091C1039817C8F285E8D8CFE091FE
:102A5000C20381E08E0F8093C2038091BB00F0E03F
:102A6000EF55FC4F80838091C40381115CCF81E0DE
:102A700080939F0384EA8093BC001092C50326CF05
:102A800085EC8093BC001092C50380919502803242
:102A900030F4E0919502F0E0EB58FD4F1082609128
:102AA000950270E0E0919903F0919A0385E792E036
:102AB0000995109295020ACF1092C30334CF1F924A
:102AC0000F920FB60F921124DF92EF92FF920F93A5
:102AD0001F932F933F934F935F936F937F938F93A6
:102AE0009F93AF93BF93CF93DF93EF93FF93B19AED
:102AF0008091E1029091E20280549C4F9093E20217
:102B00008093E1028091E1029091E202909389002A
:102B10008093880080915102882371F010925102B5
:102B2000189B26C081E08093E702B59A80916F00E0
:102B3000806280936F001CC08091E6028F5F80935B
:102B4000E6028091E702843009F043C08091E602FA
:102B5000893030F58091DD0290E0959587958093DE
:102B6000DD02189B05C08091DD0280688093DD0244
:102B7000FF91EF91DF91CF91BF91AF919F918F9195
:102B80007F916F915F914F913F912F911F910F9185
:102B9000FF90EF90DF900F900FBE0F901F90189551
:102BA000B59A80916F00806280936F008091DB0204
:102BB0009091DC02189929C0FC01E957FF4F8081F0
:102BC00091810196918380831092E60281E0809347
:102BD000E7028091E7028330E9F5E091E402F091A9
:102BE000E50280812091E30233B190E0022E02C021
:102BF000959587950A94E2F7832780FD11C010927E
:102C0000E60282E08093E70225C06091DD020E9427
:102C1000470780E090E0892BB9F20E940000D4CFF2
:102C20008091E602893008F043C03091DD0281E0F6
:102C300090E001C0880F2A95EAF7908130FF36C0F6
:102C40008095892380838091DD0290E0959587951A
:102C50008093DD028091E702823099F48091E60250
:102C600081118EC0E091E402F091E50280819091A3
:102C7000E30221E030E001C0220F9A95EAF7822BAF
:102C800080838091E702813009F072CF8091E60263
:102C9000882309F44ACF8091E602883308F468CF8C
:102CA0001092E70280916F008D7F43CF892BCACFAE
:102CB0008091E602893059F4308181E090E001C0D2
:102CC000880F2A95EAF7809583238083C3CF80916C
:102CD000E8028F5F8093E8029091E902891750F52E
:102CE0001092E6028091DF029091E002A091E8024A
:102CF000A80FB92FB11D8C918093DD02808141E036
:102D000050E001C0440F2A95EAF7842B808380911C
:102D10008400909185008A5A9C4F9093E2028093A0
:102D2000E1028091E1029091E20290938900809308
:102D3000880090CF81E08093DE020091DF02109145
:102D4000E002E090DB02F090DC02C8010E9456072E
:102D5000D82ED0E0C0E0CD1548F4F801EC0FFD1FEF
:102D60006081C7010E9447072196F5CF80E090E07F
:102D7000892B11F00E9400001092E60281E042CF00
:102D80008091E6028F3008F47CCFE091E402F0916C
:102D9000E50220813091E30281E090E001C0880FDC
:102DA0003A95EAF78095822380831092E60281E0CB
:102DB0008093E702E091DB02F091DC02E357FF4FE2
:102DC000808191810196918380835BCF1F920F92C6
:102DD0000FB60F9211248F939F93EF93FF93B59AA1
:102DE000EFE6F0E080818F7D808380918600909176
:102DF000870080529E4F9093E2028093E10280917F
:102E0000E1029091E2029093890080938800B19A48
:102E100080818260808384E08093E7021092E602E2
:102E200081E080935102FF91EF919F918F910F90DC
:102E30000FBE0F901F9018958A3028F529E0829FC9
:102E4000F0011124E45DFE4F85819681803127E2F7
:102E50009207C8F4883E23E09207B8F484369105BF
:102E6000B0F40A97B0F481E09091A002891B990B0D
:102E70008530910580F4880F991FFC01EE5DFE4FAF
:102E800080819181089585E0EFCF84E0EDCF83E0EC
:102E9000EBCF82E0E9CF90E080E008950F931F939D
:102EA000CF93DF930DE414E0F8011382128288EED1
:102EB00093E0A0E0B0E084839583A683B7838EE996
:102EC00091E091838083C1E6D4E086E0888380E846
:102ED000898388E08A831B821C821D821E8261E0B6
:102EE00086E00E94E8010E94A6026B837C838D83AA
:102EF0009E83E9E5F4E08DE38083178306831182E6
:102F00008FEF8283838315821482EAE3F4E0118ACF
:102F1000108A128AE0EFF3E013821282128E148A72
:102F20008FE084838EE085838DE086838CE08783C9
:102F30008BE080878AE0818789E08287178681E03D
:102F4000808B82E0818B83E0828B84E0838B80EBBB
:102F500091E091838083148E158E168E178E8AE0F1
:102F600090E091A380A312A213A215A216A217A209
:102F700010A692A781A713A614A616A617A610AA94
:102F800011AA93AB82AB14AA15AA17AA10AE11AE60
:102F900012AE94AF83AF15AE16AE109230041092FD
:102FA00031041092320410923304909335048093CC
:102FB000340410923604109237048DE18093EF03AD
:102FC000DF91CF911F910F910895CF93DF93CDB7EC
:102FD000DEB7A3970FB6F894DEBF0FBECDBF7894CF
:102FE00084B5826084BD84B5816084BD85B582600E
:102FF00085BD85B5816085BD80916E0081608093BF
:103000006E00109281008091810082608093810027
:103010008091810081608093810080918000816037
:10302000809380008091B10084608093B100809192
:10303000B00081608093B00080917A0084608093BA
:103040007A0080917A00826080937A0080917A0081
:10305000816080937A0080917A00806880937A0002
:103060001092C100E0E0EE2EE1E0FE2EF2E0CF2E65
:10307000D12CC6010E942C23182FC60101960E9454
:103080002C23212F30E0322F2227820F932F911DE6
:10309000D7018D939D937D01B2E0CB0ED11CE6E16B
:1030A000CE16D10431F780910C0190910D01049757
:1030B00028F464E070E086E00E94A71380910E017E
:1030C00090910F01429711F00E94DB130E94E20FD2
:1030D000EAEEF2E08FE8DF011D928A95E9F761E000
:1030E00087E00E94E801E0EBF1E02491ECE9F1E0F7
:1030F000E491F0E0EE0FFF1FEF57FE4F4591549122
:1031000080E091E031E0291741F08F5F932F082E86
:1031100001C0990F0A94EAF7F6CF5093E502409365
:10312000E4028093E3028AEE92E09093DC028093C3
:10313000DB022098E091E402F091E50220813091D9
:10314000E30281E090E001C0880F3A95EAF78095AC
:10315000822380831092800011E0109381001092EE
:10316000E702B59A80916F00806280936F00809132
:103170008100887F8160809381001092CA02109242
:10318000C90284E08093CB020E942C081092BE02F8
:1031900010929802109297021092B2021092B3020B
:1031A0001092B4021092B5021092BF020E94240342
:1031B0008DE30E9444018DE494E00E94A6058111F4
:1031C00002C01093B10280E70E9444018DE494E0B4
:1031D0000E94A605811175C081E0809396028091BE
:1031E0004A0490914B04009711F00E94772686E0E4
:1031F00090E00E94DB258C0180E7F80180838DE45C
:1032000094E092838183138280E290E095838483AB
:1032100010934B0400934A040E94240381E0D801D8
:1032200013968C93C8010E940106882309F449C0B3
:1032300081E2898B41E050E0BE016F5E7F4F80915B
:103240004A0490914B040E947B0810923B04109218
:103250003A0410923D0410923C0410923F041092E4
:103260003E041092410410924004109243041092C4
:1032700042041092450410924404109247041092A4
:10328000460410924904109248040E94AF0881E855
:10329000898341E050E0BE016F5F7F4F80914A0417
:1032A00090914B040E947B088FEE898341E050E0AF
:1032B000BE016F5F7F4F80914A0490914B040E9442
:1032C0007B08C0900201D0900301C114D10409F41D
:1032D000B9C086E190E00E94DB258C01FC011182DF
:1032E00010861786108A118A128A81E08687838762
:1032F000148692E0958780837601EE0CFF1CEC0C1F
:10330000FD1CF582E482C7010E94DB25F80192874B
:103310008187009709F485C0A70170E060E00E94F2
:103320001227D8011396DC92CE9212978AE090E091
:10333000D80117969C938E93169711968C9188239B
:1033400041F061E08AE00E94E80160E08AE00E94CA
:10335000BA01EFE9F1E0E491F0E0EE0FFF1FEF5763
:10336000FE4F85919491F801948B838BE3EBF1E010
:10337000E491D8015596EC9355971093BC020093B5
:10338000BB020115110509F45DC016968D919C9143
:1033900097FD08C061E00E94E80160E0F8018681C5
:1033A0000E94BA0181E0D80111968C93119714966E
:1033B0004D915C91159770E060E019968D919C910C
:1033C0000E94122780910401DD24D394D80EF801C5
:1033D0002085D216B9F1E184F284215070E060E0DA
:1033E00061F08F3F19F530E050E040E06FEF7FEF84
:1033F00080E090E00E94B625B901F701D80114964B
:103400004D915C91CF018E199F0984179507C0F4E7
:103410004081469FC001479F900D112490833196B3
:10342000EDCF158214821382128280CF8D2D90E011
:10343000982F88270197622F70E00E948025DDCFAA
:10344000F801D0868091120181FF30C085E090E0C4
:103450000E94DB258C0184E0D8018C9385E01196D5
:103460008C93119784E690E014969C938E93139717
:1034700060E084E00E94E80160E0F80181810E9440
:10348000E80160E0D8018C910E94BA0160E0F80187
:1034900081810E94BA011093BA020093B90201150A
:1034A000110521F08FE0D80112968C9362E08EE036
:1034B0000E94E80110E6412E1AEE512E612C712C6B
:1034C000FE013397FB8FEA8F9E012B5F3F4F3D8FAD
:1034D0002C8F22242394312C88248A94BFE39B2EA2
:1034E0000E94A60200916404109165042091660474
:1034F00030916704601B710B820B930B6531710572
:103500008105910500F10E94A60260936404709306
:1035100065048093660490936704609162048091CF
:103520006304613C20F081958093630402C06032A3
:10353000D0F380916304680F6093620470E080911F
:1035400061040E9424020E94A60200919C02109134
:103550009D0220919E0230919F02601B710B820B95
:10356000930B6E3771058105910528F10E94A60223
:1035700060939C0270939D0280939E0290939F02A1
:1035800090919B0281E0982790939B02992399F058
:103590009091BD0298279093BD02992361F090917C
:1035A0009A02982790939A02992329F09091990270
:1035B0008927809399020E94E20F8091A6028130B0
:1035C000E1F565E089E394E00E94220930E2839FFF
:1035D000C00111248095909561E085FD60E080EF49
:1035E00093E00E94DF090FEF13E0F12CE12CFFE1E3
:1035F000CF2EDE2CD8016D918D0180E0603120F45A
:103600008BE094E00E94220990E002C0880F991F8D
:10361000DA94E2F780959095C822BFEFEB1AFB0A87
:10362000E5E0EE16F10429F78091A502C11067C00C
:10363000882309F4B1C01092A5028AEE92E00E949C
:10364000F211FC019093AE028093AD02892B09F434
:103650000EC582819091100194FFEAC28B3709F068
:10366000EAC280818F3E29F4828586FD02C0806493
:1036700082878081877F873E09F0DDC2858140E8AF
:10368000849F900111248481820F932F911DD40176
:10369000A81BB90BB093AC02A093AB02828586FF46
:1036A0008FC68091C9029091CA02181619060CF0B3
:1036B000C2C28EE0ACECB2E001900D928A95E1F7C7
:1036C00081E00E94710D8091CB0282FF11C0809138
:1036D000D102B0E88B9F900111248091D002820F1B
:1036E000932F911DF401E81BF90BCF010E94880D67
:1036F00082E090E09093CA028093C9029CC2C816EF
:1037000009F44AC08091A402C092A502811105C0AB
:10371000C2FE93CF0E94360C90CF8130F1F4C3FEED
:1037200005C00E94C50F1092A40287CFC2FE03C03D
:103730000E94260C82CFC1FE2FC080EF93E00E9432
:10374000FE0B60E080E00E94CC0B80E791E00E94DD
:10375000AF0B0E947A118AE04EC08230C9F4C3FCDC
:10376000D9CFC1FE03C00E94160C67CFC2FE65CF41
:1037700087E08093A40280EF93E00E94FE0B60E05C
:1037800080E00E94CC0B86E691E00E94AF0B55CF03
:103790008730E1F4C3FCCCCF8091A402873009F0DC
:1037A00025C261E080E00E94CC0B8091B6028823A4
:1037B00009F418C28091B8021091B702873108F459
:1037C00023C28CEB91E00E946D1122C28A30B1F4C9
:1037D000C4FCA0CFC1FEE0CF80EF93E00E94FE0BBF
:1037E00060E080E00E94CC0B87E591E00E94AF0B87
:1037F0000E943E0E8BE08093A4021FCF8B3069F4B1
:10380000C4FECACF80EF93E00E94FE0B60E080E030
:103810000E94CC0B80E591E09ACF843108F4C6C1B8
:103820009091EF03981708F4AEC1ECEEDE2ED80E9F
:10383000C0FE53C0F090A302FF2009F4FECE6091B9
:10384000A1027091A2020D2D10E0F6E0DF121DC062
:10385000672BA9F40E94DB13000F111FF801E05041
:10386000FF4F808191810E94AF0E61E08AE00E944B
:10387000CC0BFF2009F4D7C689E491E0D6C664E0FA
:1038800070E086E00E94A713E7CF89E0809FF001F7
:10389000819FF00D1124E45DFE4F808523813481EA
:1038A0006217730708F4B3C62581368126173707D8
:1038B00008F4ADC68111ABC68D2D0E94D61329E048
:1038C0002D1550F68FEF9FEF0E94AF0E61E08AE05A
:1038D0000E94CC0BD1CFF12CBFCFC4FE0FC0809182
:1038E000A302882309F43FCF1092A30239E0ED2D03
:1038F0003D1508F0C9C08FEF9FEFCDC0C1FE59C084
:103900008091A302811120C049E04D15E8F0ED2D12
:10391000F0E059E0D59ED0011124A45DBE4F189669
:103920008C91811111C0EE0FFF1FE050FF4F80817D
:1039300091819093A2028093A10221E02093A3029F
:103940001092A0020E94AF0E8091A302882309F476
:1039500074CE1091A0021F5F1093A00289E08D1514
:1039600048F099E0D99EF0011124E45DFE4F878173
:10397000823061F08D2D0E94480890E00196181762
:10398000190631F481E08093A00202C01930D1F30E
:1039900061E08091A0020E94CC0B60910504862F0B
:1039A0008260809305046A6080EF93E00E94C90BF7
:1039B00044CEC3FE73C02091A302222309F457C052
:1039C000E090A102F090A202A9E08FEF9FEFAD1569
:1039D00008F440C00D2D10E0B9E0DB9EF001112489
:1039E000E45DFE4FC780E1E0EC1580F08D2D0E9474
:1039F0001C178E0D9F1D9093A2028093A1028E151D
:103A00009F0520F4F092A202E092A1022091A1026F
:103A10003091A20242E0C41213C08091A00248E09B
:103A200050E0481B5109D10102C0AA0FBB1F4A95A3
:103A3000E2F7CD01822B932B9093A2028093A102F7
:103A400089E0809FF001819FF00D1124E45DFE4F1D
:103A5000858196812091A1023091A202821793075D
:103A600008F082C0F092A202E092A1027DC08F5FB6
:103A70008093A402891710F09093A402E091A4020D
:103A8000E451EA3008F037CFF0E0EE0FFF1FE050CE
:103A9000FF4F808191810E94AF0ECFCDC2FECEC577
:103AA0009091A302992309F464C0E090A102F090E0
:103AB000A202B9E090E080E0BD1508F443C00D2DEE
:103AC00010E029E0D29EF0011124E45DFE4FC78092
:103AD00031E03C1588F08D2D0E941C17A701481B72
:103AE000590B5093A2024093A102E416F50620F46C
:103AF000F092A202E092A1022091A1023091A202D2
:103B000052E0C51215C08091A002A8E0B0E0A81B49
:103B1000B109F10102C0EE0FFF1FAA95E2F7CF0134
:103B200080959095822393239093A2028093A10283
:103B300089E0809FF001819FF00D1124E45DFE4F2C
:103B4000838194812091A1023091A2022817390724
:103B500020F4F092A202E092A1028091A102909141
:103B6000A202019609F47ECF8091A1029091A20257
:103B700092CF81508093A402833109F07FCF84E1FA
:103B80008093A4027BCF883C89F4C2FE03C00E94CC
:103B9000060C53CDC4FCCCCDC1FE4FCD84E1809347
:103BA000A402809100019091010175CF823D09F03E
:103BB0004BC5C3FCD8CDC4FCBBCDC1FE3ECD83ED0F
:103BC0008093A40260E088E00E94CC0B80E20E9417
:103BD000A60B2FEF3FEF3093A2022093A1020E9489
:103BE00023112BCD8CE391E00E94AF0B8091A402B6
:103BF0008A3011F40E947A118091A4028B3009F06E
:103C00001CCD0E943E0E19CD62E090E00E94100E85
:103C10008AE30E94A60B1C3330F462E0812F90E00F
:103C20000E94100EE3CF8CEB91E00E946D11DECF6D
:103C30008B3709F41ECD0091AD021091AE02C80180
:103C40000E945607803109F012C2D8018C91853E3E
:103C500009F00DC214968C911497823009F007C2B6
:103C600016962C91169780910001909101012817CA
:103C7000190609F0E3C117962C91179780910E0150
:103C800090910F012817190609F0D8C115968C914B
:103C9000159790E09C01E4E0220F331FEA95E1F7CD
:103CA00020781996AC901997E894A7F82A2930E063
:103CB000322F222745E0880F991F4A95E1F7807837
:103CC0001896AC90E894A7F8A82AA20EB32EB11CBF
:103CD0006501B1E0CB1AD108CE8EEC2DEA3050F45C
:103CE00029E0C29EF0011124E45DFE4F31E087819E
:103CF000813009F030E0D80113968C918130F1F5D4
:103D0000BAE0CB16D104D0F5F801828590E0638546
:103D10006F77AC015695542F442757954795262F1A
:103D2000240F332309F44FC336E0880F991F3A95C7
:103D3000E1F7807864856F77862B682F70E0762FA7
:103D40006627620F711D8C2D0E94D613E091AD0283
:103D5000F091AE02838180648383FE8D4FEFFA3051
:103D600030F4F601EE0FFF1FE050FF4F4081E12CD1
:103D700000E020E060E08A2D0E94EE12E091AD02AA
:103D8000F091AE0283818230B9F42AE0C216D104E8
:103D900098F482E483833E8D4FEF3A3030F4F6019D
:103DA000EE0FFF1FE050FF4F4081E12C00E020E0CC
:103DB00060E08A2D0E94EE12E091AD02F091AE0219
:103DC0008381833009F04BC04AE0C416D10408F067
:103DD00046C0628570E0CB019695982F882797950D
:103DE0008795992723852F77280F392F311D16E0C6
:103DF000660F771F1A95E1F76078772784858F77AC
:103E0000682B5E8D8FEF9FEF5A3038F4F601EE0F7E
:103E1000FF1FE050FF4F8081918126233723232B02
:103E200009F4D3C2682B792B8C2D0E94D613E09114
:103E3000AD02F091AE028381806483838E8D4FEF5B
:103E40008A3030F4F601EE0FFF1FE050FF4F408143
:103E5000E12C00E020E060E08A2D0E94EE12E0916B
:103E6000AD02F091AE028381853009F07FC09AE007
:103E7000C916D10408F07AC0828590E08C0126E052
:103E8000000F111F2A95E1F7007864856F77062BE4
:103E9000BC0135E0660F771F3A95E1F7162F1078D1
:103EA00065856F77162BBC0144E0660F771F4A9536
:103EB000E1F7A62FA078EA2E66856F77E62A63855C
:103EC0006F779695982F882797958795680F70E05C
:103ED0008C2D0E94D613FF24F394FC0C602F70E00D
:103EE0008F2D0E94D61302E00C0D612F70E0802F01
:103EF0000E94D61313E01C0D6E2D70E0812F0E94DE
:103F0000D613E091AD02F091AE0283818064838389
:103F1000BE8D4FEFBA3030F4F601EE0FFF1FE050C8
:103F2000FF4F4081E9E02FEFEF1538F0EF2DF0E083
:103F3000EE0FFF1FE050FF4F20810A3008F04AC209
:103F4000E02FF0E0EE0FFF1FE050FF4F0081EE2466
:103F5000EA941A3038F4E12FF0E0EE0FFF1FE05042
:103F6000FF4FE08060E08A2D0E94EE12E091AD02EA
:103F7000F091AE0283818630B1F52AE0C216D104F9
:103F800090F586E483833E8D4FEF3A3030F4F601AE
:103F9000EE0FFF1FE050FF4F4081E1E0EC0D2FEFEF
:103FA000EA3030F4F0E0EE0FFF1FE050FF4F2081C9
:103FB000E2E0EC0D0FEFEA3030F4F0E0EE0FFF1F1F
:103FC000E050FF4F0081E3E0EC0DEE24EA94EA308C
:103FD00030F4F0E0EE0FFF1FE050FF4FE08060E0B4
:103FE0008A2D0E94EE12E091AD02F091AE02838123
:103FF000883061F488E4838340910E01E42E0091BF
:10400000000120E06DE08AE30E94EE12E091AD0233
:10401000F091AE0283818F3089F40E94DB13E0912E
:10402000AD02F091AE02838180648383E12C00E0D5
:1040300020E040E06B2D8A2D0E94EE12E091AD024F
:10404000F091AE028681811112C0878181110FC06B
:104050008381873061F487E4838340910E01E42EED
:104060000091000120E06DE08AE30E94EE120E94C0
:10407000A6020091A7021091A8022091A9023091F6
:10408000AA02AB01BC01401B510B620B730B433402
:1040900051056105710508F46BC0D901C8018D5B3C
:1040A0009F4FAF4FBF4F8093A7029093A802A0935A
:1040B000A902B093AA028091C9029091CA02029704
:1040C00009F043C08091D0029091CF02890F809374
:1040D000D00287FF25C09091CB028F778093D002CA
:1040E0008091D1028F5F8093D10287FF19C08DE646
:1040F0008093D002892F817088588093D10280915B
:10410000D2028F5F8F3708F067C18093D20291FF90
:1041100077C18FEE8093CC028CEC92E00E94620714
:104120008091CB0282FF11C08091D10240E8849F30
:10413000900111248091D002820F932F911DD40100
:10414000A81BB90BCD010E94880D8091C9029091E6
:10415000CA02892B69F48BEB89838BE78A831B82E4
:10416000CE0101960E9462073092CA022092C902D3
:104170008091BF02882341F12091BE0290E6C92EB2
:104180009AEED92EE12CF12C222349F030E050E0B8
:1041900040E0C301B2010E94942569017A010E94A6
:1041A000A6020091B2021091B3022091B4023091A4
:1041B000B502601B710B820B930BC616D706E8067F
:1041C000F90610F40E942C088091B102882309F4AA
:1041D00029C161E0809159040E944C0410929E0311
:1041E00080939D03813009F40FC182E890E09093A1
:1041F0005E0480935D0480915A0482FD13C1809116
:10420000B002882309F411C1B091B802B8A3E091BB
:10421000B702E9A3A090B6021091BF028091BE023E
:10422000112309F417C1BB24B394823008F4B12CD4
:1042300001E0813009F000E0E0900601F090070114
:104240000E946908811108C18091BD02811102C0DC
:10425000F12CE12CB70189E00E94240270E060E0BB
:104260008BE00E94240270E060E083E00E94240260
:10427000E091BB02F091BC02309709F45DC122814C
:1042800033813F8F2E8FF12CE12C4E8D5F8D4E159B
:104290005F0509F451C10E946908C090BB02D0902B
:1042A000BC028111E9C02091BD02219530E050E0AF
:1042B00040E0A90133272227B701C6010E94E60684
:1042C000D60119968D919C91892B09F475C00E9495
:1042D0008102F60127853089418952896217730767
:1042E0008407950720F46787708B818B928BF6018A
:1042F0002785308941895289621B730B840B950B8A
:104300006C3271408105910510F3F894D601149632
:104310008D919C9115979A8B898B1996ED91FC91B3
:104320001A979F012F5F3F4F3BA32AA38081898F5C
:104330009C915396ED91FC91549755968C919923AD
:1043400009F4BEC09081982B988F90818095892325
:104350008F8B8F898C8B38E03B8B388D4F89698DA3
:104360005B892C8989899A89AAA1BBA1308367FDC1
:10437000232F5A952083242F39F0661F00C0000098
:104380004083000000C0F2CF58E06D9140830000F0
:10439000019761F7D6015496FC93EE935397698F7A
:1043A0005B8B2C8B9A8B898B78940E948102F6010F
:1043B0006787708B818B928BFFEFEF1AFF0A65CFB7
:1043C00083E090E097C980E0B8CC60957095682351
:1043D00079232ACD0FEFBBCD83E48093D202809165
:1043E000D4028F5F87FD03C08093D40290CE88E60D
:1043F0008093D4028091D5028F5F8093D50287CEBF
:1044000080E00E94710D8CCE80915F0490916004D9
:10441000DC01ED91FC910284F385E02D09958093F8
:104420005A04EBCE1092B002EFCE81E08093B0023E
:104430009091AF02913009F482E08093AF028091B5
:10444000B102882309F4E0CE8091AF028C6F0E9404
:10445000A905DACEB12CEFCEB70189E00E94240283
:1044600060910801709109018BE00E942402609123
:104470000A0170910B01F9CEAA20E9F020E030E0AA
:104480004FEF50E0112309F417CF20E03FEF40E059
:1044900050E0B11011CF002309F412CF8091120126
:1044A0002FEF3FEF4FEF50E080FD06CF2FEF30E0D2
:1044B00040E050E001CF20E03FEF4FEF50E0FCCE76
:1044C0009081982B988F9081809589238F8B8F89ED
:1044D0008E8BB8E0BD8B388D4F89698D5D892E89B3
:1044E00089899A89AAA1BBA1308367FD232F00C0C7
:1044F00000C0208300C000C000C000C000C04083D6
:104500000000242F5A9541F0661F000000C000C033
:1045100000C000C000C0E8CF58E06D9100C04083EB
:1045200000C0019709F7D6015496FC93EE93539778
:10453000698F5D8B2E8B36CFE091B902F091BA0274
:10454000309721F166E971E0AA20E9F049A1242F12
:1045500030E088A154E6859F200D311D1124809103
:10456000BF02882321F08091BD0240E0811140E428
:1045700021153105A9F419821A821B828FE38C83DD
:10458000BE016F5F7F4FCF010E94AC0680E090E0DC
:10459000892B11F40C94701A0E9400000C94691A73
:1045A000DE0111967D018D01C9016AE070E00E9473
:1045B0008025009721F52115310509F5D8011396BD
:1045C0001C92C9016AE070E00E9480259B010150A5
:1045D00011098A8D9B8D0817190731F7442381F241
:1045E000D7019D917D011197842F8078892B8C9321
:1045F000440F2C8D3D8D2E153F0591F7C1CF8A5765
:104600009E4FDC018C91D80113968C93DACF39E060
:104610003D1508F060C98FEF9FEF0E94AF0E61E07B
:104620008AE00E94CC0B82E491E00E94AF0B61E033
:104630008091A0020E94CC0B0C941D1B883C09F4B5
:10464000A9CA823D09F4B7CA833D09F0A5C8C4FCD4
:104650009ECAC2FEA1C8C3CAF999FECF92BD81BD50
:10466000F89A992780B50895262FF999FECF1FBA99
:1046700092BD81BD20BD0FB6F894FA9AF99A0FBE8B
:10468000019608955058BB27AA270E945A230C94DC
:10469000CD240E94BF2438F00E94C62420F039F4B3
:1046A0009F3F19F426F40C94BC240EF4E095E7FB2C
:1046B0000C94B624E92F0E94DE2458F3BA1762073F
:1046C00073078407950720F079F4A6F50C9400256C
:1046D0000EF4E0950B2EBA2FA02D0B01B90190011D
:1046E0000C01CA01A0011124FF27591B99F0593F61
:1046F00050F4503E68F11A16F040A22F232F342FA9
:104700004427585FF3CF469537952795A795F040F6
:104710005395C9F77EF41F16BA0B620B730B840B0B
:10472000BAF09150A1F0FF0FBB1F661F771F881FC3
:10473000C2F70EC0BA0F621F731F841F48F487951B
:1047400077956795B795F7959E3F08F0B0CF93950D
:10475000880F08F09927EE0F9795879508950E9486
:10476000922408F481E008950E94C8230C94CD247B
:104770000E94C62458F00E94BF2440F029F45F3FF5
:1047800029F00C94B62451110C9401250C94BC24EE
:104790000E94DE2468F39923B1F3552391F3951B0E
:1047A000550BBB27AA2762177307840738F09F5F52
:1047B0005F4F220F331F441FAA1FA9F335D00E2EBF
:1047C0003AF0E0E832D091505040E695001CCAF72C
:1047D0002BD0FE2F29D0660F771F881FBB1F2617EF
:1047E00037074807AB07B0E809F0BB0B802DBF01C6
:1047F000FF2793585F4F3AF09E3F510578F00C9495
:10480000B6240C9401255F3FE4F3983ED4F38695DB
:1048100077956795B795F7959F5FC9F7880F911DB5
:104820009695879597F90895E1E0660F771F881FA1
:10483000BB1F621773078407BA0720F0621B730B54
:10484000840BBA0BEE1F88F7E09508950E94E624CA
:1048500088F09F5798F0B92F9927B751B0F0E1F041
:10486000660F771F881F991F1AF0BA95C9F714C0F1
:10487000B13091F00E940025B1E008950C9400251C
:10488000672F782F8827B85F39F0B93FCCF386952A
:1048900077956795B395D9F73EF490958095709587
:1048A00061957F4F8F4F9F4F0895E89409C097FB04
:1048B0003EF490958095709561957F4F8F4F9F4FF7
:1048C0009923A9F0F92F96E9BB279395F69587953B
:1048D00077956795B795F111F8CFFAF4BB0F11F4FE
:1048E00060FF1BC06F5F7F4F8F4F9F4F16C08823A5
:1048F00011F096E911C0772321F09EE8872F762FDB
:1049000005C0662371F096E8862F70E060E02AF01B
:104910009A95660F771F881FDAF7880F9695879507
:1049200097F90895990F0008550FAA0BE0E8FEEFDC
:1049300016161706E807F907C0F012161306E40763
:10494000F50798F0621B730B840B950B39F40A265C
:1049500061F0232B242B252B21F408950A2609F43A
:10496000A140A6958FEF811D811D089597F99F673E
:1049700080E870E060E008959FEF80EC08950024E7
:104980000A941616170618060906089500240A94B4
:1049900012161306140605060895092E0394000C3A
:1049A00011F4882352F0BB0F40F4BF2B11F460FFC9
:1049B00004C06F5F7F4F8F4F9F4F089557FD9058F2
:1049C000440F551F59F05F3F71F04795880F97FBD3
:1049D000991F61F09F3F79F087950895121613068D
:1049E0001406551FF2CF4695F1DF08C016161706BC
:1049F0001806991FF1CF86957105610508940895F1
:104A0000E894BB2766277727CB0197F908950E9482
:104A10001A250C94CD240E94BF2438F00E94C6248D
:104A200020F0952311F00C94B6240C94BC2411248E
:104A30000C9401250E94DE2470F3959FC1F3950F1D
:104A400050E0551F629FF001729FBB27F00DB11D12
:104A5000639FAA27F00DB11DAA1F649F6627B00DA2
:104A6000A11D661F829F2227B00DA11D621F739F8B
:104A7000B00DA11D621F839FA00D611D221F749F99
:104A80003327A00D611D231F849F600D211D822FE0
:104A9000762F6A2F11249F5750409AF0F1F0882307
:104AA0004AF0EE0FFF1FBB1F661F771F881F915034
:104AB0005040A9F79E3F510580F00C94B6240C9409
:104AC00001255F3FE4F3983ED4F38695779567958B
:104AD000B795F795E7959F5FC1F7FE2B880F911D5E
:104AE0009695879597F90895991B79E004C0991FC9
:104AF000961708F0961B881F7A95C9F78095089538
:104B0000AA1BBB1B51E107C0AA1FBB1FA617B707F3
:104B100010F0A61BB70B881F991F5A95A9F780950F
:104B20009095BC01CD010895A1E21A2EAA1BBB1BD2
:104B3000FD010DC0AA1FBB1FEE1FFF1FA217B30769
:104B4000E407F50720F0A21BB30BE40BF50B661F7F
:104B5000771F881F991F1A9469F760957095809543
:104B600090959B01AC01BD01CF010895052E97FBE7
:104B70001EF400940E94CD2557FD07D00E94942575
:104B800007FC03D04EF40C94CD25509540953095FC
:104B900021953F4F4F4F5F4F0895909580957095A9
:104BA00061957F4F8F4F9F4F0895EE0FFF1F059028
:104BB000F491E02D09940F931F93CF93DF938230EC
:104BC000910510F482E090E0E0916A04F0916B04AA
:104BD00030E020E0B0E0A0E0309799F421153105F5
:104BE00009F44AC0281B390B24303105D8F58A81D5
:104BF0009B816115710589F1FB0193838283FE011D
:104C000011C0408151810281138148175907E0F09A
:104C10004817590799F4109761F012960C93129760
:104C200013961C933296CF01DF91CF911F910F9174
:104C3000089500936A0410936B04F4CF2115310595
:104C400051F04217530738F0A901DB019A01BD0169
:104C5000DF01F801C1CFEF01F9CF90936B0480938E
:104C60006A04CDCFFE01E20FF31F8193919322508E
:104C7000310939832883D7CF2091680430916904A2
:104C8000232B41F4209116013091170130936904D0
:104C900020936804209114013091150121153105EC
:104CA00041F42DB73EB74091180150911901241BD2
:104CB000350BE0916804F0916904E217F307A0F462
:104CC0002E1B3F0B2817390778F0AC014E5F5F4F62
:104CD0002417350748F04E0F5F1F50936904409327
:104CE0006804819391939FCFF0E0E0E09CCFCF9355
:104CF000DF930097E9F0FC01329713821282A091B2
:104D00006A04B0916B04ED0130E020E01097A1F44B
:104D100020813181820F931F2091680430916904B2
:104D20002817390709F061C0F0936904E09368041B
:104D3000DF91CF910895EA01CE17DF07E8F54A81A8
:104D40005B819E0141155105B1F7E901FB83EA83BF
:104D500049915991C40FD51FEC17FD0761F480816B
:104D600091810296840F951FE9019983888382813E
:104D700093819B838A83F0E0E0E012968D919C9171
:104D800013970097B9F52D913C911197CD0102969B
:104D9000820F931F20916804309169042817390706
:104DA00039F6309751F510926B0410926A04B09363
:104DB0006904A0936804BCCFD383C283408151812E
:104DC000840F951FC817D90761F44E5F5F4F888124
:104DD0009981480F591F518340838A819B81938316
:104DE00082832115310509F0B0CFF0936B04E09375
:104DF0006A049ECFFD01DC01C0CF13821282D7CF9F
:104E00006817790768F4FB01DC01E40FF51FA40FB4
:104E1000B51F02C002900E9241505040D8F708953D
:104E20000C941927DC0101C06D9341505040E0F70C
:104E30000895FB01DC0102C001900D9241505040E9
:084E4000D8F70895F894FFCFA4
:104E4800FFFFFFFFFFFFFFFFFFFFFFFFFFFFFFFF6A
:104E5800FFFFFFFF00006C0480000000400014000A
:104E6800540001000A006400E80310270001000153
:104E7800007E0000000108000100FF00000002FFA2
:104E8800000000FF00000003FF000000FF0000001A
:104E980004FF000000FF00000005FF000000FF0005
:104EA80000000604000000040000000712001200C1
:104EB800120000010818000000FF000200090000AD
:104EC8000000FF0002003F065B4F666D7D077F6FA5
:104ED800777C395E797140404040000000007205DF
:104EE800450578081B053E052B051C05000000003C
:104EF800A00BB202780877084F0045003F3F00003A
:00000001FF
