:100000000C9413010C943B010C943B010C943B01A8
:100010000C943B010C943B010C943B010C943B0170
:100020000C943B010C943B010C9479160C94F21443
:100030000C943B010C943B010C943B010C943B0150
:100040000C9489130C943B010C943B010C943B01E0
:100050000C943B010C943B010C943B010C943B0130
:100060000C94D3130C943B015374617475733F006B
:10007000496E626574726965626E61686D653F00A4
:1000800043563F004932432D5363616E3F0066651E
:10009000727469670030780056657273696F6E20FC
:1000A000004E6562656E7568722D53746174757368
:1000B00000313A002D002D2D2D00313A002D005435
:1000C000005374700052756E002D0042002D0047E1
:1000D000002D0052003F3F3F00436F6E666967206E
:1000E0006C0053572D49440056657273696F6E005A
:1000F000422D42726967687400472D4272696768D1
:100100007400522D4272696768740057532D427211
:1001100069676874004C45442D434E54004465762D
:10012000696365494400726F004356002D2D3A2DD6
:100130002D006661696C65640073746F726564009C
:1001400053746174757300446973706C61792D53D5
:1001500074617475730046617374436C6F636B00F4
:100160005374617475730000000000240027002A96
:100170000000000000230026002900000000080005
:10018000020100000304070000000000000000005E
:1001900086227E6DD24620290B2170104080523F6E
:1001A000065B4F666D7D077F6F090D614843D35F26
:1001B000777C395E79713D76301E753815373F731F
:1001C0006B336D783E3E2A766E5B39640F230802EE
:1001D0005F7C585E7B716F74100C753014545C73C7
:1001E00067506D781C1C14766E5B46307001000100
:1001F00002040810204080010204081020010204BB
:1002000008102000000000250028002B0004040432
:1002100004040404040202020202020303030303AF
:100220000300E116AD2211241FBECFEFD8E0DEBFE0
:10023000CDBF11E0A0E0B1E0E2E7FDE402C005902F
:100240000D92A43BB107D9F724E0A4EBB1E001C0C3
:100250001D92A737B207E1F711E0C2E1D1E004C077
:100260002197FE010E946625C131D107C9F70E947E
:1002700037180C94AC260C94000091E09093BB03CB
:100280008093DD031092BC031092DE03089508955D
:1002900008958530A8F4262F2052330BF901E15739
:1002A000FE4FE491A82FB0E0AA0FBB1FA65DBB4F85
:1002B00030E8439FA0011124E42BF0E0ED93FC9380
:1002C000089580915404909155048230910538F03E
:1002D000880F991F880F991F05970197F1F70895C7
:1002E0004F925F926F927F928F929F92AF92BF9246
:1002F000FF9220915804309159048217930708F017
:1003000043C02B0166247724852E962EA72EBB246E
:10031000B82DA42F20915E04F42C222391F0E22F1B
:10032000F0E0E49DD001E59DB00DF49DB00D1124E9
:10033000FB2E289D40011124B92D249F90011124EA
:10034000A32FE091640420915F04309160045091E8
:100350006104E51323C0FC01EE0FFF1F8E0F9F1FEA
:10036000820F931FE0916104E80FF92FF11DF082D5
:10037000E0916204E80FF92FF11DB083209163042E
:10038000820F911DFC01A083FF90BF90AF909F90C2
:100390008F907F906F905F904F900895880F991F76
:1003A000880F991F820F931FE80FF92FF11D1082FC
:1003B000D9CF833081F028F4813099F08230A9F0D0
:1003C00008958730A9F08830C9F08430B1F4809165
:1003D00080008F7D03C0809180008F7780938000A4
:1003E000089584B58F7784BD089584B58F7DFBCF44
:1003F0008091B0008F778093B00008958091B00015
:100400008F7DF9CF1F93CF93DF93282F30E0F90131
:10041000E558FE4F8491F901E151FE4FD491F90165
:10042000E35FFD4FC491CC23A9F0162F81110E94E8
:10043000D901EC2FF0E0EE0FFF1FED5FFD4FA5910E
:10044000B4918FB7F894EC91111108C0D095DE23C8
:10045000DC938FBFDF91CF911F910895DE2BF8CFF2
:10046000CF93DF9390E0FC01E151FE4F2491835F35
:100470009D4FFC0184918823D1F090E0880F991F53
:10048000FC01E959FE4FA591B491FC01ED5FFD4FD0
:10049000C591D49161110EC09FB7F8948C91E22F51
:1004A000E0958E238C932881E223E8839FBFDF9120
:1004B000CF9108958FB7F894EC91E22BEC938FBF16
:1004C000F6CFCF93DF93C1E5D4E061E089810E944C
:1004D00030020E94610160E088810E9430020E9427
:1004E000610160E089810E943002DF91CF910C941C
:1004F00061010F931F93CF93DF93D82FC8E061E082
:10050000809151040E9430020E9461010D2F10E081
:1005100060E0D0FF61E0809152040E9430020E94AE
:10052000610160E0809151040E9430020E946101EB
:1005300015950795D02FC15011F761E080915104B6
:100540000E94300260E0809152040E9430020E94BA
:10055000610160E0809151040E9430020E946101BB
:100560002091520430E0F901E558FE4F8491F901E1
:10057000E151FE4FD491F901E35FFD4FC491CC23CB
:1005800039F181110E94D901EC2FF0E0EE0FFF1F2D
:10059000EF58FE4FA591B491EC91ED23C1E009F421
:1005A000C0E0C11105C061E0809152040E94300298
:1005B0000E94610161E0809151040E9430020E941A
:1005C00061018C2F8170DF91CF911F910F91089560
:1005D000C0E0E9CF61E0809152040E9430020C94A7
:1005E00061010F931F93CF93DF938C010E94EA0266
:1005F00080E40E9479020E9461020E94EA0280EC7B
:100600000E947902E8010C5F1F4F89910E947902D4
:10061000C017D107D1F70E9461020E94EA028091BF
:1006200053048F7080580E947902DF91CF911F91FF
:100630000F910C9461021F93CF93DF93182FEB015E
:1006400061E00E943002209739F460E0812FDF9151
:10065000CF911F910C940202CF3FD10511F461E0BC
:10066000F5CFE12FF0E0E558FE4FE491E33031F1B2
:1006700040F4E130B1F0E230E1F0C038D1057CF770
:10068000E4CFE73029F1E83059F1E430B1F7809157
:100690008000806280938000D0938B00C0938A009A
:1006A00004C084B5806884BDC7BDDF91CF911F9120
:1006B000089584B5806284BDC8BDF7CF8091800065
:1006C000806880938000D0938900C0938800EDCF2C
:1006D0008091B00080688093B000C093B300E5CFF4
:1006E0008091B00080628093B000C093B400DDCFF1
:1006F0003FB7F8948091B5029091B602A091B702ED
:10070000B091B80226B5A89B05C02F3F19F00196FD
:10071000A11DB11D3FBFBA2FA92F982F8827BC015B
:10072000CD01620F711D811D911D42E0660F771F83
:10073000881F991F4A95D1F708952FB7F8946091B3
:10074000B1027091B2028091B3029091B4022FBFB6
:100750000895AF92BF92CF92DF92EF92FF920F93E4
:100760001F93CF93DF936C017B018B01040F151F47
:10077000EB015E01AE18BF08C017D10759F06991AF
:10078000D601ED91FC910190F081E02DC601099513
:10079000892B79F7C501DF91CF911F910F91FF90C0
:1007A000EF90DF90CF90BF90AF90089520916702B7
:1007B000260F3327331F21323105ECF42091B50386
:1007C000FC0190E080E0243069F082E00895A0917F
:1007D00067022191AC01495B5D4FA40FB52FB11D9C
:1007E0002C930196861798F380916702680F6093A7
:1007F000670280E0089581E008951092B50381E0DA
:100800008093B40310928F0361E082E10E940202A0
:1008100061E083E10E940202E9EBF0E080818E7FDB
:10082000808380818D7F808388E48093B80085E415
:100830008093BC00089510928E0310928D03109245
:10084000BC031092DE030E94FD0387E491E09093C5
:100850008C0380938B0388E491E090938A038093C8
:1008600089030895CF93DF9391E090934602882304
:10087000B9F0C091B800D091BA008091BC008A7BD9
:100880008093BC0060E082E10E94020260E083E1AC
:100890000E9402020E94FD03D093BA00C093B800E8
:1008A000DF91CF9108958F929F92AF92BF92CF9296
:1008B000DF92EF92FF920F931F93CF93DF93D0912C
:1008C000DE03D13208F0D7C0182FC091DD030E949B
:1008D00078036B017C018091B50381116BC082E0CC
:1008E0008093B5031093B4038FEF8093B3031092FA
:1008F000B203D093B103ADEBB3E0E1E9F3E080E004
:10090000D81391C01092900380919003CC0FC82B04
:10091000C093900380918F03813009F088C01092BA
:100920008F030E9478036B017C0180919003809378
:10093000BB008091B7039091B803A091B903B09127
:10094000BA03892B8A2B8B2BA1F00E94780300918C
:10095000B7031091B8032091B9033091BA036C1911
:100960007D098E099F09061717072807390708F41C
:1009700042C08091BC0083FDD8CF85EC8093BC0041
:100980000E9478036B017C018091B503823009F4E9
:1009900050C08091B3038F3F09F46FC08091B303BF
:1009A000803209F46CC08091B303803309F469C0CC
:1009B00084E026C08091B7039091B803A091B90359
:1009C000B091BA03892B8A2B8B2B09F484CF0E9418
:1009D00078038090B7039090B803A090B903B090CB
:1009E000BA036C197D098E099F0986169706A80619
:1009F000B90608F070CF8091B6030E94320485E0FA
:100A00001092BC031092DE031092BB03DF91CF91D2
:100A10001F910F91FF90EF90DF90CF90BF90AF901C
:100A20009F908F9008959D9191938F5F69CF85EEF0
:100A3000A5CF8091B7039091B803A091B903B0916D
:100A4000BA03892B8A2B8B2B09F49ECF0E94780343
:100A50000091B7031091B8032091B9033091BA0304
:100A60006C197D098E099F09061717072807390792
:100A700008F08ACFC0CF81E0C3CF80E0C1CF82E051
:100A8000BFCF83E0BDCFCF92DF92EF92FF920F9363
:100A90001F93CF93DF93D82FC62F613208F098C0F1
:100AA0000E9478036B017C018091B50381116BC0BA
:100AB00081E08093B5038093B4039FEF9093B303D9
:100AC0001092B2039C0F9093B10380939003809196
:100AD0009003DD0FD82BD093900380918F0381304A
:100AE00009F078C010928F030E9478036B017C019B
:100AF000809190038093BB008091B7039091B803DD
:100B0000A091B903B091BA03892B8A2B8B2BA1F04A
:100B10000E9478030091B7031091B8032091B903A4
:100B20003091BA036C197D098E099F0906171707C2
:100B30002807390708F448C08091BC0083FDD8CF4E
:100B400085EC8093BC000E9478036B017C0180914E
:100B5000B503813009F440C08091B2038C1710F4C2
:100B6000C091B203E1E9F3E0A9E6B3E080E08C13C1
:100B700055C08C2FDF91CF911F910F91FF90EF9077
:100B8000DF90CF9008958091B7039091B803A09122
:100B9000B903B091BA03892B8A2B8B2B09F484CF2C
:100BA0000E9478030091B7031091B8032091B90314
:100BB0003091BA036C197D098E099F090617170732
:100BC0002807390708F070CF8091B6030E943204DD
:100BD000C0E0CFCF85EEB5CF8091B7039091B80339
:100BE000A091B903B091BA03892B8A2B8B2B09F4FE
:100BF000AECF0E9478030091B7031091B803209103
:100C0000B9033091BA036C197D098E099F09061743
:100C100017072807390708F09ACFD6CF91919D93EF
:100C20008F5FA5CF0895E0918E0380918D03E81723
:100C300030F4F0E0E759FC4F808190E008958FEFA9
:100C40009FEF089590918E0380918D032FEF3FEFDA
:100C5000981748F4E92FF0E0E759FC4F208130E085
:100C60009F5F90938E03C901089580918D039091A9
:100C70008E03891B990B0895CF92DF92EF92FF921A
:100C80000F931F93CF93DF937C01CB018A012091B7
:100C9000BB03222389F0EB016B01C40ED51ECC15DA
:100CA000DD0569F06991D701ED91FC910190F0812A
:100CB000E02DC7010995F3CF642F0E94D603C80128
:100CC000DF91CF911F910F91FF90EF90DF90CF9028
:100CD0000895CF93DF931F92CDB7DEB7698320913C
:100CE000BB032223F9F02091DE03203258F021E0EB
:100CF00030E0FC013383228390E080E00F90DF91AD
:100D0000CF9108958091BC03E82FF0E0E354FC4FAD
:100D1000998190838F5F8093BC038093DE0381E091
:100D200090E0ECCF61E0CE0101960E94D603F7CFB0
:100D3000682F8DE394E00C94690681E00C945304D1
:100D4000CF93DF93C9E4D4E08A8388810E943D0178
:100D50008E819F81DC01ED91FC910190F081E02D6D
:100D60006A8109958E819F810E949D0690E09D83F6
:100D70008C83DF91CF910895CF93DF93EC0118829C
:100D80000E941B04888180620E943D0180E00E94D5
:100D900098068FEF0E9498068DE394E00E949D06CE
:100DA000888180620E943D0181E00E9498068FEF59
:100DB0000E9498068DE394E0DF91CF910C949D06FC
:100DC000CF93DF93D62FC72FFC01808180620E94D2
:100DD0003D0182E10E9498068D2F0E9498068C2F7B
:100DE0000E9498068DE394E0DF91CF910C949D06CC
:100DF000CF93DF93EC018B81882371F088810E946F
:100E00003D0189819A810E949D0691E0811190E0C7
:100E1000892FDF91CF9108950E941B0481E08B837D
:100E2000CE010E94F806982F8111E8CFF1CF9C01E6
:100E3000DC01A058BF4FEC9191E09E0F9C93E20F14
:100E4000F32FF11D608397FD1C920895FC018081B2
:100E50008076803611F48181089580818295867034
:100E60008E5F0895CF92DF92EF92FF920F931F93C0
:100E7000CF93DF93EC0109E11EE2EE24E394F12C21
:100E800093E0D92ECC24C394CE010E9426078093F0
:100E9000D902E091D902E1501092D8028FEF9091DF
:100EA000D8029E1768F4A091D802AC0FBD2FB11DD7
:100EB0009C9189279091D8029F5F9093D802EFCFA1
:100EC000EC0FFD2FF11D8083F8948091D7028130C3
:100ED00059F48091D602811738F01092D702809190
:100EE0006F008D7F80936F0078948091D70281305E
:100EF00031F48091D602843138F2C12CC5CF809173
:100F0000D70281110EC0F89480916F008F7D80937D
:100F10006F00B59B09C080916F00806280936F0065
:100F20007894C110B1CF56C0E091D402F091D502AF
:100F300080819091D302970101C0220F9A95EAF720
:100F4000822B808380918400909185008A5A9C4FE7
:100F50009093D2028093D1028091D1029091D202DB
:100F600090938900809388007894D093D002C093A6
:100F7000CF021092D8021092CE0288818093CD02C7
:100F8000D092D7021092D602B19A80916F008260FF
:100F900080936F008091D7028330E1F38091CE027D
:100FA0008823B1F0E091CB02F091CC02E757FF4FDC
:100FB0008081918101969183808383E090E0DF912D
:100FC000CF911F910F91FF90EF90DF90CF900895F8
:100FD0008091D7021B3108F01150015009F052CF17
:100FE00080916503909166030196909366038093C8
:100FF000650386E090E0E3CF8930B8F429E0829F72
:10100000F0011124E65DFE4F85819681803127E253
:10101000920758F4883E23E0920748F484369105FD
:1010200040F40A9740F481E0089585E0089584E053
:10103000089583E0089582E00895089590E080E0A7
:101040000895EF92FF920F931F93CF93DF93DC01EC
:1010500014962D913C912417350710F490E01DC093
:10106000EA017B018C01FC0180810E943D01D801D5
:1010700011968D919C91DC01ED91FC910280F381A0
:10108000E02DAE01B7010995C817D90739F781E0FE
:101090000E94530491E08111E1CF892FDF91CF911C
:1010A0001F910F91FF90EF900895CF93DF93CDB7ED
:1010B000DEB761970FB6F894DEBF0FBECDBF1982C1
:1010C000AAE2B4E0FE013196BF019C9111968C9189
:1010D0001197129691838283329684E0AA33B807DF
:1010E000A1F741E150E080913A0490913B040E94C5
:1010F000210861960FB6F894DEBF0FBECDBFDF9119
:10110000CF9108950E94430510928E0380938D0322
:101110000895FF920F931F93CF93DF938C01C62FF7
:10112000DCE0683010F0C850DDE0F80180818062BA
:101130000E943D018D2F0E9498068DE394E00E944D
:101140009D06F8018081806261E070E090E00E947D
:1011500082088DE394E00E942206F82EF801808137
:1011600080620E943D018D2F0E94980681E090E0F0
:1011700001C0880FCA95EAF78F290E9498068DE36F
:1011800094E0DF91CF911F910F91FF900C949D06F9
:101190000F931F93CF93DF938C01C62FD2E168305A
:1011A00010F0C850D3E1F801808180620E943D01B7
:1011B0008D2F0E9498068DE394E00E949D06F80111
:1011C0008081806261E070E090E00E9482088DE39F
:1011D00094E00E942206992702C095958795CA95AA
:1011E000E2F78170DF91CF911F910F910895FF92E7
:1011F0000F931F93CF93DF931F92CDB7DEB78C0170
:101200006983F42EF8014783608785E090E0958339
:101210008483642FCE0101960E94C808F8011682CB
:101220006F2DCE0101960E94C808882319F083E033
:10123000F80186830E949D03F80160837183828395
:1012400093830F90DF91CF911F910F91FF9008959D
:10125000EF92FF920F931F93CF93DF938C01C62FD2
:10126000E42E84E1F82ED2E1683020F0C85095E1F8
:10127000F92ED3E1F801808180620E943D018F2D1B
:101280000E9498068DE394E00E949D06F8018081FB
:10129000806261E070E090E00E9482088DE394E05B
:1012A0000E94220621E030E001C0220FCA95EAF731
:1012B000F1E0C82FC22BEF1619F02095C22FC823DA
:1012C000F801808180620E943D018D2F0E94980666
:1012D0008C2F0E9498068DE394E0DF91CF911F91AF
:1012E0000F91FF90EF900C949D06FC01962F828D3C
:1012F0008F3F31F0603140F4CF014B960C942809B8
:10130000642F892F0C94020208950F931F93CF939B
:10131000DF93C62F8C01055E1F4FD1E062FB44278F
:1013200040F94D2768E0C8010E942809C1FB442705
:1013300040F94D2767E0C8010E9428094C2F4095CD
:10134000417066E0C801DF91CF911F910F910C941D
:101350002809FF920F931F93CF93DF938C01C62F21
:10136000F42ED0E0683010F0C850D1E0F801808150
:1013700080620E943D018D2F0E9498068DE394E0CB
:101380000E949D06F8018081806261E070E090E03B
:101390000E9482088DE394E00E94220621E030E062
:1013A00001C0220FCA95EAF7C82FC22BFF2019F0FF
:1013B0002095C22FC823F801808180620E943D01E0
:1013C0008D2F0E9498068C2F0E9498068DE394E042
:1013D000DF91CF911F910F91FF900C949D0660318A
:1013E00010F40C94A9090895CF93DF93EC0140E029
:1013F0006E810E94750941E06E81CE010E947509DF
:1014000040E06E81CE010E9475098BE891E0019762
:10141000F1F7DF91CF910895AF92BF92CF92DF9213
:10142000EF92FF920F931F93CF93DF93EC018A8D7E
:101430008E01095F1F4FC62ED12C8F3F09F482C049
:101440007E018BE1E80EF11C8B8D80620E943D01D4
:1014500082E10E9498068DE394E00E949D068B8DA8
:10146000806262E070E090E00E9482088DE394E088
:101470000E942206B82E8DE394E00E94220660E0CE
:10148000782FCB018B29F80130E020E001E010E05B
:101490004191B801042E02C0660F771F0A94E2F74B
:1014A0006095709586239723B601022E02C075952C
:1014B00067950A94E2F76170772702C0660F771F7D
:1014C0004A95E2F7862B972B2F5F3F4F243031054B
:1014D000F9F62E81680102C0CC0CDD1C2A95E2F7DA
:1014E000C094D094C822D922B601C7010E94E00658
:1014F0008E81B80102C0660F771F8A95E2F7C62A6F
:10150000D72AB601C7010E94E0068E81B80102C049
:10151000660F771F8A95E2F7609570956C217D21A3
:10152000C7010E94E0068BE891E00197F1F7DF9197
:10153000CF911F910F91FF90EF90DF90CF90BF90D0
:10154000AF900895F12CE12C5E01EBE1AE0EB11CE1
:10155000F80181918F019A8D9F3F39F141E0682F09
:10156000C5010E94EF09A6010E2C02C055954795B2
:101570000A94E2F74170F80131976081CE010E9430
:101580007509FFEFEF1AFF0A84E0E816F10401F78E
:10159000CE01DF91CF911F910F91FF90EF90DF90DF
:1015A000CF90BF90AF900C94F40961E00E9430029C
:1015B000DACFAF92BF92CF92DF92EF92FF920F936A
:1015C0001F93CF93DF93EC01F62E6C810E94750977
:1015D0006D816F3F21F040E0CE010E9475090F2D13
:1015E00010E08C8984FF3BC06E0187E0C80ED11CDF
:1015F000F12CE12C5E01EBE1AE0EB11CF601819104
:101600006F019A8D9F3F39F141E0682FC5010E941B
:10161000EF09A8010E2C02C0559547950A94E2F7F0
:101620004170F60131976081CE010E947509FFEF8C
:10163000EF1AFF0A88E0E816F10401F7CE01DF9106
:10164000CF911F910F91FF90EF90DF90CF90BF90BF
:10165000AF900C94F40961E00E943002DACFB80137
:1016600084E0759567958A95E1F7CE010E940C0A92
:101670006F2DCE01DF91CF911F910F91FF90EF90D1
:10168000DF90CF90BF90AF900C940C0A41E00E9485
:10169000D90A81E090E0089541E0682F80EE93E060
:1016A0000E94D90A81E090E008950F931F93CF9391
:1016B000DF938C01D0E0C0E0F801EC0FFD1F6491D6
:1016C000662339F041E080EE93E00E94D90A21962A
:1016D000F3CFCE01DF91CF911F910F91089540E09C
:1016E0000C94D90ACF93DF93CDB7DEB728970FB606
:1016F000F894DEBF0FBECDBF98E0E8E1F1E0DE0177
:10170000119601900D929A95E1F79091F803961732
:1017100008F46FEF262F30E0220F331F41E050E036
:101720004C0F5D1F240F351FF9016081680F606841
:1017300080EE93E028960FB6F894DEBF0FBECDBFC3
:10174000DF91CF910C946F0B61E00E946F0B8BE3E4
:101750009FE10197F1F7089580EE93E00E94A40BBA
:1017600060E080E00E94720B84E890E00E94550BDC
:1017700082ED80939802089580EE93E00E94A40B7E
:1017800060E080E00E94720B80E890E00E94550BC0
:1017900088EC80939802089580EE93E00E94A40B59
:1017A00060E080E00E94720B80E790E00E94550BA1
:1017B00082E080939802089580EE93E00E94A40B4B
:1017C00060E080E00E94720B88E690E00E94550B7A
:1017D00081E08093980208953F924F925F926F92BA
:1017E0007F928F929F92AF92BF92CF92DF92EF92B1
:1017F000FF920F931F93CF93DF9391E09093AA02F0
:10180000E0918B02F0918C023196F0938C02E09380
:101810008B028093AE020093B501811101C090E06C
:101820009093AF02011104C09091100193FFA8C0E2
:10183000882309F4A5C0D22F042F362E0E949D03C1
:101840006093A6027093A7028093A8029093A902C6
:101850008091AB02D81709F48DC08091100190914E
:10186000110180729927D0FD04C0892B21F082E0FC
:1018700003C0892BE1F381E08093A3028091A5024C
:10188000882329F08091A3028C6F0E94A00680918A
:101890008A02882309F46EC06D2F70E084E6089FE9
:1018A000600D711D1124072E000C880B990B0E94EE
:1018B000E8232B013C0120E030E040E05FE30E94A0
:1018C000D4220E94B7236B017C01812C912C30E83B
:1018D000A32E3FE3B32E10E080E1C81687E2D806BE
:1018E000E104F104E0F0115020E030E040E251E486
:1018F000C501B4010E9445234B015C01AC019B0171
:10190000C301B2010E94982420E030E040E05FE390
:101910000E94D4220E94B7236B017C01DDCF20E01E
:1019200030E040E85FE3C501B4010E944023712C20
:10193000C4E02AE0822E912CA12CB12C87FF32C06A
:1019400080E490E090932B0480932A0490932D04DC
:1019500080932C049093310480933004909333044B
:101960008093320482E090E090932F0480932E04C1
:101970000E9455080093AC02D093AB023092B401A0
:10198000DF91CF911F910F91FF90EF90DF90CF905B
:10199000BF90AF909F908F907F906F905F904F908F
:1019A0003F900895C114D104E104F10411F4171516
:1019B00088F1112319F0442443941711412C5C2E13
:1019C000C1506C2E84E0851558F0C701B601A50101
:1019D00094010E942525605D442D852D0E944901BA
:1019E000C23069F4CEEFC50D84E0861540F0E62DD7
:1019F000F0E0EE0FFF1FE65DFB4F11821082C70182
:101A0000B601A50194010E94252569017A0173940C
:101A1000C9CFC150C7FDA6CFC530DCF7EC2FF0E031
:101A2000EE0FFF1FE65DFB4F11821082F2CF0F9386
:101A3000082F2091C20223548091C40298E9980F84
:101A4000883618F468E10E940525492F6091C50287
:101A50008091BF020E94EC0B0F9108950F93AC018F
:101A60008091AE02882371F120919F023091A002F3
:101A70002E5833404217530728F55093A002409345
:101A80009F029091100193FF1DC02091AB0291E045
:101A9000920F9093AB029C3358F09091AC022B5371
:101AA0002093AB0221E0290F283170F42093AC027F
:101AB0000091B5012091AB024091AC026091B4015C
:101AC0000E94EC0B0F91089597519093AC02F0CFC8
:101AD0008F929F92AF92BF920F931F93CF93DF93FA
:101AE000CDB7DEB7A1970FB6F894DEBF0FBECDBF5E
:101AF00019A2423008F44AE08E010F5D1F4F842E78
:101B0000912CB12CA12CA50194010E942525E62F32
:101B1000B901CA01EA3044F5E05DD801EE938D01C8
:101B2000232B242B252B79F790E080E0109769F088
:101B3000FD0101900020E9F73197AF014A1B5B0BD3
:101B4000BD0180EE93E00E94A903A1960FB6F89420
:101B5000DEBF0FBECDBFDF91CF911F910F91BF9020
:101B6000AF909F908F900895E95CD7CFCF93DF938C
:101B7000EC016530D8F0C03187E2D80750F480E33B
:101B80000E944C0BC83E83E0D80718F480E30E9403
:101B90004C0BC436D10518F480E30E944C0BCA30BC
:101BA000D10550F480E30E944C0B06C0643051F321
:101BB000633079F3623099F3BE0190E080E04AE04F
:101BC000DF91CF910C94680DFF920F931F93CF93E9
:101BD000DF9361E080E00E94720BF090AA02C09156
:101BE000AF021091AE02CC2309F44AC00C2F123080
:101BF00008F044C0113009F040C0DC2F00E081ED56
:101C000090E00E94550B8FEC90E0011102C08DEC2A
:101C100090E00E94550B8BEC90E0D11102C089EC52
:101C200090E00E94550B61E084E00E94720B85EC0D
:101C300090E0C11102C081EC90E00E94550B61E080
:101C400088E00E94720B8FEB90E0F11002C08DEBE8
:101C500090E00E94550B61E08AE00E94720B8AEBD3
:101C600090E00E94550B62E0812F90E0DF91CF91D0
:101C70001F910F91FF900C94B60D00E0D0E0BFCF04
:101C800083ED90E00E94550BD0E0C1CFEF92FF9220
:101C90000F931F93CF93DF93CDB7DEB762970FB645
:101CA000F894DEBF0FBECDBF082FF92E6091F5036B
:101CB0006D7F6093F503686080EE93E00E946F0B88
:101CC00080EE93E00E94A40B60E080E00E94720B23
:101CD00089E291E00E94550B60E083E00E94720B64
:101CE000E09098021DEE1E0D1A3018F480E20E945A
:101CF0004C0B612F70E090E080E04AE00E94680D9C
:101D00001CEE1E0D60E086E00E94720B8DE191E0FA
:101D10009A83898385E191E09C838B838BE091E0BA
:101D20009E838D8382E091E098878F8389EF90E096
:101D30009A87898780EF90E09C878B8788EE90E078
:101D40009E878D8782EE90E0988B8F8789ED90E05B
:101D50009A8B898B85ED90E0193040F4E12FF0E00B
:101D6000EE0FFF1FEC0FFD1F818192810E94550B2A
:101D700061E080E00E94720B80919702882319F045
:101D80008EE30E944C0B1930A0F589E0189FF001FA
:101D90001124E65DFE4F8781823059F507FD03C0AF
:101DA00080E30E944C0B0034E0F480E30E944C0B73
:101DB0000032B8F480E30E944C0B003190F480E3D1
:101DC0000E944C0B083068F480E30E944C0B0430F6
:101DD00040F480E30E944C0B023018F480E30E9430
:101DE0004C0B602F70E090E080E042E00E94680DB4
:101DF00008C0812F0E94FC07682F802F9F2D0E9412
:101E0000B60D80919702811144C0193048F489E0E1
:101E1000189FF0011124E65DFE4F80858823D9F1DB
:101E200061E08EE00E94720B86E291E062960FB64E
:101E3000F894DEBF0FBECDBFDF91CF911F910F9100
:101E4000FF90EF900C94550B89E0189FF00111243E
:101E5000E65DFE4F808581111EC061E08091940295
:101E60000E94720B6091F503862F82608093F503C8
:101E70006A6080EE93E062960FB6F894DEBF0FBE04
:101E8000CDBFDF91CF911F910F91FF90EF900C94F8
:101E90006F0B1930C8F262960FB6F894DEBF0FBE12
:101EA000CDBFDF91CF911F910F91FF90EF900895DB
:101EB00080EE93E00E94A40B60E080E00E94720B31
:101EC00081EA90E00E94550B61E080E00E94720B75
:101ED00088E990E00E94550B60910C0170910D0112
:101EE00090E080E04AE00C94680D0F931F93CF932D
:101EF000DF930E941B0480E20E943D018DE394E089
:101F00000E949D0681112AC180919A02811108C107
:101F100089E294E00E94BC068091FA038F3F09F4A5
:101F200057C00E941B048BEF93E00E94BC0641E067
:101F300068E08BEF93E00E94A90941E066E08BEF37
:101F400093E00E94A90941E067E08BEF93E00E94D3
:101F5000A90967E080EE93E00E9485096091E5039E
:101F6000662329F041E08BEF93E00E94EF0941E006
:101F70006091E4038BEF93E00E94EF0941E06091F0
:101F8000E6038BEF93E00E94EF0907EE13E0C0EE4B
:101F9000D3E0F80161918F0141E08BEF93E00E9463
:101FA000EF09F3E00B3E1F07A1F705EE13E040E059
:101FB0006F858BEF93E00E94EF096F85603120F40D
:101FC0008BEF93E00E94890821960C171D0779F783
:101FD0008091F40388608093F40382E08093F80397
:101FE0001092F9038BE39DE00197F1F740E06091D7
:101FF000E40380EE93E00E94750940E06091E603FF
:1020000080EE93E00E9475096091E5036F3F29F02F
:1020100040E080EE93E00E9475096091F40364FD56
:1020200081C063E080EE93E00E940C0ACBE4D6E42A
:10203000CE010197F1F763E080EE93E00E940C0A75
:102040002197F1F763E080EE93E00E940C0A83E5AC
:1020500092E00197F1F762E080EE93E00E940C0AB3
:102060006091F403606280EE93E00E946F0B84E065
:102070008093F5036CE080EE93E00E946F0B80EE9E
:1020800093E00E94A40B82E08093F60366E080EE6A
:1020900093E00E946F0B40E065E089E294E00E94CB
:1020A000A90965E089E294E00E94890844E050E0D3
:1020B000609129048CEF93E00E94F70843E050E020
:1020C000609129048EE094E00E94F70842E050E01D
:1020D0006091290487E194E00E94F70841E050E014
:1020E0006091290485E094E00E94F70850E040E008
:1020F0006091290480E294E00E94F70880910E012B
:1021000090910F01429711F40E94580F109299027A
:1021100010929802109296021092950210929702D5
:1021200081E01DC0606280EE93E00E946F0B8BE443
:1021300096E40197F1F76091F403606280EE93E01A
:102140000E946F0B83E592E00197F1F76091F40331
:10215000606280EE93E00E946F0B82CF80E08093FC
:102160009A02DF91CF911F910F9108951F93CF9302
:10217000DF93C0919502D09196022196D09396025A
:10218000C093950261E080E00E94720BC038D105D7
:1021900038F08EE890E0DF91CF911F910C94550BB1
:1021A000C0919502D09196028C2F0E943D018DE343
:1021B00094E00E949D06182F882311F08430D1F4FA
:1021C00085E990E00E94550BDD27C031D10518F458
:1021D00080E30E944C0BBE0190E080E040E10E9451
:1021E000680D80E2143009F48FE3DF91CF911F91E5
:1021F0000C944C0B2196D0939602C0939502C6CFB7
:10220000FC0101900020E9F73197AF01481B590B01
:10221000BC0180EE93E00C94A903CF93DF9361E0BF
:1022200080E00E94720B8091AA02811106C086EBA9
:1022300090E0DF91CF910C94550BD091AE02C091FC
:10224000B50164E080918B0290918C020E94B60DE2
:1022500084EB90E00E94550B81EB90E00E94550BBF
:1022600062E08D2F90E00E94B60D8DE20E944C0B33
:1022700080E3C11181E30E944C0B8DE20E944C0B64
:102280008091AB0280FD06C08FEA91E0DF91CF9193
:102290000C9400118DEA91E0F9CF85ED8093BC009C
:1022A0008091B7039091B803A091B903B091BA039C
:1022B0000796A11DB11D23E0B695A7959795879523
:1022C0002A95D1F72091BC0024FD03C01092B503DC
:1022D00008954091B7035091B8036091B90370918C
:1022E000BA03452B462B472B69F30097A105B1058F
:1022F00041F02AE22A95F1F700C00197A109B1093E
:10230000E1CF8091B6030C9432042F923F924F920A
:102310005F926F927F928F929F92AF92BF92CF9275
:10232000DF92EF92FF920F931F93CF93DF9300D032
:1023300000D0CDB7DEB79C838B837C0141E8E40EEF
:10234000F11C6C0150E8C50ED11C8C010E571F4FBB
:102350008D579F4F2C018B819C818C579F4F4C0137
:1023600022242A94AB80BC8097E8A90EB11CEB8193
:10237000FC81EB57FF4FFA83E983F7018081F60177
:102380009081891709F4BAC0EB81FC81E80FF11D37
:10239000308037FE6DC0F8019081891739F0F50162
:1023A000208131812F5F3F4F31832083F80180836B
:1023B000F2012082832D8076F401803609F441C039
:1023C000832D829586708E5F8083F8012081F401D1
:1023D0008081820F9927991F813891059CF180E8AF
:1023E000682E621AF894F6014081F8018081841702
:1023F00008F044C0F42FF81B8F2FF60180837894E7
:10240000F80160814617E8F5712C50E06B817C8102
:10241000CB01860D971D0E949126F80160814B81AA
:102420005C81460F511DBA01A3018B819C810E94E2
:102430009126F7018081F8019081891BF701808343
:10244000F8011082F70190819F5F9083F8018081ED
:10245000392F381B97FF02C0F7011082F20120814B
:10246000F40190819317A9F03226F201308285CFD2
:10247000F40180818111E6CF3082A7CF862D840FB1
:10248000BCCF461B50E08B819C81860F911DBC0107
:10249000CCCF32122AC04B815C81480F511DCA013A
:1024A000E981FA81408151814F5F5F4F51834083C1
:1024B000F7013081F80130830097B1F20F900F904F
:1024C0000F900F90DF91CF911F910F91FF90EF90A0
:1024D000DF90CF90BF90AF909F908F907F906F9044
:1024E0005F904F903F902F900895F50180819181EA
:1024F00001969183808390E080E0DACF90E080E0E5
:10250000DDCF6F927F928F929F92AF92BF92CF92C8
:10251000DF92EF92FF920F931F93CF93DF93E0919F
:10252000A102F091A202D581D3709780868073803A
:102530006280A82EE894A7F887FD9AC0D061B62ED5
:10254000E894B7F867FDD860C42EE894C7F811E1A5
:1025500047FF10E1D22EE894D7F827FD1260F02E45
:10256000E894F7F807FD14600E2D0F77E7FC18606C
:10257000C92DC82588E0C827C725C625C027CF256F
:10258000CD25CC25CB25CA25CD27C12765EE86EBE9
:1025900091E00E94170760E186EB91E00E94170727
:1025A000662D86EB91E00E941707672D86EB91E080
:1025B0000E94170762E086EB91E00E9417076D2FDB
:1025C00086EB91E00E941707682D86EB91E00E9450
:1025D0001707692D86EB91E00E9417076A2D86EB9D
:1025E00091E00E9417076B2D86EB91E00E94170780
:1025F000612F86EB91E00E9417076C2D86EB91E02E
:102600000E9417076D2D86EB91E00E9417076F2D32
:1026100086EB91E00E941707602F86EB91E00E9405
:1026200017076C2F6F7786EB91E00E9417076FEF0B
:1026300086EB91E00E94170786EB91E00E948511DE
:102640009093A2028093A102009711F00E9432079A
:1026500081E0DF91CF911F910F91FF90EF90DF907C
:10266000CF90BF90AF909F908F907F906F90089584
:10267000D46165CF0F931F93CF93DF93E82FF0E0E2
:1026800099E0899FD0011124A65DBE4F15962D912A
:102690003C9126173707C0F08B01C82FEE0FFF1FA4
:1026A000E050FF4F71836083CF5FCC0FD0E0612F8C
:1026B000CE010E94C522602FCE010196DF91CF91FD
:1026C0001F910F910C94C522DF91CF911F910F9113
:1026D0000895893010F40C943A130895CF93DF9342
:1026E0006DE490E080E00E94C5226AE581E090E020
:1026F0000E94C522CAE2D1E069817A8188810E9464
:102700006913299681E0CB37D807B1F7DF91CF91D4
:1027100008951F920F920FB60F9211242F933F939B
:102720008F939F93AF93BF938091B1029091B20228
:10273000A091B302B091B4023091B00223E0230F14
:102740002D3758F50196A11DB11D2093B00280933D
:10275000B1029093B202A093B302B093B4028091FD
:10276000B5029091B602A091B702B091B80201965D
:10277000A11DB11D8093B5029093B602A093B7023C
:10278000B093B802BF91AF919F918F913F912F91DC
:102790000F900FBE0F901F90189526E8230F0296FA
:1027A000A11DB11DD2CF1F920F920FB60F9211240F
:1027B0002F933F934F935F936F937F938F939F9349
:1027C000AF93BF93EF93FF938091B900887F8036DA
:1027D00009F44AC0F0F5883209F4A7C018F5803131
:1027E00009F49BC0B8F4882309F4F9C0883009F4CF
:1027F00094C0FF91EF91BF91AF919F918F917F9185
:102800006F915F914F913F912F910F900FBE0F905D
:102810001F901895883109F488C0803251F7809351
:10282000B30314C0803409F49DC040F48033B9F37D
:102830008833F9F68093B30385ECB0C0803509F492
:1028400085C0883509F496C0883499F60E944D11E8
:10285000D0CF883909F48CC038F5883729F050F486
:10286000883611F0803729F683E08093B503109203
:10287000890257C0883809F47BC0803919F0803844
:1028800009F0B7CF80918902803208F071C0E091E1
:10289000890281E08E0F809389028091BB00F0E075
:1028A000E759FD4F80833DC0803B39F0E0F4803A2A
:1028B00009F479C0883A09F09CCF84E08093B5038D
:1028C0001092680210926702E0918B03F0918C03E2
:1028D00009958091670281110FC081E080936702A2
:1028E0001092470209C0803C09F4A6CF883C09F445
:1028F000A3CF883B09F07DCFE091680281E08E0F85
:1029000080936802F0E0E95BFD4F80818093BB001B
:10291000909168028091670229C080919003809312
:10292000BB0085EC8093BC0064CF9091B203809192
:10293000B103981758F5E091B20381E08E0F8093B0
:10294000B203F0E0EF56FC4F8081E9CFE091B20393
:1029500081E08E0F8093B2038091BB00F0E0EF56D0
:10296000FC4F80839091B2038091B1039817C8F215
:1029700085E8D8CFE091B20381E08E0F8093B20357
:102980008091BB00F0E0EF56FC4F80838091B40350
:1029900081115CCF81E080938F0384EA8093BC0037
:1029A0001092B50326CF85EC8093BC001092B5033E
:1029B00080918902803230F4E0918902F0E0E75999
:1029C000FD4F10826091890270E0E0918903F091DF
:1029D0008A0389E692E00995109289020ACF109243
:1029E000B30334CF1F920F920FB60F921124DF92D0
:1029F000EF92FF920F931F932F933F934F935F9309
:102A00006F937F938F939F93AF93BF93CF93DF93F6
:102A1000EF93FF93B19A8091D1029091D2028054AA
:102A20009C4F9093D2028093D1028091D1029091D9
:102A3000D202909389008093880080914502882378
:102A400071F010924502189B26C081E08093D70256
:102A5000B59A80916F00806280936F001CC0809156
:102A6000D6028F5F8093D6028091D702843009F01E
:102A700043C08091D602893030F58091CD0290E03C
:102A8000959587958093CD02189B05C08091CD02C6
:102A900080688093CD02FF91EF91DF91CF91BF913C
:102AA000AF919F918F917F916F915F914F913F91E6
:102AB0002F911F910F91FF90EF90DF900F900FBE1D
:102AC0000F901F901895B59A80916F008062809347
:102AD0006F008091CB029091CC02189929C0FC0123
:102AE000E957FF4F808191810196918380831092F5
:102AF000D60281E08093D7028091D7028330E9F536
:102B0000E091D402F091D50280812091D30233B1BB
:102B100090E0022E02C0959587950A94E2F78327EC
:102B200080FD11C01092D60282E08093D70225C0AA
:102B30006091CD020E94170780E090E0892BB9F2E6
:102B40000E940000D4CF8091D602893008F043C0A3
:102B50003091CD0281E090E001C0880F2A95EAF71C
:102B6000908130FF36C08095892380838091CD028B
:102B700090E0959587958093CD028091D702823021
:102B800099F48091D60281118EC0E091D402F09127
:102B9000D50280819091D30221E030E001C0220F64
:102BA0009A95EAF7822B80838091D702813009F0D1
:102BB00072CF8091D602882309F44ACF8091D60241
:102BC000883308F468CF1092D70280916F008D7F10
:102BD00043CF892BCACF8091D602893059F43081F6
:102BE00081E090E001C0880F2A95EAF78095832361
:102BF0008083C3CF8091D8028F5F8093D802909159
:102C0000D902891750F51092D6028091CF02909187
:102C1000D002A091D802A80FB92FB11D8C9180933A
:102C2000CD02808141E050E001C0440F2A95EAF7CF
:102C3000842B808380918400909185008A5A9C4FD8
:102C40009093D2028093D1028091D1029091D202CE
:102C5000909389008093880090CF81E08093CE028A
:102C60000091CF021091D002E090CB02F090CC0204
:102C7000C8010E942607D82ED0E0C0E0CD1548F448
:102C8000F801EC0FFD1F6081C7010E941707219614
:102C9000F5CF80E090E0892B11F00E9400001092A7
:102CA000D60281E042CF8091D6028F3008F47CCFEB
:102CB000E091D402F091D50220813091D30281E0DD
:102CC00090E001C0880F3A95EAF7809582238083CF
:102CD0001092D60281E08093D702E091CB02F0916E
:102CE000CC02E357FF4F80819181019691838083CD
:102CF0005BCF1F920F920FB60F9211248F939F9369
:102D0000EF93FF93B59AEFE6F0E080818F7D8083AB
:102D1000809186009091870080529E4F9093D202BE
:102D20008093D1028091D1029091D2029093890038
:102D300080938800B19A80818260808384E0809350
:102D4000D7021092D60281E080934502FF91EF9165
:102D50009F918F910F900FBE0F901F901895893003
:102D600028F529E0829FF0011124E65DFE4F858160
:102D70009681803127E29207C8F4883E23E09207CB
:102D8000B8F484369105B0F40A97B0F481E09091DC
:102D90009402891B990B8530910580F4880F991F47
:102DA000FC01E05EFE4F80819181089585E0EFCFC8
:102DB00084E0EDCF83E0EBCF82E0E9CF90E080E0EC
:102DC0000895CF931092400410923F0488EE93E050
:102DD000A0E0B0E08093410490934204A0934304A8
:102DE000B093440483E991E090933E0480933D04C2
:102DF00086E080936C0480E880936D0488E0809383
:102E00006E0410926F04109270041092710410926C
:102E1000720461E086E00E9430020E949D0360938C
:102E20006F047093700480937104909372041092F5
:102E3000570410925E04109265041092660410927A
:102E400067041092680481E08093640480936104B5
:102E50001092620492E0909363048093560488E198
:102E600090E090935B0480935A040E946C259093A9
:102E7000600480935F04009709F4F0C028E1FC012E
:102E800011922A95E9F788E090E090935904809395
:102E900058048AE090E090935D0480935C048091F4
:102EA0005704882341F061E08AE00E94300260E02C
:102EB0008AE00E940202E7E1F2E0E491F0E0EE0F26
:102EC000FF1FED5FFD4F8591949190936A0480936D
:102ED0006904E9EFF1E0E491E0936B04C4E0C0938E
:102EE000510485E08093520484E690E09093550469
:102EF0008093540460E084E00E94300260E080919E
:102F000052040E94300260E0809151040E9402024B
:102F100060E0809152040E9402028DE38093490494
:102F20008DE394E09093500480934F0410924A04F0
:102F30008FEF80934B0480934C0410924E041092B8
:102F40004D0410923B0410923A0410923C041092EB
:102F5000E3031092E2031092FA031092F4038FE05D
:102F60008093E4038EE08093E5038DE08093E60395
:102F70008CE08093E7038BE08093E8038AE0809302
:102F8000E90389E08093EA031092EF0381E08093E4
:102F9000F00382E08093F10383E08093F203C09317
:102FA000F30385EA91E09093E1038093E0031092AC
:102FB000FC031092FD031092FE031092FF038AE0BF
:102FC00090E0909301048093000410920204109208
:102FD0000304109205041092060410920704109244
:102FE000080490930A048093090410920B04109231
:102FF0000C0410920E0410920F0410921004109200
:1030000011049093130480931204109214041092EC
:1030100015041092170410921804109219041092BB
:103020001A0490931C0480931B0410921D041092A8
:103030001E04109220041092210410922204109277
:103040002304909325048093240410922604109264
:1030500027048CE18093DF03CF91089510925B04E5
:1030600010925A04109259041092580412CFCF9320
:10307000DF93CDB7DEB76D970FB6F894DEBF0FBE06
:10308000CDBF789484B5826084BD84B5816084BDF1
:1030900085B5826085BD85B5816085BD80916E00F6
:1030A000816080936E001092810080918100826027
:1030B0008093810080918100816080938100809164
:1030C00080008160809380008091B1008460809353
:1030D000B1008091B00081608093B00080917A004F
:1030E000846080937A0080917A00826080937A0075
:1030F00080917A00816080937A0080917A00806864
:1031000080937A001092C10010E0E12E11E0F12EC0
:1031100002E0C02ED12CC6010E94BD22182FC6018C
:1031200001960E94BD22212F30E0322F2227820FEC
:10313000932F911DD7018D939D937D01B2E0CB0E0E
:10314000D11CE4E1CE16D10431F780910C019091AD
:103150000D01029728F462E070E086E00E943A13C5
:1031600080910E0190910F01429711F00E946E1311
:103170000E94750FEAEDF2E08FE8DF011D928A955B
:10318000E9F761E087E00E943002E6EFF1E0249188
:10319000E4E1F2E0E491F0E0EE0FFF1FED5FFD4FA0
:1031A0004591549180E091E031E0291741F08F5F23
:1031B000932F082E01C0990F0A94EAF7F6CF509387
:1031C000D5024093D4028093D3028AED92E090938B
:1031D000CC028093CB022098E091D402F091D502EA
:1031E00020813091D30281E090E001C0880F3A95B0
:1031F000EAF78095822380831092800011E010937B
:1032000081001092D702B59A80916F0080628093FE
:103210006F0080918100887F81608093810010928F
:10322000BA021092B90284E08093BB028BEB8983CF
:103230008BE78A831B82CE0101960E94320710928F
:10324000AE0210928C0210928B021092A602109283
:10325000A7021092A8021092A9021092AF020E9437
:103260001B048DE30E943D018DE394E00E949D06C6
:10327000811102C01093A50280E70E943D018DE3F9
:1032800094E00E949D06811175C081E080938A02BE
:1032900080913A0490913B04009711F00E94082617
:1032A00086E090E00E946C258C0180E7F801808325
:1032B0008DE394E092838183138280E290E0958392
:1032C000848310933B0400933A040E941B0481E022
:1032D000D80113968C93C8010E94F806882309F43C
:1032E00049C081E2898B41E050E0BE016F5E7F4FB3
:1032F00080913A0490913B040E94210810922B0483
:1033000010922A0410922D0410922C0410922F0473
:1033100010922E0410923104109230041092330453
:103320001092320410923504109234041092370433
:103330001092360410923904109238040E945508F5
:1033400081E8898341E050E0BE016F5F7F4F80914B
:103350003A0490913B040E9421088FEE898341E05A
:1033600050E0BE016F5F7F4F80913A0490913B0423
:103370000E94210880915C0490915D0497FD08C033
:1033800061E00E94300260E080915C040E940202D1
:1033900081E08093570444244A94542C612C712C6E
:1033A000FE013397FB8FEA8F21E030E02C0F3D1FA9
:1033B0002C5F3F4F3D8F2C8F19E022242394312C1A
:1033C0000E949D03C0906F04D0907004E09071043F
:1033D000F09072046C197D098E099F0965317105A1
:1033E0008105910500F10E949D0360936F04709325
:1033F0007004809371049093720460916D048091C5
:103400006E04613C20F0819580936E0402C06032AE
:10341000D0F380916E04680F60936D0470E080912A
:103420006C040E941B030E949D03C0909002D090E8
:103430009102E0909202F09093026C197D098E093E
:103440009F096E3771058105910528F10E949D0342
:1034500060939002709391028093920290939302F2
:1034600090918F0281E0982790938F02992399F091
:103470009091AD0298279093AD02992361F09091BD
:103480008E02982790938E02992329F090918D02B5
:10349000892780938D020E94750F80919A02813056
:1034A00009F03EC065E089E294E00E94C80830E27D
:1034B000839FC00111248095909561E085FD60E0B7
:1034C00080EE93E00E9485096FEEC62E63E0D62E53
:1034D000F12CE12C7FE1B72E0E2DD6016D916D01FF
:1034E00080E0603120F48BEF93E00E94C80890E008
:1034F00002C0880F991F0A95E2F780959095B8222F
:10350000BFEFEB1AFB0AE5E0EE16F10429F7809114
:103510009902B1106BC0882309F4B5C010929902CA
:103520008AED92E00E948511FC019093A2028093A3
:10353000A102892B09F40EC582819091100194FF9C
:10354000E6C28B3709F0E6C280818F3E29F482857E
:1035500086FD02C0806482878081877F873E09F074
:10356000D9C2858140E8849F900111248481820F13
:10357000932F911DEE24EA942FE3F22ED701A81B7E
:10358000B90BB093A002A0939F02828586FF16C656
:103590008091B9029091BA02181619060CF0BAC2BD
:1035A0008EE0ACEBB2E001900D928A95E1F781E0FC
:1035B0000E94170D8091BB0282FF11C08091C10251
:1035C000B0E88B9F900111248091C002820F932F4D
:1035D000911DF701E81BF90BCF010E942E0D82E02F
:1035E00090E09093BA028093B90294C28B1509F4CB
:1035F0004AC080919802B0929902811105C0B2FE32
:103600008FCF0E94DC0B8CCF8130F1F4B3FE05C06C
:103610000E94580F1092980283CFB2FE03C00E94FE
:10362000CC0B7ECFB1FE2FC080EE93E00E94A40BA6
:1036300060E080E00E94720B80E691E00E94550BF2
:103640000E940D118AE04EC08230C9F4B3FCD9CF7C
:10365000B1FE03C00E94BC0B63CFB2FE61CF87E016
:103660008093980280EE93E00E94A40B60E080E0DB
:103670000E94720B86E591E00E94550B51CF873076
:10368000E1F4B3FCCCCF80919802873009F01DC2E1
:1036900061E080E00E94720B8091AA02882309F405
:1036A00010C28091AC020091AB02873108F41BC2BA
:1036B00081EB91E00E9400111AC28A30B1F4B4FC8F
:1036C000A0CFB1FEE0CF80EE93E00E94A40B60E0BB
:1036D00080E00E94720B87E491E00E94550B0E94EB
:1036E000E40D8BE0809398021BCF8B3069F4B4FE1D
:1036F000CACF80EE93E00E94A40B60E080E00E94BD
:10370000720B80E491E09ACF843108F4BEC19091AD
:10371000DF03981708F4A6C10CEE080FB0FE50C0E6
:10372000D0909702DD2009F4FBCE60919502709154
:103730009602E02EF12C0630E9F4672BA9F40E94E2
:103740006E13F701EE0FFF1FE050FF4F8081918154
:103750000E94460E61E08AE00E94720BDD2009F4AF
:10376000E3C689E391E0E2C662E070E086E00E9491
:103770003A13E7CF1E9DF0011F9DF00D1124E65D69
:10378000FE4F8085238134816217730708F4C1C618
:10379000258136812617370708F4BBC68111B9C6C3
:1037A000802F0E946913093060F28FEF9FEF0E9413
:1037B000460E61E08AE00E94720BD3CFD12CC1CFBC
:1037C000B4FE0EC080919702882309F443CF109273
:1037D0009702E02F093008F4C7C08FEF9FEFCBC0EE
:1037E000B1FE58C080919702811120C00930F0F4D9
:1037F000802F90E0189FF001199FF00D1124E65DD5
:10380000FE4F2085211112C0880F991FFC01E05046
:10381000FF4F80819181909396028093950221E0E1
:1038200020939702109294020E94460E8091970274
:10383000882309F475CEF0909402F394F0929402E8
:10384000093040F4109FF0011124E65DFE4F87819E
:10385000823061F0802F0E94FC0790E00196F816FC
:10386000190639F481E08093940203C0F9E0FF1651
:10387000C9F361E0809194020E94720B6091F5039C
:10388000862F82608093F5036A6080EE93E00E9449
:103890006F0B46CEB3FE72C020919702222309F42B
:1038A00056C0C0909502D09096028FEF9FEF0930DE
:1038B00008F040C0A02EB12C1A9DF0011B9DF00D08
:1038C0001124E65DFE4FF78021E02F1580F0802F58
:1038D0000E94AF168C0D9D1D9093960280939502C9
:1038E0008C159D0520F4D0929602C09295022091ED
:1038F000950230919602F2E0FF1213C0809194027B
:1039000048E050E0481B5109D10102C0AA0FBB1F7B
:103910004A95E2F7CD01822B932B909396028093E8
:1039200095021A9DF0011B9DF00D1124E65DFE4FDE
:103930008581968120919502309196028217930796
:1039400008F081C0D0929602C09295027CC08F5F31
:1039500080939802891710F090939802E091980252
:10396000E451E93008F039CFF0E0EE0FFF1FE050EE
:10397000FF4F808191810E94460ED2CDB2FEDFC5FD
:1039800090919702992309F463C0C0909502D0905A
:10399000960290E080E0093008F043C0A02EB12CE0
:1039A0001A9DF0011B9DF00D1124E65DFE4FF7807E
:1039B000B1E0BF1588F0802F0E94AF16F601E81B1A
:1039C000F90BF0939602E0939502CE16DF0620F4F1
:1039D000D0929602C0929502209195023091960263
:1039E00042E0F41215C08091940248E050E0481B78
:1039F0005109D10102C0AA0FBB1F4A95E2F7CD01C0
:103A000080959095822393239093960280939502BC
:103A10001A9DF0011B9DF00D1124E65DFE4F838180
:103A2000948120919502309196022817390720F44D
:103A3000D0929602C0929502809195029091960242
:103A4000019609F47FCF809195029091960293CFD1
:103A5000815080939802833109F080CF84E1809374
:103A600098027CCF883C89F4B2FE03C00E94AC0B64
:103A700057CDB4FCD4CDB1FE53CD84E180939802F0
:103A8000809100019091010176CF823D09F05DC5E2
:103A9000B3FCE0CDB4FCC3CDB1FE42CD83ED809349
:103AA000980260E088E00E94720B80E20E944C0B5A
:103AB000EFEFFFEFF0939602E09395020E94B610AD
:103AC0002FCD8CE291E00E94550B809198028A30B4
:103AD00011F40E940D11809198028B3009F020CDD5
:103AE0000E94E40D1DCD62E090E00E94B60D8AE3D5
:103AF0000E944C0B0C3330F462E0802F90E00E9467
:103B0000B60DE3CF81EB91E00E940011DECF8B3741
:103B100009F422CDE090A102F090A202C7010E9418
:103B20002607803109F016C2D7018C91853E09F035
:103B300011C214968C911497823009F00BC216961C
:103B40002C91169780910001909101012817190678
:103B500009F0E7C117962C91179780910E0190916B
:103B60000F012817190609F0DCC115968C911597DD
:103B700090E09C01E4E0220F331FEA95E1F7207802
:103B80001996AC901997E894A7F82A2930E0322FBB
:103B9000222705E0880F991F0A95E1F7807818968B
:103BA000AC90E894A7F8A82AA20EB32EB11C650128
:103BB000B1E0CB1AD1089C2CE8E0EC1548F0C19E8E
:103BC000F0011124E65DFE4F31E08781813009F07C
:103BD00030E0D70113968C918130F1F5B9E0CB1626
:103BE000D104D0F5F701828590E063856F77AC0151
:103BF0005695542F442757954795262F240F332346
:103C000009F4DFC246E0880F991F4A95E1F78078F2
:103C100064856F77862B682F70E0762F6627620F9A
:103C2000711D8C2D0E946913E091A102F091A202F6
:103C3000838180648383F8E04FEFF91530F0F6015B
:103C4000EE0FFF1FE050FF4F4081E12C00E020E02D
:103C500060E08A2D0E948112E091A102F091A202FF
:103C600083818230B9F429E0C216D10498F482E449
:103C7000838338E04FEF391530F0F601EE0FFF1F68
:103C8000E050FF4F4081E12C00E020E060E08A2D11
:103C90000E948112E091A102F091A20283818330FF
:103CA00009F04BC049E0C416D10408F046C0628553
:103CB00070E0CB019695982F88279795879599273F
:103CC00023852F77280F392F311D86E0660F771F48
:103CD0008A95E1F76078772784858F77682B58E09D
:103CE0008FEF9FEF591538F0F601EE0FFF1FE050F0
:103CF000FF4F8081918126233723232B09F463C250
:103D0000682B792B8C2D0E946913E091A102F09110
:103D1000A20283818064838388E04FEF891530F0AD
:103D2000F601EE0FFF1FE050FF4F4081E12C00E055
:103D300020E060E08A2D0E948112E091A102F091C2
:103D4000A2028381853009F084C099E0C916D104AC
:103D500008F07FC0828590E0BC0136E0660F771FD7
:103D60003A95E1F7A62FA078FA2E64856F77F62AA8
:103D7000BC0145E0660F771F4A95E1F7062F0078F2
:103D800065856F77062BBC0154E0660F771F5A9547
:103D9000E1F7B62FB0788B2E66856F77862A63851C
:103DA0006F779695982F882797958795680F70E07D
:103DB0008C2D0E946913EE24E394EC0C6F2D70E0BF
:103DC0008E2D0E946913E2E0FE2EFC0C602F70E045
:103DD0008F2D0E94691303E00C0D682D70E0802F79
:103DE0000E946913E091A102F091A2028381806494
:103DF0008383E8E04FEFE91530F0F601EE0FFF1F87
:103E0000E050FF4F4081F8E02FEFFE1538F0EE2D27
:103E1000F0E0EE0FFF1FE050FF4F208138E08FEF02
:103E20003F1538F0EF2DF0E0EE0FFF1FE050FF4F91
:103E30008081EE24EA94093038F4E02FF0E0EE0FB0
:103E4000FF1FE050FF4FE080082F60E08A2D0E94A6
:103E50008112E091A102F091A20283818630B1F536
:103E600049E0C416D10490F586E4838358E04FEF0F
:103E7000591530F0F601EE0FFF1FE050FF4F408163
:103E8000E1E0EC0D2FEFE93030F4F0E0EE0FFF1F32
:103E9000E050FF4F2081E2E0EC0D0FEFE93030F40D
:103EA000F0E0EE0FFF1FE050FF4F0081E3E0EC0D6C
:103EB000EE24EA94E93030F4F0E0EE0FFF1FE0501A
:103EC000FF4FE08060E08A2D0E948112E091A10204
:103ED000F091A2028381883061F488E48383409169
:103EE0000E01E42E0091000120E06DE08AE30E94C3
:103EF0008112E091A102F091A20283818F3089F4B6
:103F00000E946E13E091A102F091A202838180646D
:103F10008383E12C00E020E040E06B2D8A2D0E949D
:103F20008112E091A102F091A2028681811112C05A
:103F3000878181110FC08381873061F487E4838397
:103F400040910E01E42E0091000120E06DE08AE333
:103F50000E9481120E949D03C0909B02D0909C02FF
:103F6000E0909D02F0909E02AB01BC014C195D09EE
:103F70006E097F09433451056105710508F46BC072
:103F8000D701C6018D5B9F4FAF4FBF4F80939B0200
:103F900090939C02A0939D02B0939E028091B902DF
:103FA0009091BA02029709F043C08091C0029091AB
:103FB000BF02890F8093C00287FF25C09091BB028A
:103FC0008F778093C0028091C1028F5F8093C1027E
:103FD00087FF19C08DE68093C002892F81708858B1
:103FE0008093C1028091C2028F5F8F3708F0F0C0CA
:103FF0008093C20291FF00C18FEE8093BC028CEBD4
:1040000092E00E9432078091BB0282FF11C0209192
:10401000C102A0E82A9FC00111242091C002280FEC
:10402000392F311D8FEF9FE3821B930B0E942E0DC2
:104030008091B9029091BA02892B69F48BEB898344
:104040008BE78A831B82CE0101960E943207309251
:10405000BA022092B9028091AF02882389F120919F
:10406000AE0240E6C42E4AEED42EE12CF12C2223DF
:1040700059F030E050E040E060E67AEE80E090E019
:104080000E94252569017A010E949D038090A60265
:104090009090A702A090A802B090A902681979098F
:1040A0008A099B09C616D706E806F90648F48BEB81
:1040B00089838BE78A831B82CE0101960E94320797
:1040C0008091A502882309F4A9C061E08091490488
:1040D0000E94430510928E0380938D03813009F472
:1040E0008FC082E890E090934E0480934D048091BD
:1040F0004A0482FD93C08091A402882309F491C0F0
:104100009090AC020091AB02E090AA02B090AF0296
:10411000D090AE02609106017091070189E00E9483
:104120001B03BB2021F0AA24A394AD1408F0A12CFA
:1041300060910801709109018BE00E941B03BB2074
:1041400019F0FF24F394DF10F12C60910A017091B3
:104150000B0183E00E941B03809104018824839457
:10416000880E20915E04821609F47CC0C0905F0422
:10417000D0906004215070E060E059F08F3F09F06A
:1041800065C030E050E040E0C301B2010E94472525
:10419000B901F60140915A0450915B04CF018C198A
:1041A0009D098417950708F05BC04081469FC001B8
:1041B000479F900D112490833196ECCF83E090E0DF
:1041C00010CA80E028CD60957095682379239ACD38
:1041D00083E48093C2028091C4028F5F87FD03C095
:1041E0008093C40207CF88E68093C4028091C50201
:1041F0008F5F8093C502FECE80E00E94170D03CF33
:1042000080914F0490915004DC01ED91FC91028467
:10421000F385E02D099580934A046BCF1092A40298
:104220006FCF81E08093A4029091A302913009F4B2
:1042300082E08093A3028091A502882309F460CFD5
:104240008091A3028C6F0E94A0065ACF882D90E027
:10425000982F88270197622F70E00E94112599CF2F
:1042600080925E04D12CC12C88E0882EB8E0CB1659
:10427000D10409F4EAC0E1108DC0BB2009F4A9C043
:10428000A110A7C0F110A5C080915F0490916004B7
:10429000892B09F47BC00E9478032091650430913A
:1042A000660440916704509168046217730784079D
:1042B000950740F4609365047093660480936704E7
:1042C00090936804209165043091660440916704DE
:1042D00050916804621B730B840B950B6C32714018
:1042E00081059105C0F2F89480915A0490915B0485
:1042F0009A8B898BE0915F04F0916004DF01119645
:104300008081898F90915604E0916904F0916A044C
:1043100080916B04992309F460C09081982B988F49
:104320009081809589238F8B8F898C8B8B8A388D98
:104330004F89698D5B892C8989899A89308367FDCA
:10434000232F5A952083242F39F0661F00C00000C8
:104350004083000000C0F2CF58E06D914083000020
:10436000019761F7F0936A04E0936904698F5B8BAE
:104370002C8B9A8B898B78940E94780360936504C8
:10438000709366048093670490936804FFEFCF1ADC
:10439000DF0A6CCF40E050E06FEF70E0BB20A9F087
:1043A00040E05FEF60E070E0A1100FC0FF2009F473
:1043B0006BCF809110014FEF5FEF6FEF70E080FDEA
:1043C00004C04FEF50E060E070E0C6010E94700151
:1043D0005BCF40E050E0BA01F8CF9081982B988FE6
:1043E0009081809589238F8B8F898E8B8D8A388DD4
:1043F0004F89698D5D892E8989899A89308367FD06
:10440000232F00C000C0208300C000C000C000C037
:1044100000C040830000242F5A9541F0661F000021
:1044200000C000C000C000C000C0E8CF58E06D91DF
:1044300000C0408300C0019709F7F0936A04E0933D
:104440006904698F5D8B2E8B94CF8091100181FF61
:1044500023C08FE0809353048BE891E0EE20D1F0ED
:104460008091AF02882321F08091AD0240E081115C
:1044700040E4202F30E054E6959E200D311D11249C
:104480002115310599F419821A821B828FE38C83DE
:10449000CE0101960E94F10280E090E0892B11F498
:1044A0000C94E0190E9400000C94DC19CE010196D6
:1044B0007C01FC01C9016AE070E00E9411250097AF
:1044C00011F521153105F9F41382C9016AE070E094
:1044D0000E9411259B0131978A8D9B8DE817F90762
:1044E00049F74423A9F2D7019D917D01FD01319740
:1044F000842F8078892B8083440FEC8DFD8DEA1703
:10450000FB0789F7C5CF85589E4FDC018C918383CB
:10451000DCCF093008F452C98FEF9FEF0E94460E9E
:1045200061E08AE00E94720B82E391E00E94550BE9
:1045300061E0809194020E94720B0C94901A883C66
:1045400009F497CA823D09F4A5CA833D09F09BC8C6
:10455000B4FC8CCAB2FE97C8B1CA80915F04909136
:1045600060040E94082680915C0490915D0497FD90
:1045700003C060E00C9430020895F999FECF92BD1B
:1045800081BDF89A992780B50895262FF999FECF15
:104590001FBA92BD81BD20BD0FB6F894FA9AF99A60
:1045A0000FBE019608955058BB27AA270E94EB2200
:1045B0000C945E240E94502438F00E94572420F06E
:1045C00039F49F3F19F426F40C944D240EF4E09531
:1045D000E7FB0C944724E92F0E946F2458F3BA1785
:1045E000620773078407950720F079F4A6F50C9409
:1045F00091240EF4E0950B2EBA2FA02D0B01B901DA
:1046000090010C01CA01A0011124FF27591B99F048
:10461000593F50F4503E68F11A16F040A22F232F54
:10462000342F4427585FF3CF469537952795A795A4
:10463000F0405395C9F77EF41F16BA0B620B730B4B
:10464000840BBAF09150A1F0FF0FBB1F661F771FBC
:10465000881FC2F70EC0BA0F621F731F841F48F471
:10466000879577956795B795F7959E3F08F0B0CFFA
:104670009395880F08F09927EE0F979587950895E1
:104680000E94232408F481E008950E9459230C9489
:104690005E240E94572458F00E94502440F029F4D0
:1046A0005F3F29F00C94472451110C9492240C94F0
:1046B0004D240E946F2468F39923B1F3552391F39D
:1046C000951B550BBB27AA2762177307840738F081
:1046D0009F5F5F4F220F331F441FAA1FA9F335D0DE
:1046E0000E2E3AF0E0E832D091505040E695001C92
:1046F000CAF72BD0FE2F29D0660F771F881FBB1F4C
:10470000261737074807AB07B0E809F0BB0B802D29
:10471000BF01FF2793585F4F3AF09E3F510578F055
:104720000C9447240C9492245F3FE4F3983ED4F316
:10473000869577956795B795F7959F5FC9F7880F29
:10474000911D9695879597F90895E1E0660F771F7B
:10475000881FBB1F621773078407BA0720F0621B0C
:10476000730B840BBA0BEE1F88F7E09508950E9437
:10477000772488F09F5798F0B92F9927B751B0F058
:10478000E1F0660F771F881F991F1AF0BA95C9F7D5
:1047900014C0B13091F00E949124B1E008950C94BE
:1047A0009124672F782F8827B85F39F0B93FCCF371
:1047B000869577956795B395D9F73EF49095809552
:1047C000709561957F4F8F4F9F4F0895E89409C072
:1047D00097FB3EF490958095709561957F4F8F4F34
:1047E0009F4F9923A9F0F92F96E9BB279395F6954A
:1047F000879577956795B795F111F8CFFAF4BB0FC8
:1048000011F460FF1BC06F5F7F4F8F4F9F4F16C02B
:10481000882311F096E911C0772321F09EE8872FB5
:10482000762F05C0662371F096E8862F70E060E071
:104830002AF09A95660F771F881FDAF7880F9695EA
:10484000879597F90895990F0008550FAA0BE0E88E
:10485000FEEF16161706E807F907C0F01216130642
:10486000E407F50798F0621B730B840B950B39F482
:104870000A2661F0232B242B252B21F408950A26E8
:1048800009F4A140A6958FEF811D811D089597F928
:104890009F6780E870E060E008959FEF80EC0895E6
:1048A00000240A941616170618060906089500240F
:1048B0000A9412161306140605060895092E039489
:1048C000000C11F4882352F0BB0F40F4BF2B11F4FD
:1048D00060FF04C06F5F7F4F8F4F9F4F089557FD5C
:1048E0009058440F551F59F05F3F71F04795880F5E
:1048F00097FB991F61F09F3F79F0879508951216F5
:1049000013061406551FF2CF4695F1DF08C01616A0
:1049100017061806991FF1CF869571056105089451
:104920000895E894BB2766277727CB0197F9089568
:104930000E94AB240C945E240E94502438F00E9404
:10494000572420F0952311F00C9447240C944D2407
:1049500011240C9492240E946F2470F3959FC1F34C
:10496000950F50E0551F629FF001729FBB27F00D1D
:10497000B11D639FAA27F00DB11DAA1F649F662772
:10498000B00DA11D661F829F2227B00DA11D621FC1
:10499000739FB00DA11D621F839FA00D611D221F7B
:1049A000749F3327A00D611D231F849F600D211D5F
:1049B000822F762F6A2F11249F5750409AF0F1F0E2
:1049C00088234AF0EE0FFF1FBB1F661F771F881F4B
:1049D00091505040A9F79E3F510580F00C94472418
:1049E0000C9492245F3FE4F3983ED4F38695779538
:1049F0006795B795F795E7959F5FC1F7FE2B880FF1
:104A0000911D9695879597F90895991B79E004C0B3
:104A1000991F961708F0961B881F7A95C9F78095FD
:104A20000895AA1BBB1B51E107C0AA1FBB1FA617F5
:104A3000B70710F0A61BB70B881F991F5A95A9F747
:104A400080959095BC01CD010895A1E21A2EAA1B74
:104A5000BB1BFD010DC0AA1FBB1FEE1FFF1FA2172E
:104A6000B307E407F50720F0A21BB30BE40BF50B2B
:104A7000661F771F881F991F1A9469F760957095B4
:104A8000809590959B01AC01BD01CF010895052E45
:104A900097FB1EF400940E945E2557FD07D00E94EC
:104AA000252507FC03D04EF40C945E2550954095C7
:104AB000309521953F4F4F4F5F4F089590958095CA
:104AC000709561957F4F8F4F9F4F0895EE0FFF1F99
:104AD0000590F491E02D09940F931F93CF93DF93EA
:104AE0008230910510F482E090E0E0917504F0913D
:104AF000760430E020E0B0E0A0E0309799F4211592
:104B0000310509F44AC0281B390B24303105D8F58A
:104B10008A819B816115710589F1FB0193838283F1
:104B2000FE0111C04081518102811381481759074C
:104B3000E0F04817590799F4109761F012960C931A
:104B4000129713961C933296CF01DF91CF911F914C
:104B50000F9108950093750410937604F4CF2115F6
:104B6000310551F04217530738F0A901DB019A01D2
:104B7000BD01DF01F801C1CFEF01F9CF90937604B9
:104B800080937504CDCFFE01E20FF31F81939193C3
:104B90002250310939832883D7CF20917304309173
:104BA0007404232B41F420911401309115013093AA
:104BB0007404209373042091120130911301211584
:104BC000310541F42DB73EB74091160150911701C0
:104BD000241B350BE0917304F0917404E217F30782
:104BE000A0F42E1B3F0B2817390778F0AC014E5F5D
:104BF0005F4F2417350748F04E0F5F1F5093740422
:104C000040937304819391939FCFF0E0E0E09CCFB9
:104C1000CF93DF930097E9F0FC0132971382128261
:104C2000A0917504B0917604ED0130E020E010977A
:104C3000A1F420813181820F931F20917304309160
:104C400074042817390709F061C0F0937404E093E5
:104C50007304DF91CF910895EA01CE17DF07E8F5DD
:104C60004A815B819E0141155105B1F7E901FB8342
:104C7000EA8349915991C40FD51FEC17FD0761F4E0
:104C8000808191810296840F951FE9019983888321
:104C9000828193819B838A83F0E0E0E012968D917C
:104CA0009C9113970097B9F52D913C911197CD01E7
:104CB0000296820F931F2091730430917404281779
:104CC000390739F6309751F5109276041092750431
:104CD000B0937404A0937304BCCFD383C283408188
:104CE0005181840F951FC817D90761F44E5F5F4F3C
:104CF00088819981480F591F518340838A819B8104
:104D0000938382832115310509F0B0CFF0937604A7
:104D1000E09375049ECFFD01DC01C0CF13821282A7
:104D2000D7CF6817790768F4FB01DC01E40FF51FA2
:104D3000A40FB51F02C002900E9241505040D8F708
:104D400008950C94A326FB01DC0102C001900D9292
:104D500041505040D8F7089511E0C2E1D1E004C0BD
:104D6000FE010E9466252196C331D107C9F7F89448
:024D7000FFCF73
:104D7200FFFFFFFFFFFFFFFFFFFFFFFFFFFFFFFF41
:104D8200FFFF000077048000000040001400540080
:104D920001000A006400E803102700010001007E00
:104DA2000000000108000100FF00000102FF0000F6
:104DB20000FF00000003FF000000FF00000004FFEE
:104DC200000000FF00000005FF000000FF000000DF
:104DD200060200000002000000071200120012008A
:104DE2000001081C000000FF0002003F065B4F6646
:104DF2006D7D077F6F777C395E797140404040005E
:104E020000000069063C061E08120635062206133B
:104E12000600000000460BA9031E081D084F0045AE
:044E2200003F3F000E
:00000001FF
